:100000000C9492000C94BA000C94BA000C94BA00B0
:100010000C94BA000C94BA000C94BA000C94BA0078
:100020000C94BA000C94BA000C94BA000C94BA0068
:100030000C94BA000C94BA000C94BA000C94BA0058
:100040000C94BA000C944F0E0C94290E0C94BA0028
:100050000C94BA000C94BA000C94BA000C94BA0038
:100060000C94BA000C947D0E0C94BA000C94BA0057
:100070000C94BA000C94BA000C94BA000C94BA0018
:100080000C94BA000C94BA000C94BA000C94BA0008
:100090000C94A50E0C94BA000C94BA000C94BA00FF
:1000A000005EBCE2613FDD83C29C7E20A3FD1F4158
:1000B000009D23BE46DB65F88C11AF32CA57E97448
:1000C00057525400484B4F004A4243004F464600A7
:1000D0004F4E0069726F6E74797065006572726F51
:1000E00072006F6E657769726574656D70006F6E12
:1000F0006368697074656D700074656D70657261B8
:100100007475726500736574706F696E7400636CEA
:100110006561720068656C70006765740073657472
:100120000000070F11241FBECFEFCDBFDFE3DEBFFE
:1001300018E2A0E0B8E2EBE5FBE302C005900D9207
:10014000A432B107D9F729E2A4E2B8E201C01D92B6
:10015000A537B207E1F710E0C2E9D0E004C021976B
:10016000FE010E94681AC139D107C9F70E94770FB2
:100170000C94AB1A0C940000E7E4F9E213861586A0
:1001800014861286118610861782168215821482B2
:100190001382089590914729A0914829B091492947
:1001A000292F2095FD013497189780FF14C0F894EB
:1001B0008081822380838C91892B8C93A3E2B0E091
:1001C0001197F1F78081982B9083789487ED90E0D8
:1001D0000197F1F70895F8948081822380838C91B0
:1001E000892B8C93AFEFB0E01197F1F78081982BBA
:1001F000908378948FE090E0EBCFFF920F931F9362
:10020000CF93DF93F82E062FC8E0D0E011E081E015
:100210009F2D912309F480E00E94CA00110F2197BD
:10022000B1F7011118C0F894E0914829F0914929DB
:100230003897908180914729809589238083E09128
:100240004829F091492934979081809147298095D8
:10025000892380837894DF91CF911F910F91FF9034
:1002600008950F931F93CF93DF938C0160E085E592
:100270000E94FD00E801085F1F4F60E089910E9425
:10028000FD00C017D107C9F7DF91CF911F910F91E2
:100290000895CF93DF9380914729A0914829B09189
:1002A0004929F894FD0138979081282F20959223B1
:1002B000908378943DE743E050E0315049F1EA0102
:1002C0002197F1F79C919823C1F3F894ED012497BD
:1002D0009881922398839081982B90837894CBE790
:1002E000D7E02197F1F7F894908192239083E3E18E
:1002F000F1E03197F1F79C91982381E009F080E0DB
:100300007894E3E6F6E03197F1F7DF91CF91089525
:1003100080E0FBCFCF93DF9380914729A0914829BC
:10032000B0914929F894FD0138979081982B9083DA
:10033000ED0124972881382F309523232883C7E0A7
:10034000D0E02197F1F7908193239083E3E2F0E0EE
:100350003197F1F79C917894EFECF0E03197F1F759
:10036000982381E009F480E0DF91CF91089508950A
:100370006115710539F4DC01ED91FC910280F38186
:10038000E02D09946115B8E07B0710F06FEF77E07E
:100390006093380A7093390A08951092380A1092BF
:1003A000390A0895AF92BF92CF92DF92EF92FF92F7
:1003B0000F931F93CF93DF936C017B018B01040F8D
:1003C000151FEB015E01AE18BF08C017D10759F029
:1003D0006991D601ED91FC910190F081E02DC6016B
:1003E0000995892B79F7C501DF91CF911F910F9165
:1003F000FF90EF90DF90CF90BF90AF900895FC01F9
:10040000508D418D252F30E0842F90E0821B930B7F
:10041000541710F0CF96089501970895FC0196891E
:100420008789981761F0A789AE0FBF2FB11D5D9620
:100430008C9197899F5F9F73978B90E008958FEFC2
:100440009FEF0895FC0196898789981731F0878975
:10045000E80FF11D858D90E008958FEF9FEF0895CF
:10046000FC0196892789892F90E0805C9F4F821B31
:1004700091098F739927089582EA98E20E943002C9
:1004800021E0892B09F420E0822F0895CF93DF9398
:10049000EC01E881F9810680F781E02D0995EC8572
:1004A000FD8586818F738683EC85FD8585818F75BB
:1004B00085838F898E8B1D8ADF91CF910895FC01F2
:1004C000613019F4648B81E00895148A6623D9F3AE
:1004D00080E00895DC0154961C92549754968C91B8
:1004E00054978230A0F4282F30E0F901EE0FFF1F5F
:1004F000E20FF31FEA0FFB1F9785961303C0968543
:10050000941749F08F5F54968C935497E7CF549685
:100510001C9280E0089581E00895CF93DF93FC0161
:10052000908D818DC485D585981306C08D818F7D72
:100530008D83DF91CF910895A18DAE0FBF2FB11D97
:10054000A35ABF4F2C91818D90E001968F7399270C
:10055000818F80E48C83A485B58512962C93908D31
:10056000818D9813E6CFA485B58515968C91159746
:100570008F7D15968C93838D8823D9F2848D8093FB
:100580001301138ED6CFDC011C96ED91FC910FB6B2
:1005900007FE03C0258125FD04C0248125FD0C94A0
:1005A0008D020895EF92FF920F931F93CF93DF93E5
:1005B000EC0181E08D8B988D898D98131CC0AC85E2
:1005C000BD8514968C91149785FF15C012966C9377
:1005D000AC85BD8580E414968C93EC85FD85858182
:1005E0008F7D858381E090E0DF91CF911F910F9106
:1005F000FF90EF9008958091110180FF08C08091D5
:1006000013018C8F8A8D8093130181E08B8FF62EDE
:10061000088D10E00F5F1F4F0F731127E02E898D9B
:100620008E1104C0CE010E94C302F9CFE88DEC0FF9
:10063000FD2FF11DE35AFF4FF082088FEC85FD85F9
:1006400085818062CECFCF93DF93FC012589222361
:10065000C9F0EC018091110180FF08C08091130165
:10066000848F828D8093130181E0838FEC85FD85DB
:10067000858185FD03C0848186FD04C0CE010E9472
:10068000C302F4CFDF91CF91089580E090E0892BF1
:1006900029F00E943C0281110E94000080E090E05D
:1006A000892B49F080E090E0892B29F00E9400001E
:1006B00081110E94000080E090E0892B49F080E0E9
:1006C00090E0892B29F00E94000081110E94000017
:1006D00080E090E0892B49F080E090E0892B29F0C0
:1006E0000E94000081110C940000089581E008959B
:1006F000CF93DF9390E0FC01E459F94820812F3F2C
:1007000069F0FC01ED5BF948A08130E2A39FD001C4
:100710001124BC5F613029F411962C93DF91CF91A5
:1007200008958D579A48EC01E881EF3F81F0CD01A3
:100730004096E80FF92FF11D9FB7F89412962C936D
:100740008081623039F4886080839FBFE7CFF0E01A
:10075000E0E0F2CF877FF8CF893210F40C94780371
:10076000089590E0FC01E65AFA48E081EE2319F181
:10077000E13021F000F1E630A8F008958D579A4855
:10078000FC012081233008F02F5F3091010A81E0C5
:1007900090E001C0880F2A95EAF780958323809323
:1007A000010A089580E1E89FF0011124E05AF54F15
:1007B00081818F7E818308950F931F93CF93DF9361
:1007C000C82FD0E0FE01E459F94800810F3FA1F0A5
:1007D000162F893210F40E94B103FE01ED5BF94837
:1007E000E08180E2E89FF0011124FC5F808180239A
:1007F00051F0111106C00683DF91CF911F910F9127
:1008000008950583F9CFCD57DA488881309771F084
:100810008F3F61F07096E80FF11D9FB7F8948081CB
:10082000111107C0877F80839FBFE6CFF0E0E0E033
:10083000F4CF8860F8CF893210F40C94DC0308956B
:10084000CF93DF93CFE3D9E260E08E810E941B0457
:1008500060E08F810E941B0461E08E810E941B0476
:1008600061E08F81DF91CF910C941B04CF93DF93D4
:10087000CFE3D9E261E08E810E941B0461E08F81A9
:100880000E941B0460E08F810E941B0460E08E8147
:10089000DF91CF910C941B04AF92BF92CF92DF9265
:1008A000EF92FF920F931F93CF93DF93EC016A01B6
:1008B0007B01A22E8D89882339F0E881F981068891
:1008C000F789E02DCE0109950C8910E0BFB6F894A8
:1008D00060E070E281EA97E0A70196010E94271A82
:1008E00069017A018FEFC81AD80AE80AF80AF69463
:1008F000E794D794C794EC85FD8586818D7F8683A8
:10090000EC85FD85868186831D8AA09123110A2EA0
:10091000000CBB0BA70196010E948F1A20E034E067
:1009200040E050E00E94491AEC85FD85C20ED31EBE
:10093000E41EF51EC086D186EC85FD85A782EC8578
:10094000FD858681806C8683EC85FD858581806848
:1009500085839091E2058B89809589239801220FE8
:10096000331F020F131FC00FD11F9889892B80934B
:10097000E20562E08E850E94AC0361E08F850E94F3
:100980001B0461E08F850E94AC03BFBEDF91CF9155
:100990001F910F91FF90EF90DF90CF90BF90AF909D
:1009A00008950F931F93CF93082F10E0F801E45997
:1009B000F948C081CF3F89F0893210F40E94B10319
:1009C000F801ED5BF948E08180E2E89FF001112435
:1009D000FC5F8085C82381E009F480E0CF911F91FE
:1009E0000F9108950F931F93CF93DF93D82FC8E0F3
:1009F00060E0809145290E941B040D2F0D2E000CF4
:100A0000110B61E0D0FF60E0809146290E941B0439
:100A100015950795D02F61E0809145290E941B0410
:100A2000C15031F760E0809145290E941B0461E0CC
:100A3000809146290E941B0461E0809145290E9413
:100A40001B0460E0809146290E94AC0383EC90E097
:100A50000197F1F7809146298932F0F061E08091A9
:100A600046290E94AC0360E0809146290E941B0445
:100A700010E0C3ECD0E0CE010197F1F761E0809186
:100A800046290E94AC032197F1F7812F90E0DF9176
:100A9000CF911F910F9108950E94D104182F8111B9
:100AA000E8CFDCCFCF93DF93D82FE62F6F37D9F184
:100AB000603140F50E2E000CFF0BEB5EF948808193
:100AC00090914229C0E09111C0E8C80F0E943604FD
:100AD00084E40E94F2040E9420040E9436048D2FB8
:100AE000806C0E94F2048C2F0E94F2040E94200469
:100AF0000E943604809141290E94F204DF91CF9137
:100B00000C94200480ED860F8A3030F40E2E000CF9
:100B1000FF0BEB51FA48D3CFE052EB3520F4F0E075
:100B2000E654FA48CCCF80E0CBCF8FB7F894209131
:100B30009E2830919F284091A0285091A128E091B3
:100B4000AA0AF091AB0A9091A60A90FF08C02F5F05
:100B50003F4F4F4F5F4FE091AA0AF091AB0A8FBF12
:100B6000A8EEB3E00E94841A24E0F695E7952A9552
:100B7000E1F76E0F7F1F811D911D08958F929F9247
:100B8000AF92BF92CF92DF92EF92FF924B015C0146
:100B90000E9495056B017C01A8EEB3E0A5019401CC
:100BA0000E94841AC60ED71EE81EF91EC616D70666
:100BB000E806F90618F40E949505F8CF0E949505FD
:100BC0006C157D058E059F05C8F3FF90EF90DF90B3
:100BD000CF90BF90AF909F908F900895DC0180E000
:100BE000615090F09D919827E92FEF70F0E0E0566A
:100BF000FF4F2491E92FE295EF70F0E0E055FF4FB1
:100C0000E491822F8E27ECCF08958F929F92AF921E
:100C1000BF92CF92DF92EF92FF920F931F93CF93E9
:100C2000DF93CDB7DEB72C97CDBFDEBF80916529AE
:100C3000882309F48FC080917129882309F48AC020
:100C40008091612990916229A0916329B0916429D2
:100C5000805F984DAF4FBF4F2FB7F89440919E28BB
:100C600050919F286091A0287091A1282FBF8417D0
:100C70009507A607B70708F06DC00E94490188E6EE
:100C800099E20E94310160E08EEB0E94FD008E012E
:100C90000F5F1F4F4E018AE0880E911C580198E0AB
:100CA000C92ED12CF12CEE24E3940E948A018111EB
:100CB000FE28EE0CE1E0CE1AD108B9F7F801F19266
:100CC0008F018E169F0659F7198568E0C5010E94AD
:100CD000EE05181791F010E0812F2C96CDBFDEBFE6
:100CE000DF91CF911F910F91FF90EF90DF90CF9008
:100CF000BF90AF909F908F90089569817A81809185
:100D00007029882309F46DC083E0660F771F8A95E8
:100D1000E1F78885803141F42F818CE090E0821BDF
:100D20009109607F680F791F072E000C880B990BC3
:100D30000E940E1920E030E040E85DE30E94721945
:100D40000E94D6186F5E7E4F609366297093672964
:100D5000109265298091612990916229A09163295F
:100D6000B0916429805E914BAF4FBF4F2FB7F8947D
:100D700040919E2850919F286091A0287091A128B1
:100D80002FBF84179507A607B70708F0A4CF1091C7
:100D90007129112309F49FCF0E94BC002FB7F8944A
:100DA00080919E2890919F28A091A028B091A12881
:100DB0002FBF8093612990936229A0936329B093F8
:100DC00064290E94490188E699E20E94310161E0AC
:100DD00084E40E94FD000E94BC0081E080936529AC
:100DE0007BCF8D81807611F4687F9ECF803211F4A5
:100DF0006C7F9ACF803409F097CF6E7F95CFCF93D9
:100E0000DF930E94050680917129D0916629C091D7
:100E10006729811102C0DAE2C1E080915F299091D7
:100E200060298130910509F468C0029709F0D7C0A4
:100E300088E030E020E091E01092060690930806EA
:100E400040910B0640FFFCCF4091100650911106D7
:100E5000240F351F815081F783E0369527958A95B9
:100E6000E1F7A8E8B3E10E946E1A2FEF33E040E00B
:100E700050E00E94491A213D67E0360708F0B2C0F1
:100E8000B9016E507640623C714008F04BC02E5064
:100E9000364041095109AAEAB0E00E94841A22ECC6
:100EA00031E040E050E00E94491A24533E4F4F4F3A
:100EB0005F4F8D2F9C2F893E910510F489EE90E0B5
:100EC000803941E0940710F08FE891E08B52914017
:100ED0008217930709F489C0273E63E0360710F4B0
:100EE000281B390B20935D2930935E2980915D2961
:100EF00090915E29DF91CF91089588E030E020E065
:100F000091E0909306069093080640910B0640FFEF
:100F1000FCCF4091100650911106240F351F8150CF
:100F200081F79ACFB901655773406E39724098F4D2
:100F30002557334041095109AAEAB0E00E94841ABA
:100F400023EA32E040E050E00E94491A2E5D3E4F15
:100F50004F4F5F4FAECFB9016D5C7109683A724077
:100F600098F42D5C310941095109ADEBB0E00E94C4
:100F7000841A28EA32E040E050E00E94491A2C59D5
:100F80003F4F4F4F5F4F95CFB9016A537109633996
:100F9000710598F42A53310941095109A1E3B0E0E0
:100FA0000E94841A23E930E040E050E00E94491A90
:100FB0002E5C3F4F4F4F5F4F7CCF2A33310590F46B
:100FC000A8E1B0E00E94841A2AE330E040E050E05B
:100FD0000E94491A275E3F4F4F4F5F4F6ACF27EE5F
:100FE00033E067CF27EE33E07DCF10925D2910927A
:100FF0005E297CCF8F929F92AF92BF92CF92DF9269
:10100000EF92FF920F931F93CF937C015B016901D5
:1010100080913D2890913E288217930791F020936C
:101020003D2830933E2880ED97E0F701828393833B
:1010300080E480933F2980EC809340298FE880935F
:101040004129F70182819381892B49F480E48093BF
:101050003F2980EC809340298AE8809341298501CB
:10106000C3E08AE0882E912C6FE70115110529F065
:10107000C801B4010E94131A682F8C2F0E945205D8
:10108000C801B4010E94131A8B01C15068F7AC1457
:10109000BD04D8F4F70184819581843F9140A8F480
:1010A00081E08093422960E280E00E945205109224
:1010B0004229CF911F910F91FF90EF90DF90CF9039
:1010C000BF90AF909F908F90089510924229EBCFE0
:1010D0008091362890913728892B29F01092362854
:1010E00010923728F5CF10928C280895CF92DF9276
:1010F000EF92FF9220912A2830912B2880913A2854
:1011000090913B288217930778F480913A28909128
:101110003B280197821B930BC29758F40000FF9065
:10112000EF90DF90CF90089580913A2890913B28DE
:10113000F1CF80913A2890913B2880932A28909370
:101140002B28F89481E08093292878941092380A0B
:101150001092390A6AE070E080E090E00E94BE05DB
:101160000E94FF06209120283091212882179307A2
:1011700008F070C0A0912028B0912128A81BB90BBD
:10118000A330B1050CF051C0809188289091892836
:10119000A0918A28B0918B280596A11DB11D80933E
:1011A000882890938928A0938A28B0938B288091CF
:1011B000882890918928A0918A28B0918B28813025
:1011C0009840A105B10564F080E098E0A0E0B0E0AF
:1011D0008093882890938928A0938A28B0938B289D
:1011E000C0908828D0908928E0908A28F0908B2899
:1011F000A4E6B0E0A70196010E94841A20E038E03E
:1012000040E050E00E94491A20939628B60121E060
:10121000C21628E0D20610F060E078E08BE599E293
:101220000E94B801109229287ACF2091202830916D
:1012300021280E947D1A26E030E040E050E00E9424
:10124000491A209388283093892840938A285093FC
:101250008B28ADCF209120283091212828173907DD
:1012600008F0BECF2091202830912128821B930BBB
:101270000397DCF0109288281092892810928A280F
:1012800010928B288091882890918928A0918A2893
:10129000B0918B28B7FFA4CF10928828109289288C
:1012A00010928A2810928B289BCFC0908828D090CB
:1012B0008928E0908A28F0908B281C141D041E04B5
:1012C0001F0404F787E0C816D104E104F104B4F167
:1012D000C701B60129EF3FEF4FEF5FEF0E94491AB8
:1012E000C20ED31EE41EF51EC0928828D092892813
:1012F000E0928A28F0928B28C701B60127E030E0FF
:1013000040E050E00E94491A643071058105910562
:101310000CF4B8CF1C141D041E041F040CF0B2CF33
:1013200021E0C21AD108E108F108C0928828D092C1
:101330008928E0928A28F0928B28A4CF81E0C81AED
:10134000D108E108F108F1CFF89481E080932928D1
:10135000109288281092892810928A2810928B283F
:10136000109229287894089580912228909123281A
:101370008530910511F0079729F480918628909186
:101380008728089580912028909121280895DC01D4
:10139000ED91FC910488F589E02D23E030E009947B
:1013A0008091380A9091390A0895FC0180819181D9
:1013B000FC01FF2790FD06C080E094E1E82BF92BAB
:1013C0008081089580E093E1F9CF1F93CF93DF935D
:1013D000EC01162F0E94D5098117B9F088819981F7
:1013E000FC01FF2790FD16C080E094E1E82BF92B6B
:1013F00010838FB7F8949DE923E094BF20930010E9
:101400008FBF8091021081FDFCCFCE01DF91CF9183
:101410001F91089580E093E1E9CFCF92DF92EF92A0
:10142000FF921F93CF93DF9300D0CDB7DEB787E055
:10143000C82ED12CC982DA82CE0101960E94D5092C
:10144000182F98E0E92EF12CE982FA82CE0101965C
:101450000E94D5098095811779F0C982DA8263E00C
:10146000CE0101960E94E509E982FA826CEFCE0175
:1014700001960E94E50913E0812F90E00F900F90F4
:10148000DF91CF911F91FF90EF90DF90CF90089563
:101490000F931F93CF93DF9300D0CDB7DEB78C01AE
:1014A0008130910511F0029711F500935F29109397
:1014B000602961E08EE10E94DC0387E090E089838F
:1014C0009A83602FCE0101960E94E50988E090E0A2
:1014D00089839A83602F6095CE0101960E94E50969
:1014E0000F900F90DF91CF911F910F91089582E09F
:1014F00090E080935F299093602960E0DBCF20919A
:101500009B28211180C08430910509F445C098F4CE
:101510008230910529F1039799F1809120289091CB
:101520002128C29708F065C082E390E080932028CC
:101530009093212808958630910509F44AC0D8F186
:10154000079759F780912028909121288D3B914051
:1015500008F04CC0809120289091212805960BC05E
:101560008091202890912128C397B8F2809120285B
:101570009091212801978093202890932128CDCF06
:101580008091202890912128C59790F08091202863
:10159000909121280297EFCF8091202890912128C7
:1015A000C89730F080912028909121280597E3CFAB
:1015B00082E390E0E0CF8091202890912128823C26
:1015C000914008F0AACF809120289091212801967F
:1015D000D2CF8091202890912128803C914030F4F6
:1015E00080912028909121280296C5CF82EC91E02D
:1015F000C2CF8091202890912128833C914000F116
:1016000082EC91E093CF20919A282130C9F4823066
:101610009105B9F085309105F9F0019789F4809131
:101620008D2890918E288031974250F08BE090E089
:10163000809322289093232810929A2810929B2816
:1016400008950E940D0A8150882351F0843008F0DB
:1016500083E090E00C94480A0E940D0A8F5FF4CF5B
:1016600081E0F7CFCF93DF9380913C28833008F45B
:1016700069C110923C2880913A2890913B280196AC
:1016800080933A2890933B2880919C2890919D28A4
:10169000892B49F080919C2890919D2801978093F7
:1016A0009C2890939D288091382890913928893ED4
:1016B00023E0920708F43AC1109238281092392892
:1016C00080919728909198280196809397289093DD
:1016D000982880915D2990915E2980939428909319
:1016E000952880913628909137288835924011F5B9
:1016F00081E080938C2840912028509121282091CE
:101700005D2930915E2980919628E0912228F09100
:101710002328E930F10508F007C1EF56F44F0C9487
:10172000681AAD0B7A0C880C7A0C810CAD0BAD0BE2
:10173000FD0BFD0B8091362890913728893592401A
:1017400010F00000D8CF809136289091372801966C
:101750008093362890933728CECF882309F44AC047
:10176000C901B0E0A0E070E060E0481B590B6A0BD3
:101770007B0B4630510561057105E4F140912F283E
:1017800050913028841B950BA109B1098330910534
:10179000A105B10550F580912E288F5F80932E28EA
:1017A00080912E28873070F081E0809385281092F8
:1017B0002E2881E090E080932228909323288AE0CD
:1017C00080932D28293582E0380760F083E08093EC
:1017D000852881E090E080932228909323288AE056
:1017E00080932D2810922C2818C0873F9F4FAF4F11
:1017F000BF4F8CF210922E28D3CF293542E0340708
:1018000060F083E08093852881E090E08093222837
:10181000909323288AE080932D2820932F283093BB
:10182000302880913428909135288A30910508F429
:1018300083C0109234281092352884E00E94D1048D
:10184000811184C080918D2890918E28892B21F45C
:1018500090E080E00E947F0A80918D2890918E28F0
:10186000019649F080918D2890918E280196809361
:101870008D2890938E28C0913328CC0FCF70C093C1
:10188000332886E00E94D104882319F0C160C093F8
:101890003328809133288330F1F4C0913128D091DE
:1018A000322885E00E94D104811160C0CA30D10580
:1018B00070F084E090E0C233D10538F083E090E02E
:1018C000CA3FD10510F082E090E00E947F0A10929A
:1018D00031281092322880913128909132288F3F00
:1018E000980729F001968093312890933228DF9150
:1018F000CF91089580912D28882309F48ECF8150AF
:101900008ACF80912D28882341F0815080932D2803
:10191000109222281092232865CF10922E28109220
:10192000222810922328F4CF000077CF01968093CD
:1019300038289093392875CF019680933428909356
:1019400035287BCF8F5F80933C2877CF80918D287F
:1019500090918E28893C910520F081E090E00E94D2
:101960007F0A10928D2810928E2885CFCA30D1051B
:1019700008F4ADCF87E090E0C233D10508F4A5CFDD
:1019800086E090E0CA3FD10508F49FCF85E090E063
:101990009CCFE0E0F6E082818F7C806582830895B1
:1019A000EF92FF920F931F93CF93DF937C0110E090
:1019B00000E0E70109900020E9F72197CE19DF093F
:1019C00080914329909144290C171D0758F5081759
:1019D0001907F4F064EF71E080E090E00E94BE052A
:1019E000D0E0C0E09E018091432990914429219646
:1019F00028173907A4F4F801EC0FFD1FE81BF90BB9
:101A0000EE0DFF1D60818C2F81500E945205EACFA0
:101A1000F701E00FF11F6081802F0E9452050F5FD8
:101A20001F4FC7CF8091432990914429C817D907E8
:101A300034F46FE78C2F0E9452052196F3CFDF918B
:101A4000CF911F910F91FF90EF90089581EF99E74B
:101A50000C94D00C0E94A40960919728709198284A
:101A600085E599E20E94260D0C94FF06CF93DF9343
:101A7000CDB7DEB72597CDBFDEBF862F95E0E1EB72
:101A8000F6E7DE01119601900D929A95E1F720E3B9
:101A9000260F6A30A0F42C8380E480933F2980ECE9
:101AA000809340298AE880934129CE0101960E94C3
:101AB000D00C2596CDBFDEBFDF91CF9108956AE0AF
:101AC0000E94071A90E3980F9B8396EF899F200D41
:101AD0001124E1CF86EB96E70C94D00C8BEB96E7C4
:101AE0000C94D00CFC0101900020E9F73197AF0174
:101AF000481B590BBC0182EA98E20C94D2018F92E8
:101B00009F92AF92BF920F931F93CF93DF93CDB766
:101B1000DEB7A197CDBFDEBF19A2423008F44AE07C
:101B20008E010F5D1F4F842E912CB12CA12CA5018D
:101B300094010E94271AE62FB901CA01EA30DCF4A9
:101B4000E05DD801EE938D01232B242B252B79F713
:101B500090E080E0109719F0CD010E94720DA196DF
:101B6000CDBFDEBFDF91CF911F910F91BF90AF909E
:101B70009F908F900895E95CE4CFCF92DF92EF922F
:101B8000FF92CF93DF936C01990FEE08FF08F7FEE9
:101B900019C06DE282EA98E20E94D202EC01662747
:101BA0007727CB016C197D098E099F094AE00E94B5
:101BB0007F0D8C0F9D1FDF91CF91FF90EF90DF90F5
:101BC000CF9008954AE0C701B601DF91CF91FF9011
:101BD000EF90DF90CF900C947F0DCF93DF930E9416
:101BE000720DEC0180EC96E70E94720D8C0F9D1F28
:101BF000DF91CF9108950C94720D0F931F93CF93A3
:101C0000DF93C82FD62F83EC96E70E94FB0D0C2F95
:101C100010E00D5B174DCD17A0F4F80161918F0115
:101C200088ED96E76A3021F06D3031F483EE96E767
:101C30000E94FB0DCF5FEFCF82EA98E20E94D202B2
:101C4000F9CF86ED96E7DF91CF911F910F910C941C
:101C5000ED0D1F920F920FB60F9211242F933F9309
:101C60004F935F936F937F938F939F93AF93BF93A4
:101C7000EF93FF9382EA98E20E948D02FF91EF9129
:101C8000BF91AF919F918F917F916F915F914F9194
:101C90003F912F910F900FBE0F901F9018951F929C
:101CA0000F920FB60F9211242F938F939F93EF9360
:101CB000FF93E091AE28F091AF28818181FD1BC098
:101CC00090818091B8288F5F8F732091B9288217F7
:101CD00041F0E091B828F0E0EE55F74D958F8093F4
:101CE000B828FF91EF919F918F912F910F900FBE88
:101CF0000F901F9018958081F4CF1F920F920FB60E
:101D00000F9211248F939F93AF93BF9380919E283E
:101D100090919F28A091A028B091A1280196A11D83
:101D2000B11D80939E2890939F28A093A028B093E4
:101D3000A12881E08093A60ABF91AF919F918F91D6
:101D40000F900FBE0F901F9018951F920F920FB615
:101D50000F9211242F933F934F935F936F937F9331
:101D60008F939F93AF93BF93EF93FF938091252819
:101D700090912628A0912728B09128280196A11D8E
:101D8000B11D8093252890932628A0932728B093EF
:101D9000282881E08093B60AE0914128F0914228FA
:101DA000309709F00995809124288330A0F48F5F43
:101DB00080932428FF91EF91BF91AF919F918F91D4
:101DC0007F916F915F914F913F912F910F900FBE37
:101DD0000F901F90189510922428E0913F28F091C1
:101DE0004028309739F382819381009719F0019749
:101DF0008283938384819581883E23E0920720F437
:101E0000019684839583D6CF14821582D3CF1F93F6
:101E1000CF93DF93E2EAF8E21282138288EE93E036
:101E2000A0E0B0E084839583A683B78389E296E738
:101E30008083918380E098E08487958781E086871E
:101E40001786108A95E0918B94E0928B838B148A8D
:101E5000158A168A178A108E118E82E1828F138E50
:101E6000148ECFE3D9E284E090E08C839D8383E0FD
:101E70008E8312E01F8361E00E94780361E08F810E
:101E80000E94AC0360E08FE00E947803E7E4F9E28F
:101E9000108388E494E0818392830E94BC00C5E5AE
:101EA000D9E283EA96E7888399831A821B821C828F
:101EB0001D8289E996E78E839F8387EE93E088876A
:101EC000998782E090E08A879B871C861D861E8604
:101ED0001F86188A8FEF9FEF898B9A8B1C8E0E942A
:101EE000C90C1E8E1F8EDF91CF911F910895CF9345
:101EF000DF93CDB7DEB76A97CDBFDEBF88ED90E048
:101F000084BF9093610080910206866080930206F0
:101F1000809100068160809300060E94C90C109297
:101F2000E20582E08093E40581E08093030A8EEF6E
:101F30008093270A8093260A80E880932D0A809355
:101F40002B0A8093290A80932C0A80932A0A809373
:101F5000280A8BE08093000A87E08093E505E0E89B
:101F6000FAE037E02EEF90E885E03183248795870B
:101F700080837096E03C4AE0F407B9F71092A10A1A
:101F80008FE79EE38093AC0A9093AD0A8091A50AF7
:101F900081608093A50A1092A00A8091A00A8160B6
:101FA0008093A00A789482E090E089839A83CE019E
:101FB00001960E94D509082F10E0102F002783E01A
:101FC00090E089839A83CE0101960E94D509082B5F
:101FD0009801225331092139314010F002E310E019
:101FE000009320281093212860E08FE00E9478035E
:101FF00061E08FE00E94DC0360E080E10E947803F2
:1020000061E080E10E94DC0360E081E10E947803EE
:1020100061E081E10E94DC0360E082E10E947803DC
:1020200061E082E10E94DC0360E083E10E947803CA
:1020300061E083E10E94DC0360E089E10E947803B3
:1020400061E089E10E94DC0360E08AE10E9478039C
:1020500061E08AE10E94DC0360E08BE10E9478038A
:1020600061E08BE10E94DC0360E08CE10E94780378
:1020700061E08CE10E94DC0360E08DE10E94780366
:1020800061E08DE10E94DC0360E087E20E9478035A
:1020900061E087E20E94DC0360E084E20E94780352
:1020A00061E084E20E94DC0360E085E20E94780344
:1020B00061E085E20E94DC0360E08FE10E9478032A
:1020C00061E08FE10E94DC0360E080E20E9478031F
:1020D00061E080E20E94DC0360E081E20E9478031C
:1020E00061E081E20E94DC0360E082E20E9478030A
:1020F00061E082E20E94DC0360E083E20E947803F8
:1021000061E083E20E94DC0360E080E00E947803EB
:1021100061E080E00E94DC0360E081E00E947803DF
:1021200061E081E00E94DC0361E08EE00E947803C0
:1021300060E08EE00E94DC0361E08EE10E947803A3
:1021400060E08EE10E94DC0360E088E10E94780399
:1021500060E088E10E94DC0360E086E10E94780391
:1021600060E086E10E94DC0360E087E10E94780382
:1021700060E087E10E94DC0360E082E00E94780377
:1021800060E082E00E94DC0360E083E00E9478036C
:1021900060E082E00E94DC0360E084E00E9478035B
:1021A00061E084E00E94DC0360E085E00E94780347
:1021B00061E085E00E94DC0360E086E00E94780335
:1021C00061E086E00E94DC0360E087E00E94780323
:1021D00061E087E00E94DC0361E083E00E94780315
:1021E00061E082E00E9478036FE780E00E94520580
:1021F0006FE781E00E9452056FE782E00E9452057E
:102200006FE783E00E94520580E480933F2980ECD1
:10221000809340298AE88093412910E000E088EB10
:10222000E82E82E2F82E9AE0C92ED12C2091432983
:102230003091442902171307C4F4201B310B21509D
:1022400031096FE7E114F10429F0C701B6010E94DA
:10225000131A682F822F0E945205C701B6010E94EF
:10226000131A7B010F5F1F4FE1CF109242290E948A
:102270000D0A0E94480AF8941092B10A8FE99FE073
:102280008093BC0A9093BD0A8091B50A81608093C7
:10229000B50A1092B00A8091B00A81608093B00AAA
:1022A00082E39BE0809341289093422885E599E260
:1022B00080933F289093402891E09093410410929E
:1022C000000A82E08093E4051092030A1092010A4A
:1022D0008091090A8E7F8093090A83E18093010A25
:1022E00020E038E02093360A3093370A1092380AFB
:1022F0001092390A9093000A789440E052EC61E021
:1023000070E082EA98E20E94C70910929B280E941E
:1023100068081092380A1092390A89E090E0809398
:102320002228909323286624639414E0212E312CD4
:1023300000ED402E07E0502EBE01665F7F4F6E8B92
:102340007F8B80918428811112C08CEE96E70E94C9
:10235000ED0D8CE097E70E94ED0D83EB99E70E946D
:10236000ED0D89E99AE70E94FB0D6092842882EACC
:1023700098E20E94300218161906ECF582EA98E2FB
:102380000E940E02182F8D3009F053C080918328CF
:10239000803408F057C0E82FF0E0ED5BF74D108374
:1023A0008F5F809383281D3011F01A3001F784E08D
:1023B0009AE70E94FB0D809183288823C1F21D8239
:1023C0001E821F821886E3E4F8E2D12C813408F4DF
:1023D00040C08CE297E70E94ED0DE3E4F8E2119231
:1023E00088E2E338F807D9F71092832810E000E07C
:1023F000F12CE12C4BC10E940506E0912228F091BE
:102400002328E031F10508F0F6C4E75FFD4E0C9497
:10241000681A4017F417FF17021817182E186218B9
:102420009B18A8186B15C716D816EB16FE161917A9
:1024300022178A3009F4AACF682F82EA98E20E9414
:10244000D202A4CF70E470938328ADCFDA2C8A1522
:10245000E9F18F01035418429191AA24A394AD0C81
:10246000903221F09A3011F09D3081F7ED2CF12C53
:10247000A7016DE171E083E498E20E94C818892BFE
:1024800009F4DDC0A70169E171E083E498E20E94EC
:10249000C818892B09F4D7C0A70164E171E083E46F
:1024A00098E20E94C818892B09F4D1C0A7016EE0F8
:1024B00071E083E498E20E94C818E3E0EE2EF12C6C
:1024C000892B31F06D2D80E00E94FD0DF12CE12C67
:1024D00090918328A91608F096C1F801ED5BF74D9D
:1024E00080818A3009F48FC18D3009F48CC10A2DA6
:1024F00010E0F801ED5BF74D9A2C9F012354384210
:10250000298F3A8F819131E0390D388F803229F04F
:102510008A3019F08D3009F09EC0C92CCA18D12C10
:102520000D5B174DA60165E071E0C8010E94C81857
:10253000892B09F494C0A60169EF70E0C8010E94DC
:10254000C818892B09F48EC0A6016EEE70E0C80190
:102550000E94C818892B09F488C0A60162EE70E0B9
:10256000C8010E94C818892B09F482C0A6016CED2D
:1025700070E0C8010E94C818892B09F47CC0A6012C
:1025800063ED70E0C8010E94C81806E010E0892BD6
:1025900031F0692D8A2D0E94FD0D10E000E0609160
:1025A0008328488D461708F071C0E98DFA8DED5BE0
:1025B000F74D80818A3009F469C08D3009F466C016
:1025C000F801EE0FFF1FE455FA4880819181892BB5
:1025D00029F4842F0E94FD0D10E000E0F801EE0FB9
:1025E000FF1FE455FA4820813181C90107970297FE
:1025F00008F488C0788C812C912C54018091832818
:10260000781608F003C1E72DF0E0ED5BF74DE081AF
:1026100080ED8E0F8A3090F5AAE0B0E0A50194011C
:102620000E94841A4E2F4053550B4A01550FAA0899
:10263000BB08860E971EA81EB91E7394DFCFB2E0AA
:10264000EB2EF12C45CFEE24E394F12C41CFF4E0B6
:10265000EF2EF12C3DCF988C99114FCF9ECF01E0FA
:1026600010E09DCF02E010E09ACF03E010E097CF9A
:1026700004E010E094CF05E010E091CFEA3011F0D3
:10268000ED3059F58D829E82AF82B886E982FA825A
:102690000B831C83798689E0FE013196DE011D964D
:1026A00001900D928A95E1F7F2E0EF16F10409F43A
:1026B000EEC008F0ADC0EA94EF2809F441C1E3E4AC
:1026C000F8E2119298E2E338F907D9F710928328DB
:1026D00087E99AE70E94FB0D4ACEEF51E03608F4F5
:1026E000ACCF1D821E821F82188683EC96E70E9463
:1026F000FB0D672D888D0E94FD0D10E000E0F12C90
:10270000E12C9BCF40918328588D852F90E0BC0110
:102710006D5B774D6B016D837E834B01FB01782EE2
:10272000788D771A841708F060C091919A3019F06B
:102730009D3009F058C02730310509F4A7CFA72CE8
:10274000B12CA50160ED70E0C6010E94C818892B6C
:1027500029F481E090E08D839E8398CFA5016CECF5
:1027600070E0C6010E94C818892B19F482E090E03D
:10277000F2CFA50168EC70E0C6010E94C818892B51
:1027800019F483E090E0E7CFA50164EC70E0C601A6
:102790000E94C818892B19F42D823E8277CFA5019B
:1027A00060EC70E0C6010E94C818892B19F485E01E
:1027B00090E0D1CF8CE397E70E94FB0DD12CD7148A
:1027C00049F0F40161914F0182EA98E20E94D2023D
:1027D000D394F5CF8EE397E70E94ED0D1D821E8204
:1027E0001F82188653CF8F5F9ACF1D821E821F8251
:1027F000188684EC96E70E94FB0D60918328888DF3
:102800000E94FD0DF3CD10E000E040CF712C3ECFD3
:1028100043E0E416F10409F452C154E0E516F10472
:1028200009F04DCF8AE597E70E94ED0D83EB99E71C
:102830000E94ED0D8DE697E70E94ED0D89EA97E77E
:102840000E94ED0D85EE97E70E94ED0D8EE198E771
:102850000E94ED0D83E598E70E94ED0D86E898E76C
:102860000E94ED0D83EC98E70E94ED0D8FEF98E745
:102870000E94ED0D8DE399E70E94ED0D8FE799E73A
:102880000E94ED0D82EB99E70E94ED0D18CF01300B
:10289000110531F00630110599F185E29AE7F4CF80
:1028A00089899A89AB89BC89009761E0A607B1053F
:1028B00008F005CF9C01225331092139314070F4D1
:1028C00020912228309123282530310519F0273016
:1028D000310589F4809386289093872886EF99E7BD
:1028E0000E94FB0D0E94B409BC0190E080E04AE028
:1028F0000E947F0D16C08093202890932128EECF50
:1029000089899A898430910541F08530910561F07B
:10291000039769F482E090E002C081E090E00E94B9
:10292000480A80E09AE709C083E090E0F8CF87E0AA
:102930009AE70E94ED0D8DE19AE70E94FB0DBFCE54
:102940000330110579F180F40130110539F20230BC
:10295000110509F0A2CF8DE49AE70E94FB0D60916A
:10296000942870919528C1CF0530110509F47CC0D9
:1029700008F471C00630110509F08FCF80E69AE7A0
:102980000E94FB0D0E940D0A8230910509F491C04E
:102990008330910509F488C0019709F08DC084E760
:1029A0009AE784C083E39AE70E94FB0DE091020658
:1029B0007091030660910506509106064091A000B3
:1029C0003091A10080E18093A00092E09093A1005B
:1029D000F4E4F0930206809103068064809303067A
:1029E00028E1209305068EE1809306066092080692
:1029F00080910B0680FFFCCF8FB7F8949091100662
:102A0000209111068FBFE093020670930306609336
:102A10000506509306064093A0003093A1008091D4
:102A20002111A0912011322F292F281B310987FD58
:102A30003395B0E00E946E1ADC01CB0180589F4FA5
:102A4000AF4FBF4F892F9A2FAB2FBB27815191409A
:102A50000E94BD0D66CF86E49AE70E94FB0D80912F
:102A6000662990916729F2CF89E59AE70E94FB0DCC
:102A7000809122289091232860E48230910549F0CA
:102A80008330910519F060E0019719F46091852871
:102A9000605870E090E080E04AE00E947F0D80E0A6
:102AA0009AE70E94FB0D6ACF8AE69AE70E94FB0D27
:102AB00038CF82E89AE7FACF8CE89AE7F7CF05306B
:102AC000110509F0EACE809199288F5F80939928AB
:102AD00084E99AE7D9CE85E599E20E946E0D80914E
:102AE000712981110EC080915429811104C00E9466
:102AF0004901811189C010925229109254291092D3
:102B0000532980917129882309F4D0C08CE09BE778
:102B10000E94ED0D0E94490188E699E20E94310170
:102B200061E084E40E94FD000E94BC0068EE73E056
:102B300080E090E00E94BE050E94490188E699E28B
:102B40000E94310160E08EEB0E94FD008E010F5F5C
:102B50001F4F48E0E42EF12CD12CCC24C3940E94CA
:102B60008A018111DC28CC0C21E0E21AF108B9F7C6
:102B7000F801D1928F012E893F892E173F0749F71F
:102B8000198568E0CE0101960E94EE05181721F024
:102B900080E29BE70E94ED0D69817A818091702926
:102BA000882309F4DFC033E0660F771F3A95E1F719
:102BB0008885803141F42F818CE090E0821B91095F
:102BC000607F680F791F072E000C880B990B0E94FD
:102BD0000E1920E030E040E85DE30E9472190E9487
:102BE000D6186F5E7E4F6093662970936729809137
:102BF0009C2890919D28803D974009F4C1C0409247
:102C00009C2850929D28F3CF60E080EF0E94FD0049
:102C100001E0E12CD12C11E00E948A01F82E0E94E3
:102C20008A01E1E0FE1247C0813009F063C011342F
:102C300008F461CFD0925229D11002C06092542979
:102C400080914A29882309F456CFEAE4F9E208E69C
:102C500019E2D80181918D9329E2E235F207D1F78B
:102C60008BE99AE70E94FB0D60E282EA98E20E94FB
:102C7000D202F80161918F0170E090E080E040E1C4
:102C80000E947F0DF9E200371F0771F767E088E6C1
:102C900099E20E94EE0590916F29891709F440C0CE
:102CA00081EA9AE70E94ED0D1092712982E39BE779
:102CB0000E94ED0D9CCFEE2DF0E0F81211C0809136
:102CC00052291817A8F4DF01A95BB64D13968C9111
:102CD000802381F4F12C193010F410935329D12E54
:102CE000E95BF64D8381902F9095892383830BC0F8
:102CF0008113F0CFEE2DF0E0E95BF64D8381802B60
:102D00008383FF24F3948F2D0E94CA001F5F000F5E
:102D100011F4E39401E0F7E0FE1508F07DCF87CFD2
:102D200080EC96E70E94720D809168298232A1F0B2
:102D3000883259F0803199F483EB9AE70E94ED0DC7
:102D40006092702960927129CECE84EC9AE70E943D
:102D5000ED0D10927029F6CF85ED9AE7F8CF85EE4C
:102D60009AE7A0CF8D81807611F4687F2CCF8032D6
:102D700011F46C7F28CF803409F025CF6E7F23CFEC
:102D80008AE090E0809322289093232834C0809199
:102D90009C2890919D28892B19F48BE090E0F2CF2C
:102DA00084E00E94D104811126C08DE090E0EACF3A
:102DB00085E599E20E946A0D80919C2890919D285A
:102DC000803D974029F040929C2850929D28F4CF56
:102DD0008CE090E0D7CF80919C2890919D28892B02
:102DE00029F4109222281092232805C084E00E9422
:102DF000D1048823B1F30E944503A3CA80919C2883
:102E000090919D28803D974029F040929C285092B7
:102E10009D28F4CF8EE090E0809322289093232881
:102E200082E49BE70E94D00C60929B2860929A28D3
:102E3000E2CF80919C2890919D28892BE1F68FE02C
:102E400090E0A0CF70E060E08BE599E20E94B801CD
:102E50000E940D0A8230910551F08330910551F0A6
:102E6000019759F487E49BE70E94D00CC4CF8CE40F
:102E70009BE7FACF81E59BE7F7CF86E59BE7F4CFA9
:102E800010929928E0909728F09098280091222895
:102E900010912328209120283091212840919628B4
:102EA000609194287091952885E599E20E94FA072F
:102EB000009120281091212882E090E089839A8354
:102EC000612FCE0101960E94E50983E090E089839D
:102ED0009A83602FCE0101960E94E5090E94760830
:102EE0004091922850919328809196289FE0949F3A
:102EF0009001959F300D1124820F932F911D809387
:102F0000922890939328809192289091932824E07E
:102F1000969587952A95E1F7809392289093932828
:102F20002091922830919328809190289091912817
:102F30002817390761F180918F288F3F29F0809100
:102F40008F288F5F80938F2880918F28883010F58D
:102F5000809196288436F1F080918D2890918E286A
:102F60008536910538F080918D2890918E28803D8E
:102F7000974080F080918C28882371F00E94680827
:102F800085E090E0809322289093232805C010923A
:102F90008F28DACF0E94680880918D2890918E2822
:102FA00089389341C0F01092882810928928109295
:102FB0008A2810928B2887E090E0809322289093B3
:102FC000232860929B28809120289091212880932B
:102FD00086289093872880919228909193288093B7
:102FE00090289093912807CF0E94A409609185288A
:102FF00085E599E20E94360D83E090E0C3CE0E9401
:10300000A409F9CE809197289091982880919928C9
:10301000882339F010929928209222283092232870
:10302000EACE84E00E94D1048823A1F3E4CEE090AC
:103030009728F09098280091222810912328209119
:1030400020283091212840919628609194287091F1
:10305000952885E599E20E94FA07CDCE60929B28DB
:10306000E0909728F090982800912228109123282A
:103070002091202830912128409196286091942811
:103080007091952885E599E20E94FA0780912028A1
:1030900090912128809386289093872880912028DA
:1030A000909121288536910530F084E690E0809358
:1030B00020289093212826E030E020932228309386
:1030C000232899CEE0909728F09098280091222804
:1030D0001091232820912028309121284091962872
:1030E000609194287091952885E599E20E94FA07ED
:1030F0000E94760884E00E94D104811107C080916B
:103100008D2890918E28883E934050F080918C2895
:10311000882309F470CE0E94680887E090E032CEE0
:103120008091862890918728809320289093212849
:1031300010929B2856CE0E94A4090E942A0D10923C
:103140002028109221281092962888E090E01ACE2C
:103150000E942A0D84E00E94D10481114CCE8091FE
:103160008D2890918E28883E934008F044CE10928E
:103170002228109223288091862890918728809376
:103180002028909321280E94680810929B2833CE13
:10319000FB01DC014150504030F08D9105908019C9
:1031A00019F40020B9F7881B990B08950E94DD18C7
:1031B0006894B1110C946C1908950E94511988F00B
:1031C0009F5798F0B92F9927B751B0F0E1F0660FEB
:1031D000771F881F991F1AF0BA95C9F714C0B1302C
:1031E00091F00E946B19B1E008950C946B19672F50
:1031F000782F8827B85F39F0B93FCCF3869577955B
:103200006795B395D9F73EF4909580957095619543
:103210007F4F8F4F9F4F0895E89409C097FB3EF46E
:1032200090958095709561957F4F8F4F9F4F992313
:10323000A9F0F92F96E9BB279395F6958795779591
:103240006795B795F111F8CFFAF4BB0F11F460FF51
:103250001BC06F5F7F4F8F4F9F4F16C0882311F0A9
:1032600096E911C0772321F09EE8872F762F05C0BD
:10327000662371F096E8862F70E060E02AF09A9558
:10328000660F771F881FDAF7880F9695879597F94D
:10329000089557FD9058440F551F59F05F3F71F046
:1032A0004795880F97FB991F61F09F3F79F08795AD
:1032B0000895121613061406551FF2CF4695F1DF36
:1032C00008C0161617061806991FF1CF86957105C6
:1032D000610508940895E894BB2766277727CB01FA
:1032E00097F908950E9485190C94F6190E94E8191F
:1032F00038F00E94EF1920F0952311F00C94DF199B
:103300000C94E51911240C946C190E94491970F35E
:10331000959FC1F3950F50E0551F629FF001729F7A
:10332000BB27F00DB11D639FAA27F00DB11DAA1F89
:10333000649F6627B00DA11D661F829F2227B00DD6
:10334000A11D621F739FB00DA11D621F839FA00D61
:10335000611D221F749F3327A00D611D231F849FB1
:10336000600D211D822F762F6A2F11249F57504008
:103370009AF0F1F088234AF0EE0FFF1FBB1F661F83
:10338000771F881F91505040A9F79E3F510580F04C
:103390000C94DF190C946C195F3FE4F3983ED4F35E
:1033A000869577956795B795F795E7959F5FC1F7F0
:1033B000FE2B880F911D9695879597F9089597F99B
:1033C0009F6780E870E060E008959FEF80EC0895CB
:1033D00000240A94161617061806090608950024F4
:1033E0000A9412161306140605060895092E03946E
:1033F000000C11F4882352F0BB0F40F4BF2B11F4E2
:1034000060FF04C06F5F7F4F8F4F9F4F0895991BE0
:1034100079E004C0991F961708F0961B881F7A95CB
:10342000C9F78095089597FB072E16F4009407D0EE
:1034300077FD09D00E94971A07FC05D03EF49095BD
:1034400081959F4F0895709561957F4F0895A1E2F2
:103450001A2EAA1BBB1BFD010DC0AA1FBB1FEE1F0E
:10346000FF1FA217B307E407F50720F0A21BB30B59
:10347000E40BF50B661F771F881F991F1A9469F7D5
:1034800060957095809590959B01AC01BD01CF0131
:103490000895052E97FB1EF400940E94601A57FDB4
:1034A00007D00E94271A07FC03D04EF40C94601A30
:1034B00050954095309521953F4F4F4F5F4F089560
:1034C00090958095709561957F4F8F4F9F4F089590
:1034D000EE0FFF1F0590F491E02D0994A29FB0011B
:1034E000B39FC001A39F700D811D1124911DB29F38
:1034F000700D811D1124911D08950E946E1AB7FF51
:103500000895821B930B08950E946E1AA59F900D3B
:10351000B49F900DA49F800D911D11240895B7FFB5
:103520000C94841A0E94841A821B930B0895AA1B80
:10353000BB1B51E107C0AA1FBB1FA617B70710F09E
:10354000A61BB70B881F991F5A95A9F780959095D0
:0A355000BC01CD010895F894FFCFEF
:10355A00000000000000000000000000000501015A
:10356A00010101010000000000000000000000004D
:10357A000000000000000203000001020304050627
:10358A0007000102030405000102030405060700FF
:10359A0001020304050607000102030001020304F5
:1035AA0005060000030000000000000000000800FB
:1035BA00000000000000000000006300004000005E
:1035CA0000000000000000000000000000000000F1
:1035DA0000777C395E79713576061E753837545C0A
:1035EA00737B506D781C3E7E766E1B0000000108CE
:1035FA00005F7C585E797135740416753837545CEF
:10360A007367506D781C3E2A766E1B3F065B4F66C9
:10361A006D7D077F6F777C395E797100000000D27B
:10362A0002D201FF01230330020E0222026A025F64
:10363A0002C7094C0446027603000000000000009D
:10364A000001010101010102020202020202020357
:10365A000303030303030304040404050505050522
:10366A000505010204081020408001020408102008
:10367A000102040810204080010204081020408042
:10368A00010204080102040810204000000000B8EA
:10369A0001CD01D009000000006E0D6A0DB701B717
:1036AA0001FA07360D260D452D302000626F6F7422
:1036BA000046315F35000D0A002053796E74617837
:1036CA00206572726F72206E6561723A22005B4EDB
:1036DA004557204C494E455D005B52455455524E64
:1036EA005D00456C656B746F7220536F6C64657214
:1036FA00696E6773746174696F6E20465720312E44
:10370A00340020206F6E20486172647761726520F0
:10371A003139303430392020202020202020202028
:10372A002000427566666572206F766572666C6FF8
:10373A007700270027206E6F74207265636F676EAB
:10374A00697A6564206173206B6579776F726400AA
:10375A00537570706F7274656420636F6D6D616EFE
:10376A006473007365742F67657420736574706F72
:10377A00696E74205B7878785D202D3E20546869E4
:10378A00732077696C6C20736574206F722067658B
:10379A00742074686520736574706F696E74007341
:1037AA0065742F6765742069726F6E74797065200D
:1037BA005B7878785D202D3E20546869732077699C
:1037CA006C6C20736574206F72206765742074684E
:1037DA00652069726F6E7479706500202020202040
:1037EA002020202020202020202020202057525432
:1037FA00203D2057656C6C657220525420546970C4
:10380A00202820313256202F2054797065204B20F1
:10381A0029202000202020202020202020202020B5
:10382A00202020202020484B4F203D2048414B4B50
:10383A004F20546970202820323456202F20547982
:10384A0070652043202920200020202020202020CD
:10385A0020202020202020202020204A4243203DD2
:10386A00204A424320546970202820323456202F9F
:10387A002054797065204B20292020006765742028
:10388A0074656D70657261747572652020202020E0
:10389A002020202D3E20546869732077696C6C20A3
:1038AA007265706F727420746865206375727265D0
:1038BA006E742074656D702E00676574206F6E6378
:1038CA0068697074656D70202020202020202020D7
:1038DA002D3E20546869732077696C6C207265707C
:1038EA006F727420746865206F6E636869702074E3
:1038FA00656D702E00676574206F6E6577697265F5
:10390A0074656D702020202020202020202D3E204C
:10391A00546869732077696C6C207265706F727471
:10392A0020746865206F6E65776972652074656DAD
:10393A00702E00636C656172206572726F7220204E
:10394A00202020202020202020202D3E20496620D3
:10395A00616E206572726F722069732073686F7767
:10396A006E20746869732077696C6C20636C65617A
:10397A00722069740068656C702020202020202045
:10398A002020202020202020202020202D3E2054CE
:10399A006869732077696C6C2073686F7720746824
:1039AA0069732068656C70002D2D2D2D2D2D2D2D00
:1039BA002D2D2D2D2D2D2D2D2D2D2D2D2D2D2D2D2D
:1039CA002D2D2D2D2D2D2D2D2D2D2D2D2D2D2D2D1D
:1039DA002D2D2D2D2D2D2D2D2D2D2D2D2D2D2D2D0D
:1039EA002D2D2D2D2D2D2D2D2D2D2D005365747042
:1039FA006F696E743A000A0D4F4B0A0D004B6579D8
:103A0A00776F7264206E6F7420737570706F727442
:103A1A006564000A0D4552520A0D004E6F742073F8
:103A2A007570706F72746564004F6E4368697020B8
:103A3A0054656D706572617475723A00312D5769FB
:103A4A0072652054656D706572617475723A0045CD
:103A5A0072726F723A0049726F6E747970653A00C9
:103A6A0057656C6C65722052540048414B4B4B4F62
:103A7A0020465838383031004A42432054323435CF
:103A8A004100554E4B4E4F574E004F4B000D0A3ECC
:103A9A0000524F4D203D00435243206973206E6F00
:103AAA00742076616C696421002020436869702063
:103ABA003D20445331385332300020204368697026
:103ACA00203D204453313842323000202043686977
:103ADA0070203D20445331383232004465766963A0
:103AEA0065206973206E6F742061204453313878E1
:103AFA0032302066616D696C792064657669636528
:103B0A002E0052656164204F6E6577697265205395
:103B1A00656E736F72004F6E655769726520435206
:103B2A0043204572726F72004E6F2053656E736F39
:103B3A007220666F756E6400434F4E460030204314
:103B4A0031003020433200302043330030204338E4
:013B5A00006A
:103B5B00FF0000000000000000000000000000005B
:103B6B00000000000000000000000000000000004A
:043B7B00320009000B
:00000001FF
