:100000000C9492000C94BA000C94BA000C94BA00B0
:100010000C94BA000C94BA000C94BA000C94BA0078
:100020000C94BA000C94BA000C94BA000C94BA0068
:100030000C94BA000C94BA000C94BA000C94BA0058
:100040000C94BA000C94890E0C94630E0C94BA00B4
:100050000C94BA000C94BA000C94BA000C94BA0038
:100060000C94BA000C94B70E0C94BA000C94BA001D
:100070000C94BA000C94BA000C94BA000C94BA0018
:100080000C94BA000C94BA000C94BA000C94BA0008
:100090000C94DF0E0C94BA000C94BA000C94BA00C5
:1000A000005EBCE2613FDD83C29C7E20A3FD1F4158
:1000B000009D23BE46DB65F88C11AF32CA57E97448
:1000C00057525400484B4F004A4243004F464600A7
:1000D0004F4E0069726F6E74797065006572726F51
:1000E00072006F6E657769726574656D70006F6E12
:1000F0006368697074656D700074656D70657261B8
:100100007475726500736574706F696E7400636CEA
:100110006561720068656C70006765740073657472
:100120000000380F11241FBECFEFCDBFDFE3DEBFCD
:1001300018E2A0E0B8E2E3E2FBE302C005900D9212
:10014000A432B107D9F729E2A4E2B8E201C01D92B6
:10015000A437B207E1F710E0C2E9D0E004C021976C
:10016000FE010E944C1AC139D107C9F70E94A70F9E
:100170000C948F1A0C940000E09102067091030613
:1001800060910506509106064091A0003091A100B3
:1001900080E18093A00082E08093A10084E48093BA
:1001A00002068091030680648093030688E18093B1
:1001B00005068EE18093060681E080930806809113
:1001C0000B0680FFFCCF8FB7F8949091100620911A
:1001D00011068FBFE0930206709303066093050635
:1001E000509306064093A0003093A1008091211106
:1001F000A0912011322F292F281B310987FD33951B
:10020000B0E00E94521ADC01CB0180589F4FAF4FE3
:10021000BF4F892F9A2FAB2FBB270895E7E4F9E250
:10022000138615861486128611861086178216820A
:10023000158214821382089590914729A09148292C
:10024000B0914929292F2095FD013497189780FFF7
:1002500014C0F8948081822380838C91892B8C93A5
:10026000A3E2B0E01197F1F78081982B9083789406
:1002700087ED90E00197F1F70895F894808182234B
:1002800080838C91892B8C93AFEFB0E01197F1F7BD
:100290008081982B908378948FE090E0EBCFFF9251
:1002A0000F931F93CF93DF93F82E062FC8E0D0E073
:1002B00011E081E09F2D912309F480E00E941C0150
:1002C000110F2197B1F7011118C0F894E091482956
:1002D000F091492938979081809147298095892309
:1002E0008083E0914829F091492934979081809149
:1002F00047298095892380837894DF91CF911F913E
:100300000F91FF9008950F931F93CF93DF938C016C
:1003100060E085E50E944F01E801085F1F4F60E043
:1003200089910E944F01C017D107C9F7DF91CF9182
:100330001F910F910895CF93DF9380914729A0914A
:100340004829B0914929F894FD0138979081282FC8
:1003500020959223908378943DE743E050E031501C
:1003600049F1EA012197F1F79C919823C1F3F894A0
:10037000ED0124979881922398839081982B908304
:100380007894CBE7D7E02197F1F7F8949081922306
:100390009083E3E1F1E03197F1F79C91982381E0BC
:1003A00009F080E07894E3E6F6E03197F1F7DF9129
:1003B000CF91089580E0FBCFCF93DF9380914729C1
:1003C000A0914829B0914929F894FD01389790816E
:1003D000982B9083ED0124972881382F3095232383
:1003E0002883C7E0D0E02197F1F790819323908391
:1003F000E3E2F0E03197F1F79C917894EFECF0E0D4
:100400003197F1F7982381E009F480E0DF91CF91F3
:10041000089508956115710539F4DC01ED91FC91A1
:100420000280F381E02D09946115B8E07B0710F09C
:100430006FEF77E06093380A7093390A089510924D
:10044000380A1092390A0895AF92BF92CF92DF9284
:10045000EF92FF920F931F93CF93DF936C017B0179
:100460008B01040F151FEB015E01AE18BF08C0170A
:10047000D10759F06991D601ED91FC910190F0817D
:10048000E02DC6010995892B79F7C501DF91CF9140
:100490001F910F91FF90EF90DF90CF90BF90AF90A2
:1004A0000895FC01508D418D252F30E0842F90E080
:1004B000821B930B541710F0CF960895019708955F
:1004C000FC0196898789981761F0A789AE0FBF2F25
:1004D000B11D5D968C9197899F5F9F73978B90E07C
:1004E00008958FEF9FEF0895FC01968987899817EB
:1004F00031F08789E80FF11D858D90E008958FEF29
:100500009FEF0895FC0196892789892F90E0805CF0
:100510009F4F821B91098F739927089582EA98E271
:100520000E94820221E0892B09F420E0822F0895A5
:10053000CF93DF93EC01E881F9810680F781E02D0C
:100540000995EC85FD8586818F738683EC85FD8515
:1005500085818F7585838F898E8B1D8ADF91CF91E1
:100560000895FC01613019F4648B81E00895148AC8
:100570006623D9F380E00895DC0154961C925497C9
:1005800054968C9154978230A0F4282F30E0F901D2
:10059000EE0FFF1FE20FF31FEA0FFB1F9785961365
:1005A00003C09685941749F08F5F54968C935497A7
:1005B000E7CF54961C9280E0089581E00895CF9390
:1005C000DF93FC01908D818DC485D585981306C07D
:1005D0008D818F7D8D83DF91CF910895A18DAE0F99
:1005E000BF2FB11DA35ABF4F2C91818D90E0019672
:1005F0008F739927818F80E48C83A485B5851296AB
:100600002C93908D818D9813E6CFA485B585159692
:100610008C9115978F7D15968C93838D8823D9F2B5
:10062000848D80931301138ED6CFDC011C96ED913F
:10063000FC910FB607FE03C0258125FD04C024816F
:1006400025FD0C94DF020895EF92FF920F931F9304
:10065000CF93DF93EC0181E08D8B988D898D98137A
:100660001CC0AC85BD8514968C91149785FF15C070
:1006700012966C93AC85BD8580E414968C93EC85C2
:10068000FD8585818F7D858381E090E0DF91CF912D
:100690001F910F91FF90EF9008958091110180FFBD
:1006A00008C0809113018C8F8A8D8093130181E0A3
:1006B0008B8FF62E088D10E00F5F1F4F0F731127E1
:1006C000E02E898D8E1104C0CE010E941503F9CF52
:1006D000E88DEC0FFD2FF11DE35AFF4FF082088FDC
:1006E000EC85FD8585818062CECFCF93DF93FC01C1
:1006F00025892223C9F0EC018091110180FF08C0F7
:1007000080911301848F828D8093130181E0838F08
:10071000EC85FD85858185FD03C0848186FD04C04F
:10072000CE010E941503F4CFDF91CF91089580E0B0
:1007300090E0892B29F00E948E0281110E94000016
:1007400080E090E0892B49F080E090E0892B29F04F
:100750000E94000081110E94000080E090E0892B3F
:1007600049F080E090E0892B29F00E94000081117F
:100770000E94000080E090E0892B49F080E090E04A
:10078000892B29F00E94000081110C94000008952B
:1007900081E00895CF93DF9390E0FC01EC5CF94891
:1007A00020812F3F69F0FC01E55FF948A08130E22C
:1007B000A39FD0011124BC5F613029F411962C93C2
:1007C000DF91CF910895855B9A48EC01E881EF3F76
:1007D00081F0CD014096E80FF92FF11D9FB7F894F5
:1007E00012962C938081623039F4886080839FBF99
:1007F000E7CFF0E0E0E0F2CF877FF8CF893210F466
:100800000C94CA03089590E0FC01EE5DFA48E08183
:10081000EE2319F1E13021F000F1E630A8F008955F
:10082000855B9A48FC012081233008F02F5F3091CE
:10083000010A81E090E001C0880F2A95EAF78095CF
:1008400083238093010A089580E1E89FF001112439
:10085000E05AF54F81818F7E818308950F931F9316
:10086000CF93DF93C82FD0E0FE01EC5CF948008104
:100870000F3FA1F0162F893210F40E940304FE01ED
:10088000E55FF948E08180E2E89FF0011124FC5F18
:100890008081802351F0111106C00683DF91CF9132
:1008A0001F910F9108950583F9CFC55BDA488881C0
:1008B000309771F08F3F61F07096E80FF11D9FB790
:1008C000F8948081111107C0877F80839FBFE6CF96
:1008D000F0E0E0E0F4CF8860F8CF893210F40C94B7
:1008E0002E040895CF93DF93CFE3D9E260E08E81A9
:1008F0000E946D0460E08F810E946D0461E08E8132
:100900000E946D0461E08F81DF91CF910C946D04A2
:10091000CF93DF93CFE3D9E261E08E810E946D0433
:1009200061E08F810E946D0460E08F810E946D0400
:1009300060E08E81DF91CF910C946D04AF92BF92F5
:10094000CF92DF92EF92FF920F931F93CF93DF939B
:10095000EC016A017B01A22E8D89882339F0E881A0
:10096000F9810688F789E02DCE0109950C8910E000
:10097000BFB6F89460E070E281EA97E0A7019601C3
:100980000E940B1A69017A018FEFC81AD80AE80A87
:10099000F80AF694E794D794C794EC85FD85868190
:1009A0008D7F8683EC85FD85868186831D8AA09157
:1009B00023110A2E000CBB0BA70196010E94731A8B
:1009C00020E034E040E050E00E942D1AEC85FD85E7
:1009D000C20ED31EE41EF51EC086D186EC85FD85B1
:1009E000A782EC85FD858681806C8683EC85FD85FC
:1009F0008581806885839091E2058B898095892324
:100A00009801220F331F020F131FC00FD11F9889A7
:100A1000892B8093E20562E08E850E94FE0361E0EF
:100A20008F850E946D0461E08F850E94FE03BFBE2A
:100A3000DF91CF911F910F91FF90EF90DF90CF90BA
:100A4000BF90AF9008950F931F93CF93082F10E09E
:100A5000F801EC5CF948C081CF3F89F0893210F48D
:100A60000E940304F801E55FF948E08180E2E89F15
:100A7000F0011124FC5F8085C82381E009F480E047
:100A8000CF911F910F9108950F931F93CF93DF93F1
:100A9000D82FC8E060E0809145290E946D040D2F99
:100AA0000D2E000C110B61E0D0FF60E08091462913
:100AB0000E946D0415950795D02F61E0809145291E
:100AC0000E946D04C15031F760E0809145290E9479
:100AD0006D0461E0809146290E946D0461E080917F
:100AE00045290E946D0460E0809146290E94FE0322
:100AF00083EC90E00197F1F7809146298932F0F07C
:100B000061E0809146290E94FE0360E080914629C1
:100B10000E946D0410E0C3ECD0E0CE010197F1F724
:100B200061E0809146290E94FE032197F1F7812F11
:100B300090E0DF91CF911F910F9108950E942305BE
:100B4000182F8111E8CFDCCFCF93DF93D82FE62F7A
:100B50006F37D9F1603140F50E2E000CFF0BE352D8
:100B6000FA48808190914229C0E09111C0E8C80FF5
:100B70000E94880484E40E9444050E9472040E943A
:100B800088048D2F806C0E9444058C2F0E944405A0
:100B90000E9472040E948804809141290E944405A9
:100BA000DF91CF910C94720480ED860F8A3030F47F
:100BB0000E2E000CFF0BE355FA48D3CFE052EB3575
:100BC00020F4F0E0EE57FA48CCCF80E0CBCF8FB7DF
:100BD000F89420919E2830919F284091A028509110
:100BE000A128E091AA0AF091AB0A9091A60A90FF81
:100BF00008C02F5F3F4F4F4F5F4FE091AA0AF0911F
:100C0000AB0A8FBFA8EEB3E00E94681A24E0F69505
:100C1000E7952A95E1F76E0F7F1F811D911D0895BD
:100C20008F929F92AF92BF92CF92DF92EF92FF92FC
:100C30004B015C010E94E7056B017C01A8EEB3E06B
:100C4000A50194010E94681AC60ED71EE81EF91E5F
:100C5000C616D706E806F90618F40E94E705F8CF8D
:100C60000E94E7056C157D058E059F05C8F3FF9072
:100C7000EF90DF90CF90BF90AF909F908F900895AE
:100C8000DC0180E0615090F09D919827E92FEF7092
:100C9000F0E0E056FF4F2491E92FE295EF70F0E08D
:100CA000E055FF4FE491822F8E27ECCF08958F926D
:100CB0009F92AF92BF92CF92DF92EF92FF920F93EB
:100CC0001F93CF93DF93CDB7DEB72C97CDBFDEBF99
:100CD00080916429882309F48EC08091702988232B
:100CE00009F489C08091602990916129A0916229BD
:100CF000B0916329805F984DAF4FBF4F2FB7F894E5
:100D000040919E2850919F286091A0287091A12821
:100D10002FBF84179507A607B70708F06CC00E947D
:100D20009B0187E699E20E94830160E08EEB0E94BE
:100D30004F018E010F5F1F4F4E018AE0880E911CFC
:100D4000580198E0C92ED12CF12CEE24E3940E9496
:100D5000DC018111FE28EE0CE1E0CE1AD108B9F7D2
:100D6000F801F1928F018E169F0659F7198568E0F8
:100D7000C5010E944006181789F080E02C96CDBF6F
:100D8000DEBFDF91CF911F910F91FF90EF90DF9029
:100D9000CF90BF90AF909F908F90089569817A8196
:100DA00080916F29882309F468C083E0660F771F5C
:100DB0008A95E1F78885803141F42F818CE090E0BD
:100DC000821B9109607F680F791F072E000C880B2A
:100DD000990B0E94F21820E030E040E85DE30E94A9
:100DE00056190E94BA186F5E7E4F60936529709302
:100DF0006629109264298091602990916129A091BF
:100E00006229B0916329805E914BAF4FBF4F2FB7DE
:100E1000F89440919E2850919F286091A02870914D
:100E2000A1282FBF84179507A607B70708F0A5CFFD
:100E30000E940E012FB7F89480919E2890919F28D0
:100E4000A091A028B091A1282FBF809360299093F2
:100E50006129A0936229B09363290E949B0187E6D0
:100E600099E20E94830161E084E40E944F010E94A4
:100E70000E0181E08093642981CF8D81807611F409
:100E8000687FA3CF803211F46C7F9FCF803409F04C
:100E90009CCF6E7F9ACFCF93DF930E9457068091AD
:100EA0007029D0916529C0916629811104C00E94E2
:100EB000BC00D82FC92F80915E2990915F29813085
:100EC000910509F468C0029709F0D7C088E030E0C6
:100ED00020E091E0109206069093080640910B06E0
:100EE00040FFFCCF4091100650911106240F351F92
:100EF000815081F783E0369527958A95E1F7A8E838
:100F0000B3E10E94521A2FEF33E040E050E00E941C
:100F10002D1A213D67E0360708F0B2C0B9016E50C6
:100F20007640623C714008F04BC02E50364041097B
:100F30005109AAEAB0E00E94681A22EC31E040E0D0
:100F400050E00E942D1A24533E4F4F4F5F4F8D2F7C
:100F50009C2F893E910510F489EE90E0803941E0A4
:100F6000940710F08FE891E08B529140821793071D
:100F700009F489C0273E63E0360710F4281B390BBB
:100F800020935C2930935D2980915C2990915D29A3
:100F9000DF91CF91089588E030E020E091E09093D8
:100FA00006069093080640910B0640FFFCCF409147
:100FB000100650911106240F351F815081F79ACFEA
:100FC000B901655773406E39724098F42557334024
:100FD00041095109AAEAB0E00E94681A23EA32E006
:100FE00040E050E00E942D1A2E5D3E4F4F4F5F4F64
:100FF000AECFB9016D5C7109683A724098F42D5C0E
:10100000310941095109ADEBB0E00E94681A28EAA4
:1010100032E040E050E00E942D1A2C593F4F4F4FD4
:101020005F4F95CFB9016A5371096339710598F41F
:101030002A53310941095109A1E3B0E00E94681A1D
:1010400023E930E040E050E00E942D1A2E5C3F4F33
:101050004F4F5F4F7CCF2A33310590F4A8E1B0E0C9
:101060000E94681A2AE330E040E050E00E942D1A06
:10107000275E3F4F4F4F5F4F6ACF27EE33E067CF7A
:1010800027EE33E07DCF10925C2910925D297CCF52
:10109000AF92BF92CF92DF92EF92FF920F931F9386
:1010A000CF936B01790120913D2830913E282E1578
:1010B0003F0591F0E0923D28F0923E2820ED37E088
:1010C000FC012283338320E420933F2920EC2093EA
:1010D00040292FE820934129FC0182819381892BAB
:1010E00049F480E480933F2980EC809340298AE88A
:1010F000809341298601C3E08AE0A82EB12C6FE7D6
:101100000115110529F0C801B5010E94F719682FD2
:101110008C2F0E94A405C801B5010E94F7198B010C
:10112000C15068F7CE14DF0498F481E0809342291F
:1011300060E280E00E94A40510924229CF911F91A5
:101140000F91FF90EF90DF90CF90BF90AF900895F8
:1011500010924229EDCF8091362890913728892B23
:1011600029F01092362810923728F5CF10928C284B
:101170000895CF92DF92EF92FF9220912A2830912A
:101180002B2880913A2890913B288217930778F476
:1011900080913A2890913B280197821B930BC2972C
:1011A00058F40000FF90EF90DF90CF900895809169
:1011B0003A2890913B28F1CF80913A2890913B2892
:1011C00080932A2890932B28F89481E080932928F3
:1011D00078941092380A1092390A6AE070E080E040
:1011E00090E00E9410060E944B0720912028309129
:1011F00021288217930708F070C0A0912028B09191
:101200002128A81BB90BA330B1050CF051C0809167
:10121000882890918928A0918A28B0918B280596DA
:10122000A11DB11D8093882890938928A0938A28B6
:10123000B0938B288091882890918928A0918A2842
:10124000B0918B2881309840A105B10564F080E011
:1012500098E0A0E0B0E08093882890938928A0933C
:101260008A28B0938B28C0908828D0908928E09055
:101270008A28F0908B28A4E6B0E0A70196010E948E
:10128000681A20E038E040E050E00E942D1A2093D8
:101290009628B60121E0C21628E0D20610F060E0E0
:1012A00078E08AE599E20E940A02109229287ACF12
:1012B00020912028309121280E94611A26E030E0F8
:1012C00040E050E00E942D1A20938828309389280E
:1012D00040938A2850938B28ADCF209120283091BD
:1012E00021282817390708F0BECF209120283091F7
:1012F0002128821B930B0397DCF010928828109210
:10130000892810928A2810928B28809188289091A1
:101310008928A0918A28B0918B28B7FFA4CF10927A
:1013200088281092892810928A2810928B289BCFA7
:10133000C0908828D0908928E0908A28F0908B2847
:101340001C141D041E041F0404F787E0C816D104F2
:10135000E104F104B4F1C701B60129EF3FEF4FEF0B
:101360005FEF0E942D1AC20ED31EE41EF51EC0921E
:101370008828D0928928E0928A28F0928B28C70189
:10138000B60127E030E040E050E00E942D1A6430C2
:101390007105810591050CF4B8CF1C141D041E04C1
:1013A0001F040CF0B2CF21E0C21AD108E108F10805
:1013B000C0928828D0928928E0928A28F0928B28BF
:1013C000A4CF81E0C81AD108E108F108F1CFF89460
:1013D00081E0809329281092882810928928109201
:1013E0008A2810928B281092292878940895809149
:1013F0002228909123288530910511F0079729F430
:101400008091862890918728089580912028909136
:1014100021280895DC01ED91FC910488F589E02DE7
:1014200023E030E009948091380A9091390A0895B8
:10143000FC0180819181FC01FF2790FD06C080E0C6
:1014400094E1E82BF92B8081089580E093E1F9CFB6
:101450001F93CF93DF93EC01162F0E94180A811778
:10146000B9F088819981FC01FF2790FD16C080E0CA
:1014700094E1E82BF92B10838FB7F8949DE923E0D2
:1014800094BF209300108FBF8091021081FDFCCF8C
:10149000CE01DF91CF911F91089580E093E1E9CFD4
:1014A000CF92DF92EF92FF921F93CF93DF9300D002
:1014B000CDB7DEB787E0C82ED12CC982DA82CE0143
:1014C00001960E94180A182F98E0E92EF12CE98263
:1014D000FA82CE0101960E94180A8095811779F050
:1014E000C982DA8263E0CE0101960E94280AE9826D
:1014F000FA826CEFCE0101960E94280A13E0812F38
:1015000090E00F900F90DF91CF911F91FF90EF909F
:10151000DF90CF9008950F931F93CF93DF9300D068
:10152000CDB7DEB78C018130910511F0029711F52E
:1015300000935E2910935F2961E08EE10E942E04E2
:1015400087E090E089839A83602FCE0101960E9404
:10155000280A88E090E089839A83602F6095CE0105
:1015600001960E94280A0F900F90DF91CF911F9152
:101570000F91089582E090E080935E2990935F2917
:1015800060E0DBCF20919B28211180C08430910541
:1015900009F445C098F48230910529F1039799F137
:1015A0008091202890912128C29708F065C082E39D
:1015B00090E080932028909321280895863091050B
:1015C00009F44AC0D8F1079759F7809120289091E3
:1015D00021288D3B914008F04CC0809120289091AB
:1015E000212805960BC08091202890912128C3972F
:1015F000B8F280912028909121280197809320288B
:1016000090932128CDCF8091202890912128C597B3
:1016100090F080912028909121280297EFCF80911F
:10162000202890912128C89730F08091202890910F
:1016300021280597E3CF82E390E0E0CF8091202836
:1016400090912128823C914008F0AACF80912028D7
:10165000909121280196D2CF809120289091212825
:10166000803C914030F4809120289091212802966E
:10167000C5CF82EC91E0C2CF8091202890912128A3
:10168000833C914000F182EC91E093CF20919A2825
:101690002130C9F482309105B9F085309105F9F017
:1016A000019789F480918D2890918E2880319742FE
:1016B00050F08BE090E080932228909323281092A2
:1016C0009A2810929B2808950E94500A81508823DE
:1016D00051F0843008F083E090E00C948B0A0E9473
:1016E000500A8F5FF4CF81E0F7CFCF93DF938091E3
:1016F0003C28833008F469C110923C2880913A2834
:1017000090913B28019680933A2890933B288091B2
:101710009C2890919D28892B49F080919C2890913C
:101720009D28019780939C2890939D28809138282C
:1017300090913928893E23E0920708F43AC110922B
:1017400038281092392880919728909198280196EE
:10175000809397289093982880915C2990915D2997
:1017600080939428909395288091362890913728DB
:101770008835924011F581E080938C284091202893
:101780005091212820915C2930915D2980919628E3
:10179000E0912228F0912328E930F10508F007C1F3
:1017A000EC52F44F0C944C1AF00BBD0CCB0CBD0C4E
:1017B000C40CF00BF00B400C400C8091362890913B
:1017C00037288935924010F00000D8CF8091362814
:1017D0009091372801968093362890933728CECF62
:1017E000882309F44AC0C901B0E0A0E070E060E0DD
:1017F000481B590B6A0B7B0B46305105610571057F
:10180000E4F140912F2850913028841B950BA109B9
:10181000B10983309105A105B10550F580912E28BD
:101820008F5F80932E2880912E28873070F081E082
:101830008093852810922E2881E090E080932228C2
:10184000909323288AE080932D28293582E0380759
:1018500060F083E08093852881E090E080932228E7
:10186000909323288AE080932D2810922C2818C06A
:10187000873F9F4FAF4FBF4F8CF210922E28D3CF90
:10188000293542E0340760F083E08093852881E0C9
:1018900090E080932228909323288AE080932D283B
:1018A00020932F2830933028809134289091352828
:1018B0008A30910508F483C010923428109235289C
:1018C00084E00E942305811184C080918D2890912D
:1018D0008E28892B21F490E080E00E94C20A80913A
:1018E0008D2890918E28019649F080918D289091B5
:1018F0008E28019680938D2890938E28C09133284E
:10190000CC0FCF70C093332886E00E942305882334
:1019100019F0C160C0933328809133288330F1F4EB
:10192000C0913128D091322885E00E942305811191
:1019300060C0CA30D10570F084E090E0C233D105B8
:1019400038F083E090E0CA3FD10510F082E090E0EB
:101950000E94C20A109231281092322880913128B8
:10196000909132288F3F980729F001968093312873
:1019700090933228DF91CF91089580912D2888236C
:1019800009F48ECF81508ACF80912D28882341F091
:10199000815080932D28109222281092232865CF01
:1019A00010922E281092222810922328F4CF0000A3
:1019B00077CF0196809338289093392875CF019678
:1019C00080933428909335287BCF8F5F80933C2879
:1019D00077CF80918D2890918E28893C910520F0B9
:1019E00081E090E00E94C20A10928D2810928E2809
:1019F00085CFCA30D10508F4ADCF87E090E0C2337F
:101A0000D10508F4A5CF86E090E0CA3FD10508F4DF
:101A10009FCF85E090E09CCFE0E0F6E082818F7C74
:101A2000806582830895EF92FF920F931F93CF9367
:101A3000DF937C0110E000E0E70109900020E9F766
:101A40002197CE19DF0980914329909144290C17E1
:101A50001D0758F508171907F4F064EF71E080E0EE
:101A600090E00E941006D0E0C0E09E0180914329E2
:101A700090914429219628173907A4F4F801EC0F16
:101A8000FD1FE81BF90BEE0DFF1D60818C2F8150AF
:101A90000E94A405EACFF701E00FF11F6081802FBB
:101AA0000E94A4050F5F1F4FC7CF809143299091DB
:101AB0004429C817D90734F46FE78C2F0E94A40576
:101AC0002196F3CFDF91CF911F910F91FF90EF906F
:101AD000089589EB99E70C94130D0E94E709609132
:101AE00097287091982885E599E20E94690D0C94D9
:101AF0004B07CF93DF93CDB7DEB72597CDBFDEBFC2
:101B0000862F95E0E9E7F6E7DE01119601900D9248
:101B10009A95E1F720E3260F6A3058F42C83CE0122
:101B200001960E94130D2596CDBFDEBFDF91CF91A8
:101B300008956AE00E94EB1990E3980F9B8396EF5B
:101B4000899F200D1124EACF8EE796E70C94130DA0
:101B500083E896E70C94130DFC0101900020E9F74F
:101B60003197AF01481B590BBC0182EA98E20C94F3
:101B700024028F929F92AF92BF920F931F93CF93A5
:101B8000DF93CDB7DEB7A197CDBFDEBF19A242303C
:101B900008F44AE08E010F5D1F4F842E912CB12C6A
:101BA000A12CA50194010E940B1AE62FB901CA01CC
:101BB000EA30DCF4E05DD801EE938D01232B242B79
:101BC000252B79F790E080E0109719F0CD010E9465
:101BD000AC0DA196CDBFDEBFDF91CF911F910F91CC
:101BE000BF90AF909F908F900895E95CE4CFCF9223
:101BF000DF92EF92FF92CF93DF936C01990FEE0883
:101C0000FF08F7FE19C06DE282EA98E20E94240301
:101C1000EC0166277727CB016C197D098E099F0996
:101C20004AE00E94B90D8C0F9D1FDF91CF91FF906C
:101C3000EF90DF90CF9008954AE0C701B601DF91A1
:101C4000CF91FF90EF90DF90CF900C94B90DCF9390
:101C5000DF930E94AC0DEC0188E896E70E94AC0D82
:101C60008C0F9D1FDF91CF9108950C94AC0D0F93B5
:101C70001F93CF93DF93C82FD62F8BE896E70E9450
:101C8000350E0C2F10E00D5B174DCD17A0F4F801A9
:101C900061918F0180EA96E76A3021F06D3031F46E
:101CA0008BEA96E70E94350ECF5FEFCF82EA98E28B
:101CB0000E942403F9CF8EE996E7DF91CF911F911F
:101CC0000F910C94270E1F920F920FB60F921124B2
:101CD0002F933F934F935F936F937F938F939F9334
:101CE000AF93BF93EF93FF9382EA98E20E94DF02E3
:101CF000FF91EF91BF91AF919F918F917F916F91E4
:101D00005F914F913F912F910F900FBE0F901F90B9
:101D100018951F920F920FB60F9211242F938F9345
:101D20009F93EF93FF93E091AE28F091AF288181CC
:101D300081FD1BC090818091B8288F5F8F732091A7
:101D4000B928821741F0E091B828F0E0EE55F74D40
:101D5000958F8093B828FF91EF919F918F912F914C
:101D60000F900FBE0F901F9018958081F4CF1F9297
:101D70000F920FB60F9211248F939F93AF93BF933F
:101D800080919E2890919F28A091A028B091A12891
:101D90000196A11DB11D80939E2890939F28A0932A
:101DA000A028B093A12881E08093A60ABF91AF91AB
:101DB0009F918F910F900FBE0F901F9018951F92BB
:101DC0000F920FB60F9211242F933F934F935F936F
:101DD0006F937F938F939F93AF93BF93EF93FF93F3
:101DE0008091252890912628A0912728B091282815
:101DF0000196A11DB11D8093252890932628A093BC
:101E00002728B093282881E08093B60AE0914128E2
:101E1000F0914228309709F0099580912428833069
:101E2000A0F48F5F80932428FF91EF91BF91AF9131
:101E30009F918F917F916F915F914F913F912F91E2
:101E40000F900FBE0F901F90189510922428E091CC
:101E50003F28F0914028309739F382819381009791
:101E600019F001978283938384818F5F8483DCCF11
:101E70001F93CF93DF93E2EAF8E21282138288EE97
:101E800093E0A0E0B0E084839583A683B78381EFDD
:101E900095E78083918380E098E08487958781E04F
:101EA00086871786108A95E0918B94E0928B838BBE
:101EB000148A158A168A178A108E118E82E1828FF3
:101EC000138E148ECFE3D9E284E090E08C839D835F
:101ED00083E08E8312E01F8361E00E94CA0361E009
:101EE0008F810E94FE0360E08FE00E94CA03E7E456
:101EF000F9E2108388E494E0818392830E940E01CA
:101F0000C5E5D9E28BE696E7888399831A821B821E
:101F10001C8281E696E78D839E8387EE93E08F8314
:101F2000988782E090E089879A871B861C861D86A9
:101F30001E861F868FEF9FEF888B998B1B8E0E94CA
:101F40000C0D1D8E1E8EDF91CF911F910895CF93A2
:101F5000DF93CDB7DEB76A97CDBFDEBF88ED90E0E7
:101F600084BF909361008091020686608093020690
:101F7000809100068160809300060E940C0D1092F3
:101F8000E20582E08093E40581E08093030A8EEF0E
:101F90008093270A8093260A80E880932D0A8093F5
:101FA0002B0A8093290A80932C0A80932A0A809313
:101FB000280A8BE08093000A87E08093E505E0E83B
:101FC000FAE037E02EEF90E885E0318324879587AB
:101FD00080837096E03C4AE0F407B9F71092A10ABA
:101FE0008FE79EE38093AC0A9093AD0A8091A50A97
:101FF00081608093A50A1092A00A8091A00A816056
:102000008093A00A789482E090E089839A83CE013D
:1020100001960E94180A082F10E0102F002783E075
:1020200090E089839A83CE0101960E94180A082BBA
:102030009801225331092139314010F002E310E0B8
:10204000009320281093212860E08FE00E94CA03AB
:1020500061E08FE00E942E0460E080E10E94CA03EC
:1020600061E080E10E942E0460E081E10E94CA03E9
:1020700061E081E10E942E0460E082E10E94CA03D7
:1020800061E082E10E942E0460E083E10E94CA03C5
:1020900061E083E10E942E0460E089E10E94CA03AE
:1020A00061E089E10E942E0460E08AE10E94CA0397
:1020B00061E08AE10E942E0460E08BE10E94CA0385
:1020C00061E08BE10E942E0460E08CE10E94CA0373
:1020D00061E08CE10E942E0460E08DE10E94CA0361
:1020E00061E08DE10E942E0460E087E20E94CA0355
:1020F00061E087E20E942E0460E084E20E94CA034D
:1021000061E084E20E942E0460E085E20E94CA033E
:1021100061E085E20E942E0460E08FE10E94CA0324
:1021200061E08FE10E942E0460E080E20E94CA0319
:1021300061E080E20E942E0460E081E20E94CA0316
:1021400061E081E20E942E0460E082E20E94CA0304
:1021500061E082E20E942E0460E083E20E94CA03F2
:1021600061E083E20E942E0460E080E00E94CA03E6
:1021700061E080E00E942E0460E081E00E94CA03DA
:1021800061E081E00E942E0461E08EE00E94CA03BB
:1021900060E08EE00E942E0461E08EE10E94CA039E
:1021A00060E08EE10E942E0460E088E10E94CA0394
:1021B00060E088E10E942E0460E086E10E94CA038C
:1021C00060E086E10E942E0460E087E10E94CA037D
:1021D00060E087E10E942E0460E082E00E94CA0372
:1021E00060E082E00E942E0460E083E00E94CA0367
:1021F00060E082E00E942E0460E084E00E94CA0356
:1022000061E084E00E942E0460E085E00E94CA0341
:1022100061E085E00E942E0460E086E00E94CA032F
:1022200061E086E00E942E0460E087E00E94CA031D
:1022300061E087E00E942E0461E083E00E94CA030F
:1022400061E082E00E94CA036FE780E00E94A4057B
:102250006FE781E00E94A4056FE782E00E94A40579
:102260006FE783E00E94A40580E480933F2980EC1F
:10227000809340298AE88093412910E000E098EBA0
:10228000E92E92E2F92E2AE0C22ED12C2091432988
:102290003091442902171307C4F4201B310B21503D
:1022A00031096FE7E114F10429F0C701B6010E947A
:1022B000F719682F822F0E94A405C701B6010E945A
:1022C000F7197B010F5F1F4FE1CF109242290E9447
:1022D000500A0E948B0AF8941092B10A8FE99FE08D
:1022E0008093BC0A9093BD0A8091B50A8160809367
:1022F000B50A1092B00A8091B00A81608093B00A4A
:1023000085E79BE0809341289093422885E599E2F8
:1023100080933F289093402891E09093410410923D
:10232000000A82E08093E4051092030A1092010AE9
:102330008091090A8E7F8093090A83E18093010AC4
:1023400020E038E02093360A3093370A1092380A9A
:102350001092390A9093000A789440E052EC61E0C0
:1023600070E082EA98E20E940A0A10929B280E947A
:10237000AB081092380A1092390A89E090E08093F5
:1023800022289093232804E0202E312C80ED482E23
:1023900087E0582EBE01665F7F4F6E8B7F8B8091EA
:1023A0008428811113C084EB96E70E94270E84EDE8
:1023B00096E70E94270E8BE799E70E94270E81E699
:1023C0009AE70E94350E81E08093842810E4612E04
:1023D00082EA98E20E94820218161906ECF582EA57
:1023E00098E20E946002182F8D3009F053C080914E
:1023F0008328803408F057C0E82FF0E0ED5BF74DFC
:1024000010838F5F809383281D3011F01A3001F7FD
:102410008CEC99E70E94350E809183288823C1F2C5
:102420001D821E821F821886E3E4F8E2D12C8134DB
:1024300008F43FC084EF96E70E94270EE3E4F8E239
:10244000119278E2E338F707D9F71092832810E069
:1024500000E0F12CE12C4AC10E945706E0912228AD
:10246000F0912328E031F10508F0A6C4E65CFD4EAA
:102470000C944C1A2217D717E217E517FA17111800
:1024800046187F188C184A15A816B916CC16DF16F0
:10249000FB1604178A3009F4AACF682F82EA98E263
:1024A0000E942403A4CF60928328AECFDA2C8A1531
:1024B000E9F18F01035418429191AA24A394AD0C21
:1024C000903221F09A3011F09D3081F7ED2CF12CF3
:1024D000A7016DE171E083E498E20E94AC18892BBA
:1024E00009F4DDC0A70169E171E083E498E20E948C
:1024F000AC18892B09F4D7C0A70164E171E083E42B
:1025000098E20E94AC18892B09F4D1C0A7016EE0B3
:1025100071E083E498E20E94AC18E3E0EE2EF12C27
:10252000892B31F06D2D80E00E94370EF12CE12CCB
:1025300090918328A91608F096C1F801ED5BF74D3C
:1025400080818A3009F48FC18D3009F48CC10A2D45
:1025500010E0F801ED5BF74D9A2C9F0123543842AF
:10256000298F3A8F819131E0390D388F803229F0EF
:102570008A3019F08D3009F09EC0C92CCA18D12CB0
:102580000D5B174DA60165E071E0C8010E94AC1813
:10259000892B09F494C0A60169EF70E0C8010E947C
:1025A000AC18892B09F48EC0A6016EEE70E0C8014C
:1025B0000E94AC18892B09F488C0A60162EE70E075
:1025C000C8010E94AC18892B09F482C0A6016CEDE9
:1025D00070E0C8010E94AC18892B09F47CC0A601E8
:1025E00063ED70E0C8010E94AC1806E010E0892B92
:1025F00031F0692D8A2D0E94370E10E000E06091C5
:102600008328488D461708F071C0E98DFA8DED5B7F
:10261000F74D80818A3009F469C08D3009F466C0B5
:10262000F801EE0FFF1FEC58FA4880819181892B49
:1026300029F4842F0E94370E10E000E0F801EE0F1D
:10264000FF1FEC58FA4820813181C9010797029792
:1026500008F488C0788C812C912C540180918328B7
:10266000781608F003C1E72DF0E0ED5BF74DE0814F
:1026700080ED8E0F8A3090F5AAE0B0E0A5019401BC
:102680000E94681A4E2F4053550B4A01550FAA0855
:10269000BB08860E971EA81EB91E7394DFCFB2E04A
:1026A000EB2EF12C45CFEE24E394F12C41CFF4E056
:1026B000EF2EF12C3DCF988C99114FCF9ECF01E09A
:1026C00010E09DCF02E010E09ACF03E010E097CF3A
:1026D00004E010E094CF05E010E091CFEA3011F073
:1026E000ED3059F58D829E82AF82B886E982FA82FA
:1026F0000B831C83798689E0FE013196DE011D96ED
:1027000001900D928A95E1F7F2E0EF16F10409F4D9
:10271000EEC008F0ADC0EA94EF2809F441C1E3E44B
:10272000F8E2119288E2E338F807D9F7109283288B
:102730008FE59AE70E94350E4BCEEF51E03608F454
:10274000ACCF1D821E821F8218868BE896E70E94FE
:10275000350E672D888D0E94370E10E000E0F12CB9
:10276000E12C9BCF40918328588D852F90E0BC01B0
:102770006D5B774D6B016D837E834B01FB01782E82
:10278000788D771A841708F060C091919A3019F00B
:102790009D3009F058C02730310509F4A7CFA72C88
:1027A000B12CA50160ED70E0C6010E94AC18892B28
:1027B00029F481E090E08D839E8398CFA5016CEC95
:1027C00070E0C6010E94AC18892B19F482E090E0F9
:1027D000F2CFA50168EC70E0C6010E94AC18892B0D
:1027E00019F483E090E0E7CFA50164EC70E0C60146
:1027F0000E94AC18892B19F42D823E8277CFA50157
:1028000060EC70E0C6010E94AC18892B19F485E0D9
:1028100090E0D1CF84E097E70E94350ED12CD714F9
:1028200049F0F40161914F0182EA98E20E94240389
:10283000D394F5CF86E097E70E94270E1D821E8273
:102840001F82188653CF8F5F9ACF1D821E821F82F0
:1028500018868CE896E70E94350E60918328888D53
:102860000E94370EF4CD10E000E040CF712C3ECF37
:1028700043E0E416F10409F401C154E0E516F10463
:1028800009F04DCF82E297E70E94270E8BE799E788
:102890000E94270E85E397E70E94270E81E797E7BE
:1028A0000E94270E8DEA97E70E94270E86EE97E793
:1028B0000E94270E8BE198E70E94270E8EE498E78E
:1028C0000E94270E8BE898E70E94270E87EC98E776
:1028D0000E94270E85E099E70E94270E87E499E77A
:1028E0000E94270E8AE799E70E94270E18CF013031
:1028F000110531F00630110599F18DEE99E7F4CF0D
:1029000089899A89AB89BC89009761E0A607B105DE
:1029100008F005CF9C01225331092139314070F470
:1029200020912228309123282530310519F02730B5
:10293000310589F480938628909387288EEB99E758
:102940000E94350E0E94F709BC0190E080E04AE049
:102950000E94B90D16C08093202890932128EECFB5
:1029600089899A898430910541F08530910561F01B
:10297000039769F482E090E002C081E090E00E9459
:102980008B0A88EC99E709C083E090E0F8CF8FECE0
:1029900099E70E94270E85EE99E70E94350EBFCE7B
:1029A0000330110561F180F40130110539F2023074
:1029B000110509F0A2CF85E19AE70E94350E6091DA
:1029C000942870919528C1CF0530110561F110F15F
:1029D0000630110509F091CF88E29AE70E94350E82
:1029E0000E94500A8230910509F442C0833091055B
:1029F000D1F1019709F03FC08CE39AE736C08BEF25
:102A000099E70E94350E0E94BC00815191400E94BE
:102A1000F70DB7CF8EE09AE70E94350E80916529B9
:102A200090916629F2CF81E29AE70E94350E80915B
:102A300022289091232860E48230910549F0833068
:102A4000910519F060E0019719F4609185286058AC
:102A500070E090E080E04AE00E94B90D88EC99E7D0
:102A60000E94350EB9CF82E39AE70E94350E89CFD6
:102A70008AE49AE7FACF84E59AE7F7CF05301105A3
:102A800009F03BCF809199288F5F809399288CE53E
:102A90009AE72ACF85E599E20E94A80D80917029D6
:102AA000811110C0DD24D39480915429811104C078
:102AB0000E949B01811189C01092522910925429C1
:102AC0001092532980917029882309F4D0C084ED95
:102AD0009AE70E94270E0E949B0187E699E20E94D6
:102AE000830161E084E40E944F010E940E0168EEC0
:102AF00073E080E090E00E9410060E949B0187E650
:102B000099E20E94830160E08EEB0E944F018E01EA
:102B10000F5F1F4F48E0E42EF12CD12CCC24C3943E
:102B20000E94DC018111DC28CC0C21E0E21AF108C2
:102B3000B9F7F801D1928F012E893F892E173F07EF
:102B400049F7198568E0CE0101960E9440061817E2
:102B500021F088EE9AE70E94270E69817A818091A0
:102B60006F29882309F4DFC033E0660F771F3A9599
:102B7000E1F78885803141F42F818CE090E0821B61
:102B80009109607F680F791F072E000C880B990B45
:102B90000E94F21820E030E040E85DE30E94561900
:102BA0000E94BA186F5E7E4F609365297093662904
:102BB00080919C2890919D28803D974009F4C1C048
:102BC00040929C2850929D28F3CF60E080EF0E94B5
:102BD0004F0101E0E12CC12C11E00E94DC01F82E34
:102BE0000E94DC0191E0F91247C0813009F063C016
:102BF000113408F461CFC0925229C11002C0D092A2
:102C0000542980914A29882309F456CFEAE4F9E24D
:102C100007E619E2D80181918D9329E2E235F207A6
:102C2000D1F783E69AE70E94350E60E282EA98E2E5
:102C30000E942403F80161918F0170E090E080E030
:102C400040E10E94B90DF9E20F361F0771F767E006
:102C500087E699E20E94400690916E29891709F44F
:102C600040C089E69AE70E94270E109270298AEFE9
:102C70009AE70E94270E9CCFEE2DF0E0F81211C0CB
:102C8000809152291817A8F4DF01A95BB64D13965D
:102C90008C91802381F4F12C193010F41093532976
:102CA000C12EE95BF64D8381902F90958923838314
:102CB0000BC08113F0CFEE2DF0E0E95BF64D838180
:102CC000802B8383FF24F3948F2D0E941C011F5FB0
:102CD000000F11F4E39401E0E7E0EE1508F07DCF7A
:102CE00087CF88E896E70E94AC0D809167298232F1
:102CF000A1F0883259F0803199F48BE79AE70E946D
:102D0000270ED0926F29D0927029CECE8CE89AE708
:102D10000E94270E10926F29F6CF8DE99AE7F8CF1F
:102D20008DEA9AE7A0CF8D81807611F4687F2CCF51
:102D3000803211F46C7F28CF803409F025CF6E7F6C
:102D400023CF8AE090E0809322289093232834C0F8
:102D500080919C2890919D28892B19F48BE090E01C
:102D6000F2CF84E00E942305811126C08DE090E01F
:102D7000EACF85E599E20E94A40D80919C2890916C
:102D80009D28803D974029F040929C2850929D2894
:102D9000F4CF8CE090E0D7CF80919C2890919D2833
:102DA000892B29F4109222281092232805C084E050
:102DB0000E9423058823B1F30E949703F0CA8091F3
:102DC0009C2890919D28803D974029F040929C2816
:102DD00050929D28F4CF6EE070E0609322287093AB
:102DE00023288AE09BE70E94130D81E080939B28B3
:102DF00080939A28E1CF80919C2890919D28892BDF
:102E0000D9F68FE090E09FCF70E060E08AE599E22C
:102E10000E940A020E94500A8230910551F08330CC
:102E2000910551F0019759F48FE09BE70E94130D33
:102E3000C3CF84E19BE7FACF89E19BE7F7CF8EE12F
:102E40009BE7F4CF10929928E0909728F09098286B
:102E500000912228109123282091202830912128A8
:102E600040919628609194287091952885E599E283
:102E70000E944808009120281091212882E090E0CB
:102E800089839A83612FCE0101960E94280A83E0EC
:102E900090E089839A83602FCE0101960E94280AD0
:102EA0000E94B908409192285091932880919628C9
:102EB0009FE0949F9001959F300D1124820F932FD6
:102EC000911D8093922890939328809192289091BD
:102ED000932824E0969587952A95E1F78093922888
:102EE0009093932820919228309193288091902854
:102EF000909191282817390761F180918F288F3F91
:102F000029F080918F288F5F80938F2880918F2860
:102F1000883010F5809196288436F1F080918D28C4
:102F200090918E288536910538F080918D2890916A
:102F30008E28803D974080F080918C28882371F006
:102F40000E94AB0885E090E080932228909323288C
:102F500005C010928F28DACF0E94AB0880918D288F
:102F600090918E2889389341C8F010928828109249
:102F7000892810928A2810928B2887E090E080930D
:102F800022289093232881E080939B2880912028F9
:102F90009091212880938628909387288091922869
:102FA00090919328809390289093912805CF0E9428
:102FB000E7096091852885E599E20E94790D83E013
:102FC00090E0C1CE0E94E709F7CE809197289091BA
:102FD000982880919928882339F010929928209276
:102FE000222830922328E8CE84E00E9423058823FB
:102FF000A1F3E2CEE0909728F09098280091222843
:103000001091232820912028309121284091962842
:10301000609194287091952885E599E20E9448086E
:10302000CBCE81E080939B28E0909728F090982861
:1030300000912228109123282091202830912128C6
:1030400040919628609194287091952885E599E2A1
:103050000E944808809120289091212880938628FA
:10306000909387288091202890912128853691057A
:1030700030F084E690E0809320289093212826E089
:1030800030E0209322283093232896CEE090972892
:10309000F090982800912228109123282091202830
:1030A000309121284091962860919428709195281C
:1030B00085E599E20E9448080E94B90884E00E94D0
:1030C0002305811107C080918D2890918E28883E1C
:1030D000934050F080918C28882309F46DCE0E9493
:1030E000AB0887E090E02FCE8091862890918728CA
:1030F000809320289093212810929B2853CE0E94E1
:10310000E7090E946D0D109220281092212810923C
:10311000962888E090E017CE0E946D0D84E00E9412
:103120002305811149CE80918D2890918E28883E6B
:10313000934008F041CE10922228109223288091CB
:1031400086289091872880932028909321280E9498
:10315000AB0810929B2830CEFB01DC01415050405F
:1031600030F08D910590801919F40020B9F7881B73
:10317000990B08950E94C1186894B1110C945019CC
:1031800008950E94351988F09F5798F0B92F992714
:10319000B751B0F0E1F0660F771F881F991F1AF042
:1031A000BA95C9F714C0B13091F00E944F19B1E03F
:1031B00008950C944F19672F782F8827B85F39F03E
:1031C000B93FCCF3869577956795B395D9F73EF4DB
:1031D00090958095709561957F4F8F4F9F4F089583
:1031E000E89409C097FB3EF49095809570956195A1
:1031F0007F4F8F4F9F4F9923A9F0F92F96E9BB2757
:103200009395F695879577956795B795F111F8CFD2
:10321000FAF4BB0F11F460FF1BC06F5F7F4F8F4F3D
:103220009F4F16C0882311F096E911C0772321F033
:103230009EE8872F762F05C0662371F096E8862FCB
:1032400070E060E02AF09A95660F771F881FDAF722
:10325000880F9695879597F9089557FD9058440FD4
:10326000551F59F05F3F71F04795880F97FB991FE5
:1032700061F09F3F79F087950895121613061406A2
:10328000551FF2CF4695F1DF08C01616170618062F
:10329000991FF1CF86957105610508940895E8940A
:1032A000BB2766277727CB0197F908950E946919F4
:1032B0000C94DA190E94CC1938F00E94D31920F02E
:1032C000952311F00C94C3190C94C91911240C9472
:1032D00050190E942D1970F3959FC1F3950F50E07E
:1032E000551F629FF001729FBB27F00DB11D639FB8
:1032F000AA27F00DB11DAA1F649F6627B00DA11D5E
:10330000661F829F2227B00DA11D621F739FB00D03
:10331000A11D621F839FA00D611D221F749F332773
:10332000A00D611D231F849F600D211D822F762F0C
:103330006A2F11249F5750409AF0F1F088234AF0E9
:10334000EE0FFF1FBB1F661F771F881F9150504055
:10335000A9F79E3F510580F00C94C3190C945019A5
:103360005F3FE4F3983ED4F3869577956795B795DC
:10337000F795E7959F5FC1F7FE2B880F911D9695F6
:10338000879597F9089597F99F6780E870E060E066
:1033900008959FEF80EC089500240A9416161706EE
:1033A00018060906089500240A9412161306140636
:1033B00005060895092E0394000C11F4882352F099
:1033C000BB0F40F4BF2B11F460FF04C06F5F7F4F51
:1033D0008F4F9F4F0895991B79E004C0991F96174E
:1033E00008F0961B881F7A95C9F78095089597FB7A
:1033F000072E16F4009407D077FD09D00E947B1A9F
:1034000007FC05D03EF4909581959F4F08957095E7
:1034100061957F4F0895A1E21A2EAA1BBB1BFD01E7
:103420000DC0AA1FBB1FEE1FFF1FA217B307E407A3
:10343000F50720F0A21BB30BE40BF50B661F771FFB
:10344000881F991F1A9469F76095709580959095DB
:103450009B01AC01BD01CF010895052E97FB1EF421
:1034600000940E94441A57FD07D00E940B1A07FCD3
:1034700003D04EF40C94441A509540953095219504
:103480003F4F4F4F5F4F0895909580957095619590
:103490007F4F8F4F9F4F0895EE0FFF1F0590F491C0
:1034A000E02D0994A29FB001B39FC001A39F700DAE
:1034B000811D1124911DB29F700D811D1124911D3C
:1034C00008950E94521AB7FF0895821B930B089526
:1034D0000E94521AA59F900DB49F900DA49F800D3D
:1034E000911D11240895B7FF0C94681A0E94681A60
:1034F000821B930B0895AA1BBB1B51E107C0AA1F97
:10350000BB1FA617B70710F0A61BB70B881F991F84
:103510005A95A9F780959095BC01CD010895F8942E
:02352000FFCFDB
:103522000000000000000000000000000005010192
:103532000101010100000000000000000000000085
:10354200000000000000020300000102030405065F
:103552000700010203040500010203040506070037
:10356200010203040506070001020300010203042D
:103572000506000003000000000000000000080033
:103582000000000000000000000063000040000096
:103592000000000000000000000000000000000029
:1035A20000777C395E79713576061E753837545C42
:1035B200737B506D781C3E7E766E1B000000010806
:1035C200005F7C585E797135740416753837545C27
:1035D2007367506D781C3E2A766E1B3F065B4F6602
:1035E2006D7D077F6F777C395E7971000000002462
:1035F20003240251027503820260027402BC02B10A
:10360200020A0A9E049802C803000000000000009B
:10361200000101010101010202020202020202038F
:10362200030303030303030404040405050505055A
:103632000505010204081020408001020408102040
:10364200010204081020408001020408102040807A
:103652000102040801020408102040000000000AD0
:10366200021F02130A00000000A80DA40D0902099E
:10367200024808790D690D452D302000626F6F7484
:103682000046315F34000D0A002053796E74617870
:10369200206572726F72206E6561723A22005B4E13
:1036A2004557204C494E455D005B52455455524E9C
:1036B2005D00456C656B746F7220536F6C6465724C
:1036C200696E6773746174696F6E20465720312E7C
:1036D200340020206F6E2048617264776172652029
:1036E2003139303430392020202020202020202061
:1036F2002000427566666572206F766572666C6F31
:103702007700270027206E6F74207265636F676EE3
:10371200697A6564206173206B6579776F726400E2
:10372200537570706F7274656420636F6D6D616E36
:103732006473007365742F67657420736574706FAA
:10374200696E74205B7878785D202D3E205468691C
:10375200732077696C6C20736574206F72206765C3
:10376200742074686520736574706F696E74007379
:1037720065742F6765742069726F6E747970652045
:103782005B7878785D202D3E2054686973207769D4
:103792006C6C20736574206F722067657420746886
:1037A200652069726F6E7479706500202020202078
:1037B200202020202020202020202020205752546A
:1037C200203D2057656C6C657220525420546970FC
:1037D200202820313256202F2054797065204B202A
:1037E20029202000202020202020202020202020EE
:1037F200202020202020484B4F203D2048414B4B89
:103802004F20546970202820323456202F205479BA
:103812007065204320292020002020202020202005
:1038220020202020202020202020204A4243203D0A
:10383200204A424320546970202820323456202FD7
:103842002054797065204B20292020006765742060
:1038520074656D7065726174757265202020202018
:103862002020202D3E20546869732077696C6C20DB
:103872007265706F72742074686520637572726508
:103882006E742074656D702E00676574206F6E63B0
:1038920068697074656D702020202020202020200F
:1038A2002D3E20546869732077696C6C20726570B4
:1038B2006F727420746865206F6E6368697020741B
:1038C200656D702E00676574206F6E65776972652D
:1038D20074656D702020202020202020202D3E2085
:1038E200546869732077696C6C207265706F7274AA
:1038F20020746865206F6E65776972652074656DE6
:10390200702E00636C656172206572726F72202086
:10391200202020202020202020202D3E204966200B
:10392200616E206572726F722069732073686F779F
:103932006E20746869732077696C6C20636C6561B2
:10394200722069740068656C70202020202020207D
:103952002020202020202020202020202D3E205406
:103962006869732077696C6C2073686F772074685C
:1039720069732068656C70002D2D2D2D2D2D2D2D38
:103982002D2D2D2D2D2D2D2D2D2D2D2D2D2D2D2D65
:103992002D2D2D2D2D2D2D2D2D2D2D2D2D2D2D2D55
:1039A2002D2D2D2D2D2D2D2D2D2D2D2D2D2D2D2D45
:1039B2002D2D2D2D2D2D2D2D2D2D2D00536574707A
:1039C2006F696E743A000A0D4F4B0A0D004B657910
:1039D200776F7264206E6F7420737570706F72747B
:1039E2006564000A0D4552520A0D004E6F74207331
:1039F2007570706F72746564004F6E4368697020F1
:103A020054656D706572617475723A00312D576933
:103A120072652054656D706572617475723A004505
:103A220072726F723A0049726F6E747970653A0001
:103A320057656C6C65722052540048414B4B4B4F9A
:103A420020465838383031004A4243205432343507
:103A52004100554E4B4E4F574E004F4B000D0A3E04
:103A620000524F4D203D00435243206973206E6F38
:103A7200742076616C69642100202043686970209B
:103A82003D2044533138533230002020436869705E
:103A9200203D2044533138423230002020436869AF
:103AA20070203D20445331383232004465766963D8
:103AB20065206973206E6F74206120445331387819
:103AC20032302066616D696C792064657669636560
:103AD2002E0052656164204F6E65776972652053CE
:103AE200656E736F72004F6E65576972652043523F
:103AF20043204572726F72004E6F2053656E736F72
:103B02007220666F756E6400434F4E46003020434C
:103B1200310030204332003020433300302043381C
:013B220000A2
:103B2300FF00000000000000000000000000000093
:103B33000000000000000000000000000000000082
:043B43003200090043
:00000001FF
