:100000000C9492000C94BA000C94BA000C94BA00B0
:100010000C94BA000C94BA000C94BA000C94BA0078
:100020000C94BA000C94BA000C94BA000C94BA0068
:100030000C94BA000C94BA000C94BA000C94BA0058
:100040000C94BA000C943E0F0C94180F0C94BA0048
:100050000C94BA000C94BA000C94BA000C94BA0038
:100060000C94BA000C946C0F0C94BA000C94BA0067
:100070000C94BA000C94BA000C94BA000C94BA0018
:100080000C94BA000C94BA000C94BA000C94BA0008
:100090000C94940F0C94BA000C94BA000C94BA000F
:1000A000005EBCE2613FDD83C29C7E20A3FD1F4158
:1000B000009D23BE46DB65F88C11AF32CA57E97448
:1000C00057525400484B4F004A4243004F464600A7
:1000D0004F4E0069726F6E74797065006572726F51
:1000E00072006F6E657769726574656D70006F6E12
:1000F0006368697074656D700074656D70657261B8
:100100007475726500736574706F696E7400636CEA
:100110006561720068656C70006765740073657472
:100120000000FF0F11241FBECFEFCDBFDFE3DEBF06
:1001300018E2A0E0B8E2E1E5FDE302C005900D920F
:10014000A432B107D9F729E2A4E2B8E201C01D92B6
:10015000A837B207E1F710E0C2E9D0E004C0219768
:10016000FE010E94631BC139D107C9F70E946D10BF
:100170000C94A61B0C940000E091020670910306FB
:1001800060910506509106064091A0003091A100B3
:1001900080E18093A00082E08093A10084E48093BA
:1001A00002068091030680648093030688E18093B1
:1001B00005068EE18093060681E080930806809113
:1001C0000B0680FFFCCF8FB7F8949091100620911A
:1001D00011068FBFE0930206709303066093050635
:1001E000509306064093A0003093A1008091211106
:1001F000A0912011322F292F281B310987FD33951B
:10020000B0E00E94691BDC01CB0180589F4FAF4FCB
:10021000BF4F892F9A2FAB2FBB270895ECE4F9E24B
:10022000138615861486128611861086178216820A
:10023000158214821382089508956115710539F4A9
:10024000DC01ED91FC910280F381E02D09946115B0
:10025000B8E07B0710F06FEF77E06093380A709397
:10026000390A08951092380A1092390A0895AF9207
:10027000BF92CF92DF92EF92FF920F931F93CF9393
:10028000DF936C017B018B01040F151FEB015E01F5
:10029000AE18BF08C017D10759F06991D601ED918A
:1002A000FC910190F081E02DC6010995892B79F729
:1002B000C501DF91CF911F910F91FF90EF90DF90DB
:1002C000CF90BF90AF900895FC01508D418D252FA8
:1002D00030E0842F90E0821B930B541710F0CF96E0
:1002E000089501970895FC0196898789981761F010
:1002F000A789AE0FBF2FB11D5D968C9197899F5F27
:100300009F73978B90E008958FEF9FEF0895FC0106
:1003100096898789981731F08789E80FF11D858DB7
:1003200090E008958FEF9FEF0895FC01968927894B
:10033000892F90E0805C9F4F821B91098F739927D2
:10034000089587EA98E20E94950121E0892B09F43B
:1003500020E0822F0895CF93DF93EC01E881F981AB
:100360000680F781E02D0995EC85FD8586818F73E8
:100370008683EC85FD8585818F7585838F898E8B3E
:100380001D8ADF91CF910895FC01613019F4648BCF
:1003900081E00895148A6623D9F380E00895DC0192
:1003A00054961C92549754968C9154978230A0F492
:1003B000282F30E0F901EE0FFF1FE20FF31FEA0FC5
:1003C000FB1F9785961303C09685941749F08F5F9E
:1003D00054968C935497E7CF54961C9280E00895DE
:1003E00081E00895CF93DF93FC01908D818DC485CA
:1003F000D585981306C08D818F7D8D83DF91CF9138
:100400000895A18DAE0FBF2FB11DA35ABF4F2C91E0
:10041000818D90E001968F739927818F80E48C8382
:10042000A485B58512962C93908D818D9813E6CF77
:10043000A485B58515968C9115978F7D15968C930F
:10044000838D8823D9F2848D80931301138ED6CFA8
:10045000DC011C96ED91FC910FB607FE03C02581CF
:1004600025FD04C0248125FD0C94F2010895EF922E
:10047000FF920F931F93CF93DF93EC0181E08D8B5D
:10048000988D898D98131CC0AC85BD8514968C9170
:10049000149785FF15C012966C93AC85BD8580E4DA
:1004A00014968C93EC85FD8585818F7D858381E015
:1004B00090E0DF91CF911F910F91FF90EF90089501
:1004C0008091110180FF08C0809113018C8F8A8D6B
:1004D0008093130181E08B8FF62E088D10E00F5F63
:1004E0001F4F0F731127E02E898D8E1104C0CE018E
:1004F0000E942802F9CFE88DEC0FFD2FF11DE35A81
:10050000FF4FF082088FEC85FD8585818062CECF1C
:10051000CF93DF93FC0125892223C9F0EC01809160
:10052000110180FF08C080911301848F828D809318
:10053000130181E0838FEC85FD85858185FD03C0F6
:10054000848186FD04C0CE010E942802F4CFDF9191
:10055000CF91089580E090E0892B29F00E94A101BD
:1005600081110E94000080E090E0892B49F080E03A
:1005700090E0892B29F00E94000081110E94000068
:1005800080E090E0892B49F080E090E0892B29F011
:100590000E94000081110E94000080E090E0892B01
:1005A00049F080E090E0892B29F00E940000811141
:1005B0000C940000089581E00895CF93DF9390E0BC
:1005C000FC01EE59F74820812F3F69F0FC01E75C00
:1005D000F748A08130E2A39FD0011124BC5F6130B5
:1005E00029F411962C93DF91CF910895875898485C
:1005F000EC01E881EF3F81F0CD014096E80FF92F43
:10060000F11D9FB7F89412962C938081623039F4D3
:10061000886080839FBFE7CFF0E0E0E0F2CF877F84
:10062000F8CF893210F40C94DD02089590E0FC01BB
:10063000E05BF848E081EE2319F1E13021F000F1B0
:10064000E630A8F0089587589848FC0120812330AF
:1006500008F02F5F3091010A81E090E001C0880F1F
:100660002A95EAF7809583238093010A089580E113
:10067000E89FF0011124E05AF54F81818F7E81833C
:1006800008950F931F93CF93DF93C82FD0E0FE01FF
:10069000EE59F74800810F3FA1F0162F893210F470
:1006A0000E941603FE01E75CF748E08180E2E89FC4
:1006B000F0011124FC5F8081802351F0111106C0EC
:1006C0000683DF91CF911F910F9108950583F9CF94
:1006D000C758D8488881309771F08F3F61F0709685
:1006E000E80FF11D9FB7F8948081111107C0877F33
:1006F00080839FBFE6CFF0E0E0E0F4CF8860F8CFE2
:10070000893210F40C9441030895CF93DF93C4E42D
:10071000D9E260E08E810E94800360E08F810E94B8
:10072000800361E08E810E94800361E08F81DF9110
:10073000CF910C948003CF93DF93C4E4D9E261E0BE
:100740008E810E94800361E08F810E94800360E0BF
:100750008F810E94800360E08E81DF91CF910C94A5
:100760008003AF92BF92CF92DF92EF92FF920F93EE
:100770001F93CF93DF93EC016A017B01A22E8D8939
:10078000882339F0E881F9810688F789E02DCE01C8
:1007900009950C8910E0BFB6F89460E078E689E826
:1007A00099E0A70196010E94221B69017A018FEF4F
:1007B000C81AD80AE80AF80AF694E794D794C794B6
:1007C000EC85FD8586818D7F8683EC85FD85868120
:1007D00086831D8AA09125110A2E000CBB0BA70150
:1007E00096010E948A1B20E034E040E050E00E9425
:1007F000441BEC85FD85C20ED31EE41EF51EC0868B
:10080000D186EC85FD85A782EC85FD858681806C8F
:100810008683EC85FD858581806885839091E205DE
:100820008B89809589239801220F331F020F131F94
:10083000C00FD11F9889892B8093E20562E08E85D5
:100840000E94110361E08F850E94800361E08F8523
:100850000E941103BFBEDF91CF911F910F91FF90B6
:10086000EF90DF90CF90BF90AF9008950F931F93BC
:10087000CF93082F10E0F801EE59F748C081CF3F21
:1008800089F0893210F40E941603F801E75CF748FA
:10089000E08180E2E89FF0011124FC5F8085C8239D
:1008A00081E009F480E0CF911F910F91089500003D
:1008B0000000000000009C0127503109880F991F9B
:1008C000880F991F820F931F0197F1F708950F93D7
:1008D0001F93CF93DF93D82FC8E060E080914A291F
:1008E0000E9480030D2F0D2E000C110B61E0D0FF34
:1008F00060E080914B290E94800315950795D02FC9
:1009000061E080914A290E948003C15031F760E084
:1009100080914A290E94800361E080914B290E94C6
:10092000800361E080914A290E94800360E0809109
:100930004B290E94110382E390E00E9457048091AA
:100940004B298932F8F061E080914B290E94110314
:1009500060E080914B290E948003C0E082E390E038
:100960000E94570461E080914B290E94110382E3A9
:1009700090E00E9457048C2F90E0DF91CF911F915F
:100980000F9108950E943604C82F8111E7CFDBCF65
:10099000CF93DF93D82FE62F6F37D9F1603140F531
:1009A0000E2E000CFF0BE55FF748808190914729E0
:1009B000C0E09111C0E8C80F0E949B0384E40E942C
:1009C00067040E9485030E949B038D2F806C0E9408
:1009D00067048C2F0E9467040E9485030E949B037A
:1009E000809146290E946704DF91CF910C94850382
:1009F00080ED860F8A3030F40E2E000CFF0BE5528E
:100A0000F848D3CFE052EB3520F4F0E0E055F84859
:100A1000CCCF80E0CBCF0F931F93CF93C0914C29C5
:100A2000E0914D29F0914E299C2F90958F01045013
:100A30001109389780FF18C0F894D8018C91892348
:100A40008C9380818C2B80838AE090E00E945704F5
:100A5000F8018081C82BC083789487E390E0CF9120
:100A60001F910F910C945704F894D8018C9189230D
:100A70008C9380818C2B808381E490E00E945704CA
:100A8000F8018081C82BC083789485E090E0E7CF9F
:100A9000FF920F931F93CF93DF93F82E062FC8E09A
:100AA000D0E011E081E09F2D912309F480E00E94C5
:100AB0000B05110F2197B1F7011118C0F894E091BF
:100AC0004D29F0914E293897908180914C2980953D
:100AD00089238083E0914D29F0914E2934979081AC
:100AE00080914C298095892380837894DF91CF91E0
:100AF0001F910F91FF9008950F931F93CF93DF9352
:100B00008C0160E085E50E944805E801085F1F4F01
:100B100060E089910E944805C017D107C9F7DF91AD
:100B2000CF911F910F910895DF92EF92FF920F9353
:100B30001F93CF93DF93C0914C29E0904D29F09003
:100B40004E29F894870108501109F8018081DC2FA3
:100B5000D0958D23808378948DE7D82EDA94DD208C
:100B600099F182E090E00E945704F70180818C2384
:100B7000A9F3F894349780818D238083F8018081D4
:100B80008C2B8083789480EE91E00E945704F89437
:100B9000F80180818D23808386E490E00E945704D1
:100BA000F7018081C82311E009F010E078948AE908
:100BB00091E00E945704812FDF91CF911F910F91F7
:100BC000FF90EF90DF90089510E0F5CFEF92FF9245
:100BD0000F931F93CF93DF93C0914C29E0904D2941
:100BE000F0904E29F894870108501109F80180818E
:100BF0008C2B808334968081DC2FD0958D2380834D
:100C000083E090E00E945704F80180818D23808367
:100C10008AE090E00E945704F701D081789485E340
:100C200090E00E945704CD2381E009F480E0DF9139
:100C3000CF911F910F91FF90EF9008956FB7F894A7
:100C40002091A3283091A4284091A5285091A6284E
:100C50008091AA0A9091AB0A7091A60A70FF08C011
:100C60002F5F3F4F4F4F5F4F8091AA0A9091AB0A81
:100C70006FBFE92FFF27BC01A4E076956795AA9581
:100C8000E1F7E60FF71FBC01B6E076956795BA95D8
:100C9000E1F7E61BF70B892F992786958695E81BC8
:100CA000F90BA8EEB3E00E947F1B6E0F7F1F811D22
:100CB000911D08958F929F92AF92BF92CF92DF9233
:100CC000EF92FF924B015C010E941E066B017C01BA
:100CD000A8EEB3E0A50194010E947F1BC60ED71EAB
:100CE000E81EF91EC616D706E806F90618F40E9493
:100CF0001E06F8CF0E941E066C157D058E059F0509
:100D0000C8F3FF90EF90DF90CF90BF90AF909F908F
:100D10008F900895DC0180E0615090F09D919827BC
:100D2000E92FEF70F0E0E056FF4F2491E92FE295B4
:100D3000EF70F0E0E055FF4FE491822F8E27ECCF6B
:100D400008958F929F92AF92BF92CF92DF92EF92CF
:100D5000FF920F931F93CF93DF93CDB7DEB72C97FE
:100D6000CDBFDEBF80916829882309F48EC08091B1
:100D70007429882309F489C0809164299091652998
:100D8000A0916629B0916729805F984DAF4FBF4F02
:100D90002FB7F8944091A3285091A4286091A528DA
:100DA0007091A6282FBF84179507A607B70708F0EC
:100DB0006CC00E9494058BE699E20E947C0560E07D
:100DC0008EEB0E9448058E010F5F1F4F4E018AE097
:100DD000880E911C580198E0C92ED12CF12CEE24DC
:100DE000E3940E94E6058111FE28EE0CE1E0CE1AA4
:100DF000D108B9F7F801F1928F018E169F0659F7C5
:100E0000198568E0C5010E948A06181789F080E0FC
:100E10002C96CDBFDEBFDF91CF911F910F91FF9038
:100E2000EF90DF90CF90BF90AF909F908F900895FC
:100E300069817A8180917329882309F468C083E0ED
:100E4000660F771F8A95E1F78885803141F42F81FD
:100E50008CE090E0821B9109607F680F791F072E5C
:100E6000000C880B990B0E94BC1920E030E040E890
:100E70005DE30E94201A0E9484196F5E7E4F60938A
:100E8000692970936A291092682980916429909148
:100E90006529A0916629B0916729805E914BAF4F7B
:100EA000BF4F2FB7F8944091A3285091A428609188
:100EB000A5287091A6282FBF84179507A607B70706
:100EC00008F0A5CF0E940E012FB7F8948091A328B7
:100ED0009091A428A091A528B091A6282FBF809317
:100EE000642990936529A0936629B09367290E948D
:100EF00094058BE699E20E947C0561E084E40E94FF
:100F000048050E940E0181E08093682981CF8D8180
:100F1000807611F4687FA3CF803211F46C7F9FCF6D
:100F2000803409F09CCF6E7F9ACFCF93DF930E94DD
:100F3000A10680917429D0916929C0916A298111F3
:100F400004C00E94BC00D82FC92F809162299091C3
:100F500063298130910509F468C0029709F0D7C070
:100F600088E030E020E091E01092060690930806B9
:100F700040910B0640FFFCCF4091100650911106A6
:100F8000240F351F815081F783E0369527958A9588
:100F9000E1F7A8E8B3E10E94691B2FEF33E040E0DE
:100FA00050E00E94441B213D67E0360708F0B2C0C4
:100FB000B9016E507640623C714008F04BC02E5033
:100FC000364041095109AAEAB0E00E947F1B22EC99
:100FD00031E040E050E00E94441B24533E4F4F4F0D
:100FE0005F4F8D2F9C2F893E910510F489EE90E084
:100FF000803941E0940710F08FE891E08B529140E6
:101000008217930709F489C0273E63E0360710F47E
:10101000281B390B20936029309361298091602926
:1010200090916129DF91CF91089588E030E020E030
:1010300091E0909306069093080640910B0640FFBE
:10104000FCCF4091100650911106240F351F81509E
:1010500081F79ACFB901655773406E39724098F4A1
:101060002557334041095109AAEAB0E00E947F1B8D
:1010700023EA32E040E050E00E94441B2E5D3E4FE8
:101080004F4F5F4FAECFB9016D5C7109683A724046
:1010900098F42D5C310941095109ADEBB0E00E9493
:1010A0007F1B28EA32E040E050E00E94441B2C59AC
:1010B0003F4F4F4F5F4F95CFB9016A537109633965
:1010C000710598F42A53310941095109A1E3B0E0AF
:1010D0000E947F1B23E930E040E050E00E94441B67
:1010E0002E5C3F4F4F4F5F4F7CCF2A33310590F43A
:1010F000A8E1B0E00E947F1B2AE330E040E050E02E
:101100000E94441B275E3F4F4F4F5F4F6ACF27EE31
:1011100033E067CF27EE33E07DCF10926029109245
:1011200061297CCF8091372890913828892B29F02C
:101130001092372810923828F5CF109291280895F0
:10114000CF92DF92EF92FF9220912B2830912C28A2
:1011500080913B2890913C288217930778F48091E6
:101160003B2890913C280197821B930BC29758F41F
:101170000000FF90EF90DF90CF90089580913B2882
:1011800090913C28F1CF80913B2890913C2880930E
:101190002B2890932C28F89481E080932A28789427
:1011A0001092380A1092390A6AE070E080E090E00C
:1011B0000E945A060E9495072091202830912128EC
:1011C0008217930708F070C0A0912028B0912128C1
:1011D000A81BB90BA330B1050CF051C080918D282C
:1011E00090918E28A0918F28B09190280596A11DEE
:1011F000B11D80938D2890938E28A0938F28B09353
:10120000902880918D2890918E28A0918F28B09160
:10121000902881309840A105B10564F080E098E005
:10122000A0E0B0E080938D2890938E28A0938F2823
:10123000B0939028C0908D28D0908E28E0908F2871
:10124000F0909028A4E6B0E0A70196010E947F1BD1
:1012500020E038E040E050E00E94441B20939B28AF
:10126000B60121E0C21628E0D20610F060E078E076
:101270008EE599E20E941D0110922A287ACF2091D2
:101280002028309121280E94781B26E030E040E0A1
:1012900050E00E94441B20938D2830938E28409369
:1012A0008F2850939028ADCF20912028309121286D
:1012B0002817390708F0BECF209120283091212827
:1012C000821B930B0397DCF010928D2810928E28CE
:1012D00010928F281092902880918D2890918E28BE
:1012E000A0918F28B0919028B7FFA4CF10928D289D
:1012F00010928E2810928F28109290289BCFC09029
:101300008D28D0908E28E0908F28F09090281C1483
:101310001D041E041F0404F787E0C816D104E1046D
:10132000F104B4F1C701B60129EF3FEF4FEF5FEFD2
:101330000E94441BC20ED31EE41EF51EC0928D28CF
:10134000D0928E28E0928F28F0929028C701B601A3
:1013500027E030E040E050E00E94441B643071051B
:10136000810591050CF4B8CF1C141D041E041F0444
:101370000CF0B2CF21E0C21AD108E108F108C09206
:101380008D28D0928E28E0928F28F0929028A4CFBA
:1013900081E0C81AD108E108F108F1CFF89481E0A2
:1013A00080932A2810928D2810928E2810928F28D0
:1013B0001092902870E060E08EE599E20E941D0195
:1013C0001092380A1092390A10922A2878940895B7
:1013D00080912228909123288530910511F007975C
:1013E00029F480918B2890918C2808958091202851
:1013F000909121280895DC01ED91FC910488F589F4
:10140000E02D23E030E009948091380A9091390A68
:101410000895FC0180819181FC01FF2790FD06C0A9
:1014200080E094E1E82BF92B8081089580E093E13E
:10143000F9CF1F93CF93DF93EC01162F0E94090A77
:101440008117B9F088819981FC01FF2790FD16C0B2
:1014500080E094E1E82BF92B10838FB7F8949DE995
:1014600023E094BF209300108FBF8091021081FD74
:10147000FCCFCE01DF91CF911F91089580E093E1E1
:10148000E9CFCF92DF92EF92FF921F93CF93DF933A
:1014900000D0CDB7DEB787E0C82ED12CC982DA8262
:1014A000CE0101960E94090A182F98E0E92EF12C2E
:1014B000E982FA82CE0101960E94090A809581177D
:1014C00079F0C982DA8263E0CE0101960E94190A9E
:1014D000E982FA826CEFCE0101960E94190A13E0AC
:1014E000812F90E00F900F90DF91CF911F91FF908F
:1014F000EF90DF90CF9008950F931F93CF93DF93DA
:1015000000D0CDB7DEB78C018130910511F0029784
:1015100011F5009362291093632961E08EE10E9426
:10152000410387E090E089839A83602FCE01019682
:101530000E94190A88E090E089839A83602F609561
:10154000CE0101960E94190A0F900F90DF91CF9162
:101550001F910F91089582E090E08093622990930B
:10156000632960E0DBCF2091A028211180C0843066
:10157000910509F445C098F48230910529F103974B
:1015800099F18091202890912128C29708F065C098
:1015900082E390E08093202890932128089586305C
:1015A000910509F44AC0D8F1079759F7809120288E
:1015B000909121288D3B914008F04CC080912028CB
:1015C0009091212805960BC0809120289091212888
:1015D000C397B8F280912028909121280197809399
:1015E000202890932128CDCF8091202890912128E8
:1015F000C59790F080912028909121280297EFCFF5
:101600008091202890912128C89730F0809120283F
:10161000909121280597E3CF82E390E0E0CF80917D
:10162000202890912128823C914008F0AACF8091F7
:101630002028909121280196D2CF80912028909146
:101640002128803C914030F48091202890912128DD
:101650000296C5CF82EC91E0C2CF80912028909174
:101660002128833C914000F182EC91E093CF2091BE
:101670009F282130C9F482309105B9F08530910559
:10168000F9F0019789F48091922890919328803104
:10169000974250F08BE090E080932228909323288B
:1016A00010929F281092A02808950E94410A81500C
:1016B000882351F0843008F083E090E00C947C0A99
:1016C0000E94410A8F5FF4CF81E0F7CFCF93DF9381
:1016D00080913D28833008F469C110923D288091A3
:1016E0003B2890913C28019680933B2890933C287E
:1016F0008091A1289091A228892B49F08091A1285E
:101700009091A22801978093A1289093A22880917C
:10171000392890913A28893E23E0920708F43AC18B
:101720001092392810923A2880919C2890919D28F7
:10173000019680939C2890939D2880916029909198
:1017400061298093992890939A28809137289091C5
:1017500038288835924011F581E080939128409196
:101760002028509121282091602930916129809171
:101770009B28E0912228F0912328E930F10508F018
:1017800007C1EB53F44F0C94631BE10BAE0CBC0C84
:10179000AE0CB50CE10BE10B310C310C809137280C
:1017A000909138288935924010F00000D8CF809170
:1017B00037289091382801968093372890933828BD
:1017C000CECF882309F44AC0C901B0E0A0E070E0A0
:1017D00060E0481B590B6A0B7B0B463051056105D5
:1017E0007105E4F14091302850913128841B950B0C
:1017F000A109B10983309105A105B10550F580918A
:101800002F288F5F80932F2880912F28873070F0AA
:1018100081E080938A2810922F2881E090E08093C5
:101820002228909323288AE080932E28293582E06D
:10183000380760F083E080938A2881E090E080930D
:101840002228909323288AE080932E2810922D2816
:1018500018C0873F9F4FAF4FBF4F8CF210922F2879
:10186000D3CF293542E0340760F083E080938A28A3
:1018700081E090E080932228909323288AE080934F
:101880002E2820933028309331288091352890914C
:1018900036288A30910508F483C0109235281092BA
:1018A000362884E00E943604811184C080919228F9
:1018B00090919328892B21F490E080E00E94B30A54
:1018C0008091922890919328019649F080919228D6
:1018D0009091932801968093922890939328C09199
:1018E0003428CC0FCF70C093342886E00E94360491
:1018F000882319F0C160C093342880913428833044
:10190000F1F4C0913228D091332885E00E9436044A
:10191000811160C0CA30D10570F084E090E0C2331C
:10192000D10538F083E090E0CA3FD10510F082E0A5
:1019300090E00E94B30A10923228109233288091CE
:101940003228909133288F3F980729F00196809391
:10195000322890933328DF91CF91089580912E28DB
:10196000882309F48ECF81508ACF80912E28882336
:1019700041F0815080932E28109222281092232823
:1019800065CF10922F281092222810922328F4CF8E
:10199000000077CF01968093392890933A2875CF2D
:1019A000019680933528909336287BCF8F5F809364
:1019B0003D2877CF8091922890919328893C91057A
:1019C00020F081E090E00E94B30A109292281092D9
:1019D000932885CFCA30D10508F4ADCF87E090E0D9
:1019E000C233D10508F4A5CF86E090E0CA3FD10507
:1019F00008F49FCF85E090E09CCFE0E0F6E08281A4
:101A00008F7C806582830895EF92FF920F931F93DE
:101A1000CF93DF937C0110E000E0E7010990002004
:101A2000E9F72197CE19DF0980914829909149293A
:101A30000C171D0758F508171907F4F064EF71E04B
:101A400080E090E00E945A06D0E0C0E09E018091C4
:101A5000482990914929219628173907A4F4F801BB
:101A6000EC0FFD1FE81BF90BEE0DFF1D60818C2FA5
:101A700081500E94C804EACFF701E00FF11F608196
:101A8000802F0E94C8040F5F1F4FC7CF8091482945
:101A900090914929C817D90734F46FE78C2F0E9419
:101AA000C8042196F3CFDF91CF911F910F91FF9042
:101AB000EF9008951092472987EE9BE70C94040D50
:101AC0000E94CE0960919C2870919D288AE599E238
:101AD0000E945A0D0C949507CF93DF93CDB7DEB7D4
:101AE0002597CDBFDEBF862F95E0E7EAF8E7DE0158
:101AF000119601900D929A95E1F720E3260F6A3036
:101B000068F42C8310924729CE0101960E94040D9F
:101B10002596CDBFDEBFDF91CF9108956AE00E9488
:101B2000021B90E3980F9B8396EF899F200D112451
:101B3000E8CF8CEA98E70C94040D81EB98E70C94BD
:101B4000040DFC0101900020E9F73197AF01481B1B
:101B5000590BBC0187EA98E20C9437018F929F924F
:101B6000AF92BF920F931F93CF93DF93CDB7DEB7A2
:101B7000A197CDBFDEBF19A2423008F44AE08E0122
:101B80000F5D1F4F842E912CB12CA12CA501940127
:101B90000E94221BE62FB901CA01EA30DCF4E05DA5
:101BA000D801EE938D01232B242B252B79F790E080
:101BB00080E0109719F0CD010E94A10DA196CDBF34
:101BC000DEBFDF91CF911F910F91BF90AF909F909B
:101BD0008F900895E95CE4CFCF92DF92EF92FF926D
:101BE000CF93DF936C01990FEE08FF08F7FE19C041
:101BF0006DE287EA98E20E943702EC0166277727B8
:101C0000CB016C197D098E099F094AE00E94AE0D37
:101C10008C0F9D1FDF91CF91FF90EF90DF90CF90C1
:101C200008954AE0C701B601DF91CF91FF90EF9090
:101C3000DF90CF900C94AE0DCF93DF930E94A10D57
:101C4000EC0186EB98E70E94A10D8C0F9D1FDF91A0
:101C5000CF9108950C94A10D0F931F93CF93DF9311
:101C6000C82FD62F89EB98E70E942A0E0C2F10E080
:101C7000085B174DCD17A0F4F80161918F018EEC30
:101C800098E76A3021F06D3031F489ED98E70E94D1
:101C90002A0ECF5FEFCF87EA98E20E943702F9CF92
:101CA0008CEC98E7DF91CF911F910F910C941C0E53
:101CB0004F925F926F927F929F92AF92BF92CF921C
:101CC000DF92EF92FF920F931F93CF93DF93EC017C
:101CD0006B017901809142289091432882179307E4
:101CE000F1F0209342283093432880ED97E08A83D7
:101CF0009B8380E48093442980EC809345298FE87E
:101D000080934629B90190E080E00E94BA1960935F
:101D10003E2870933F2880934028909341288A81E1
:101D20009B81892B09F44FC0B70190E080E00E94AD
:101D3000BA1960933E2870933F288093402890936F
:101D4000412860913E2870913F28809140289091D1
:101D500041289F770E948D1A0E9484198B01C3E04D
:101D6000D0E084EF482E55245394612C712C992493
:101D700093949AE0A92EB12C2097E1F11092472973
:101D80006FE70115110529F0C801B5010E940E1B6E
:101D9000682F8C2F0E94C804C801B5010E940E1B39
:101DA0008B01219748F7DF91CF911F910F91FF9001
:101DB000EF90DF90CF90BF90AF909F907F906F900B
:101DC0005F904F900895B60190E080E00E94BA19AC
:101DD00060933E2870933F28809340289093412839
:101DE00080E48093442980EC809345298AE880939D
:101DF0004629A7CFCE14DF0488F42FB7F89460915A
:101E0000A3287091A4288091A5289091A6282FBF7F
:101E1000A30192010E94221B20FD07C010924729B6
:101E200060E280E00E94C804BCCF90924729F8CFBE
:101E30001F920F920FB60F9211242F933F934F933F
:101E40005F936F937F938F939F93AF93BF93EF9322
:101E5000FF9387EA98E20E94F201FF91EF91BF9110
:101E6000AF919F918F917F916F915F914F913F9132
:101E70002F910F900FBE0F901F9018951F920F92E9
:101E80000FB60F9211242F938F939F93EF93FF938D
:101E9000E091B328F091B428818181FD1BC090812D
:101EA0008091BD288F5F8F732091BE28821741F0EB
:101EB000E091BD28F0E0E955F74D958F8093BD285E
:101EC000FF91EF919F918F912F910F900FBE0F90E7
:101ED0001F9018958081F4CF1F920F920FB60F922A
:101EE00011248F939F93AF93BF938091A3289091D8
:101EF000A428A091A528B091A6280196A11DB11DE6
:101F00008093A3289093A428A093A528B093A628F3
:101F100081E08093A60ABF91AF919F918F910F901E
:101F20000FBE0F901F9018951F920F920FB60F9231
:101F300011242F933F934F935F936F937F938F93CE
:101F40009F93AF93BF93CF93DF93EF93FF938091D2
:101F5000262890912728A0912828B0912928019619
:101F6000A11DB11D8093262890932728A09328288F
:101F7000B093292881E08093B60AE0914628F09139
:101F80004728309709F00995809125288330B0F4CF
:101F90008F5F80932528FF91EF91DF91CF91BF91C3
:101FA000AF919F918F917F916F915F914F913F91F1
:101FB0002F910F900FBE0F901F901895109225280B
:101FC000C0914428D0914528209729F38091242856
:101FD000882381F01092242860E082E10E9441036E
:101FE0008A819B81892BB9F28A819B8101978A839F
:101FF0009B83D1CF81E08093242861E0EECF1F93B3
:10200000CF93DF93E7EAF8E21282138288EE93E03F
:10201000A0E0B0E084839583A683B7838FE198E73F
:102020008083918380E098E08487958781E086872C
:102030001786108A95E0918B94E0928B838B148A9B
:10204000158A168A178A108E118E82E1828F138E5E
:10205000148EC4E4D9E284E090E08C839D8383E015
:102060008E8312E01F8361E00E94DD0261E08F81B8
:102070000E94110360E08FE00E94DD02ECE4F9E2CF
:10208000108388E494E0818392830E940E01CAE564
:10209000D9E289E998E7888399831A821B828FE8BD
:1020A00098E78C839D8387EE93E08E839F8382E005
:1020B00090E0888799871A861B861C861D861E8657
:1020C0008FEF9FEF8F87988B1A8E0E94FD0C1C8ECE
:1020D0001D8EDF91CF911F910895CF93DF93CDB7E0
:1020E000DEB76A97CDBFDEBF88ED90E084BF9093E6
:1020F000610080910206866080930206809100064E
:102100008160809300060E94FD0C1092E20582E03F
:102110008093E40581E08093030A8EEF8093270A81
:102120008093260A80E880932D0A80932B0A80935F
:10213000290A80932C0A80932A0A8093280A8BE02C
:102140008093000A87E08093E505E0E8FAE037E055
:102150002EEF90E885E03183248795878083709601
:10216000E03C4AE0F407B9F71092A10A8FE19EE43F
:102170008093AC0A9093AD0A8091A50A8160809308
:10218000A50A1092A00A8091A00A81608093A00AFB
:10219000789482E090E089839A83CE0101960E9430
:1021A000090A082F10E0102F002783E090E08983B0
:1021B0009A83CE0101960E94090A082B98012253A6
:1021C00031092139314010F002E310E0009320285A
:1021D0001093212860E08FE00E94DD0261E08FE033
:1021E0000E94410360E080E10E94DD0261E080E145
:1021F0000E94410360E081E10E94DD0261E081E133
:102200000E94410360E082E10E94DD0261E082E120
:102210000E94410360E083E10E94DD0261E083E10E
:102220000E94410360E089E10E94DD0261E089E1F2
:102230000E94410360E08AE10E94DD0261E08AE1E0
:102240000E94410360E08BE10E94DD0261E08BE1CE
:102250000E94410360E08CE10E94DD0261E08CE1BC
:102260000E94410360E08DE10E94DD0261E08DE1AA
:102270000E94410360E087E20E94DD0261E087E2A4
:102280000E94410360E084E20E94DD0261E084E29A
:102290000E94410360E085E20E94DD0261E085E288
:1022A0000E94410360E08FE10E94DD0261E08FE166
:1022B0000E94410360E080E20E94DD0261E080E272
:1022C0000E94410360E081E20E94DD0261E081E260
:1022D0000E94410360E082E20E94DD0261E082E24E
:1022E0000E94410360E083E20E94DD0261E083E23C
:1022F0000E94410360E080E00E94DD0261E080E036
:102300000E94410360E081E00E94DD0261E081E023
:102310000E94410361E08EE00E94DD0260E08EE0F9
:102320000E94410361E08EE10E94DD0260E08EE1E7
:102330000E94410360E088E10E94DD0260E088E1E4
:102340000E94410360E086E10E94DD0260E086E1D8
:102350000E94410360E087E10E94DD0260E087E1C6
:102360000E94410360E082E00E94DD0260E082E0C2
:102370000E94410360E083E00E94DD0260E082E0B1
:102380000E94410360E084E00E94DD0261E084E09D
:102390000E94410360E085E00E94DD0261E085E08B
:1023A0000E94410360E086E00E94DD0261E086E079
:1023B0000E94410360E087E00E94DD0261E087E067
:1023C0000E94410361E083E00E94DD0261E082E05F
:1023D0000E94DD026FE780E00E94C8046FE781E0A1
:1023E0000E94C8046FE782E00E94C8046FE783E0A0
:1023F0000E94C80480E48093442980EC809345299E
:102400008AE88093462910E000E098EBE92E92E2FA
:10241000F92E2AE0C22ED12C209148293091492949
:1024200002171307C4F4201B310B215031096FE749
:10243000E114F10429F0C701B6010E940E1B682FB8
:10244000822F0E94C804C701B6010E940E1B7B01A7
:102450000F5F1F4FE1CF109247290E94410A0E944F
:102460007C0AF8941092B10A87E893E18093BC0A41
:102470009093BD0A8091B50A81608093B50A10924D
:10248000B00A8091B00A81608093B00A86E69BE032
:1024900080934628909347288AE599E280934428C0
:1024A0009093452891E0909341041092000A82E0B5
:1024B0008093E4051092030A1092010A8091090AA0
:1024C0008E7F8093090A83E18093010A20E038E03F
:1024D0002093360A3093370A1092380A1092390A3C
:1024E0009093000A789440E052EC61E070E087EA53
:1024F00098E20E94FB091092A0280E949208109274
:10250000380A1092390A89E090E08093222890934B
:10251000232804E0202E312C80ED482E87E0582E11
:10252000BE01665F7F4F6E8B7F8B80918928811102
:1025300013C082EE98E70E941C0E82E099E70E9489
:102540001C0E89EA9BE70E941C0E8FE89CE70E9404
:102550002A0E81E08093892810E4612E87EA98E2B0
:102560000E94950118161906ECF587EA98E20E9478
:102570007301182F8D3009F053C080918828803462
:1025800008F057C0E82FF0E0E85BF74D10838F5F4D
:10259000809388281D3011F01A3001F78AEF9BE7ED
:1025A0000E942A0E809188288823C1F21D821E82F3
:1025B0001F821886E8E4F8E2D12C813408F43FC089
:1025C00082E299E70E941C0EE8E4F8E2119278E2B8
:1025D000E838F707D9F71092882810E000E0F12CCE
:1025E000E12C4AC10E94A106E0912228F091232803
:1025F000E031F10508F0A6C4E050FD4E0C94631BD9
:10260000EC17A118AC18AF18C418DB181019491929
:10261000561910166E177F179217A517C317CC17E8
:102620008A3009F4AACF682F87EA98E20E9437021D
:10263000A4CF60928828AECFDA2C8A15E9F18F01F9
:10264000085418429191AA24A394AD0C903221F021
:102650009A3011F09D3081F7ED2CF12CA7016DE13E
:1026600071E088E498E20E947619892B09F4DDC0B4
:10267000A70169E171E088E498E20E947619892B4C
:1026800009F4D7C0A70164E171E088E498E20E94F0
:102690007619892B09F4D1C0A7016EE071E088E4B6
:1026A00098E20E947619E3E0EE2EF12C892B31F0AE
:1026B0006D2D80E00E942C0EF12CE12C9091882849
:1026C000A91608F096C1F801E85BF74D80818A30C1
:1026D00009F48FC18D3009F48CC10A2D10E0F80186
:1026E000E85BF74D9A2C9F0128543842298F3A8F86
:1026F000819131E0390D388F803229F08A3019F01C
:102700008D3009F09EC0C92CCA18D12C085B174D1A
:10271000A60165E071E0C8010E947619892B09F4D1
:1027200094C0A60169EF70E0C8010E947619892B58
:1027300009F48EC0A6016EEE70E0C8010E94761901
:10274000892B09F488C0A60162EE70E0C8010E94DE
:102750007619892B09F482C0A6016CED70E0C801DE
:102760000E947619892B09F47CC0A60163ED70E004
:10277000C8010E94761906E010E0892B31F0692D1E
:102780008A2D0E942C0E10E000E060918828488D70
:10279000461708F071C0E98DFA8DE85BF74D80812E
:1027A0008A3009F469C08D3009F466C0F801EE0F73
:1027B000FF1FEE55F84880819181892B29F4842FE1
:1027C0000E942C0E10E000E0F801EE0FFF1FEE5506
:1027D000F84820813181C9010797029708F488C021
:1027E000788C812C912C540180918828781608F0DF
:1027F00003C1E72DF0E0E85BF74DE08180ED8E0F3F
:102800008A3090F5AAE0B0E0A50194010E947F1BF8
:102810004E2F4053550B4A01550FAA08BB08860E90
:10282000971EA81EB91E7394DFCFB2E0EB2EF12CD9
:1028300045CFEE24E394F12C41CFF4E0EF2EF12CC0
:102840003DCF988C99114FCF9ECF01E010E09DCFE6
:1028500002E010E09ACF03E010E097CF04E010E030
:1028600094CF05E010E091CFEA3011F0ED3059F54A
:102870008D829E82AF82B886E982FA820B831C83A6
:10288000798689E0FE013196DE011D9601900D9258
:102890008A95E1F7F2E0EF16F10409F4EEC008F0D2
:1028A000ADC0EA94EF2809F441C1E8E4F8E21192DE
:1028B00088E2E838F807D9F7109288288DE89CE775
:1028C0000E942A0E4BCEEF51E03608F4ACCF1D82A9
:1028D0001E821F82188689EB98E70E942A0E672DB8
:1028E000888D0E942C0E10E000E0F12CE12C9BCF93
:1028F00040918828588D852F90E0BC01685B774D0A
:102900006B016D837E834B01FB01782E788D771AE6
:10291000841708F060C091919A3019F09D3009F049
:1029200058C02730310509F4A7CFA72CB12CA50139
:1029300060ED70E0C6010E947619892B29F481E0D0
:1029400090E08D839E8398CFA5016CEC70E0C6016A
:102950000E947619892B19F482E090E0F2CFA5014C
:1029600068EC70E0C6010E947619892B19F483E0A7
:1029700090E0E7CFA50164EC70E0C6010E947619F3
:10298000892B19F42D823E8277CFA50160EC70E08F
:10299000C6010E947619892B19F485E090E0D1CF09
:1029A00082E399E70E942A0ED12CD71449F0F40152
:1029B00061914F0187EA98E20E943702D394F5CFE4
:1029C00084E399E70E941C0E1D821E821F821886D6
:1029D00053CF8F5F9ACF1D821E821F8218868AEB8B
:1029E00098E70E942A0E60918828888D0E942C0EFC
:1029F000F4CD10E000E040CF712C3ECF43E0E41670
:102A0000F10409F401C154E0E516F10409F04DCFD9
:102A100080E599E70E941C0E89EA9BE70E941C0E44
:102A200083E699E70E941C0E8FE999E70E941C0E2D
:102A30008BED99E70E941C0E84E19AE70E941C0E20
:102A400089E49AE70E941C0E8CE79AE70E941C0E0C
:102A500089EB9AE70E941C0E85EF9AE70E941C0EF4
:102A600083E39BE70E941C0E85E79BE70E941C0EF8
:102A700088EA9BE70E941C0E18CF0130110531F047
:102A80000630110599F18BE19CE7F4CF89899A8989
:102A9000AB89BC89009761E0A607B10508F005CFB6
:102AA0009C01225331092139314070F420912228B0
:102AB000309123282530310519F02730310589F46C
:102AC00080938B2890938C288CEE9BE70E942A0E93
:102AD0000E94E809BC0190E080E04AE00E94AE0D4F
:102AE00016C08093202890932128EECF89899A8957
:102AF0008430910541F08530910561F0039769F4C8
:102B000082E090E002C081E090E00E947C0A86EFC3
:102B10009BE709C083E090E0F8CF8DEF9BE70E9430
:102B20001C0E83E19CE70E942A0EBFCE03301105E4
:102B300061F180F40130110539F20230110509F01C
:102B4000A2CF83E49CE70E942A0E6091992870919D
:102B50009A28C1CF0530110561F110F10630110539
:102B600009F091CF86E59CE70E942A0E0E94410A57
:102B70008230910509F442C083309105D1F101976B
:102B800009F03FC08AE69CE736C089E29CE70E94D4
:102B90002A0E0E94BC00815191400E94EC0DB7CFDB
:102BA0008CE39CE70E942A0E8091692990916A2902
:102BB000F2CF8FE49CE70E942A0E80912228909108
:102BC000232860E48230910549F08330910519F0A3
:102BD00060E0019719F460918A28605870E090E0F5
:102BE00080E04AE00E94AE0D86EF9BE70E942A0E2D
:102BF000B9CF80E69CE70E942A0E89CF88E79CE740
:102C0000FACF82E89CE7F7CF0530110509F03BCFFA
:102C100080919E288F5F80939E288AE89CE72ACF28
:102C20008AE599E20E949D0D80917429811110C05E
:102C3000DD24D39480915929811104C00E94940508
:102C4000811189C010925729109259291092582940
:102C500080917429882309F4D0C082E09DE70E9406
:102C60001C0E0E9494058BE699E20E947C0561E0AF
:102C700084E40E9448050E940E0168EE73E080E043
:102C800090E00E945A060E9494058BE699E20E9409
:102C90007C0560E08EEB0E9448058E010F5F1F4FA0
:102CA00048E0E42EF12CD12CCC24C3940E94E605FC
:102CB0008111DC28CC0C21E0E21AF108B9F7F80107
:102CC000D1928F012E893F892E173F0749F7198529
:102CD00068E0CE0101960E948A06181721F086E16D
:102CE0009DE70E941C0E69817A8180917329882357
:102CF00009F4DFC033E0660F771F3A95E1F7888566
:102D0000803141F42F818CE090E0821B9109607F3B
:102D1000680F791F072E000C880B990B0E94BC19B5
:102D200020E030E040E85DE30E94201A0E94841910
:102D30006F5E7E4F6093692970936A298091A12804
:102D40009091A228803D974009F4C1C04092A128EB
:102D50005092A228F3CF60E080EF0E94480501E086
:102D6000E12CC12C11E00E94E605F82E0E94E60538
:102D700091E0F91247C0813009F063C0113408F4C2
:102D800061CFC0925729C11002C0D09259298091B9
:102D90004F29882309F456CFEFE4F9E20BE619E254
:102DA000D80181918D9329E2E735F207D1F781E9C6
:102DB0009CE70E942A0E60E287EA98E20E943702AE
:102DC000F80161918F0170E090E080E040E10E94A5
:102DD000AE0DF9E203371F0771F767E08BE699E262
:102DE0000E948A0690917229891709F440C087E9E8
:102DF0009CE70E941C0E1092742988E29DE70E94B5
:102E00001C0E9CCFEE2DF0E0F81211C080915729D6
:102E10001817A8F4DF01A45BB64D13968C9180239C
:102E200081F4F12C193010F410935829C12EE45B71
:102E3000F64D8381902F9095892383830BC0811356
:102E4000F0CFEE2DF0E0E45BF64D8381802B8383A1
:102E5000FF24F3948F2D0E940B051F5F000F11F4C8
:102E6000E39401E0E7E0EE1508F07DCF87CF86EB35
:102E700098E70E94A10D80916B298232A1F08832DF
:102E800059F0803199F489EA9CE70E941C0ED09297
:102E90007329D0927429CECE8AEB9CE70E941C0E37
:102EA00010927329F6CF8BEC9CE7F8CF8BED9CE763
:102EB000A0CF8D81807611F4687F2CCF803211F401
:102EC0006C7F28CF803409F025CF6E7F23CF8AE036
:102ED00090E0809322289093232834C08091A128E9
:102EE0009091A228892B19F48BE090E0F2CF84E036
:102EF0000E943604811126C08DE090E0EACF8AE579
:102F000099E20E94990D8091A1289091A228803D7C
:102F1000974029F04092A1285092A228F4CF8CE04B
:102F200090E0D7CF8091A1289091A228892B29F4F5
:102F3000109222281092232805C084E00E943604B3
:102F40008823B1F30E94AA02F0CA8091A12890912F
:102F5000A228803D974029F04092A1285092A228B3
:102F6000F4CF6EE070E060932228709323281092D3
:102F7000472988E39DE70E94040D81E08093A02803
:102F800080939F28DFCF8091A1289091A228892B40
:102F9000C9F68FE090E09DCF70E060E08EE599E2A9
:102FA0000E941D010E94410A10924729823091051A
:102FB00051F08330910551F0019759F48DE39DE76D
:102FC0000E94040DBFCF82E49DE7FACF87E49DE71E
:102FD000F7CF8CE49DE7F4CF10929E28E0909C28D8
:102FE000F0909D28009122281091232820912028DC
:102FF0003091212840919B286091992870919A28BE
:103000008AE599E20E94580E00912028109121280B
:1030100082E090E089839A83612FCE0101960E941D
:10302000190A83E090E089839A83602FCE0101968C
:103030000E94190A0E94A008409197285091982850
:1030400080919B289FE0949F9001959F300D1124C3
:10305000820F932F911D80939728909398288091A9
:1030600097289091982824E0969587952A95E1F7DE
:1030700080939728909398282091972830919828AA
:1030800080919528909196282817390761F18091B1
:1030900094288F3F29F0809194288F5F8093942803
:1030A00080919428883010F580919B288436F1F027
:1030B00080919228909193288536910538F08091DF
:1030C000922890919328803D974080F0809191289C
:1030D000882371F00E94920885E090E08093222876
:1030E0009093232805C010929428DACF0E9492086A
:1030F000809192289091932889389341C8F010923A
:103100008D2810928E2810928F281092902887E098
:1031100090E0809322289093232881E08093A02838
:10312000809120289091212880938B2890938C283F
:10313000809197289091982880939528909396282D
:1031400001CF0E94CE0960918A288AE599E20E9407
:103150006C0D83E090E0BDCE0E94CE09F3CE80914D
:103160009C2890919D2880919E28882339F0109268
:103170009E282092222830922328E4CE84E00E94C8
:1031800036048823A1F3DECEE0909C28F0909D28A1
:103190000091222810912328209120283091212865
:1031A00040919B286091992870919A288AE599E22C
:1031B0000E94580EC7CE81E08093A028E0909C2802
:1031C000F0909D28009122281091232820912028FA
:1031D0003091212840919B286091992870919A28DC
:1031E0008AE599E20E94580E80912028909121282A
:1031F00080938B2890938C2880912028909121286F
:103200008536910530F084E690E0809320289093F5
:10321000212826E030E0209322283093232892CEE4
:10322000E0909C28F0909D2800912228109123285E
:10323000209120283091212840919B286091992845
:1032400070919A288AE599E20E94580E0E94A0087F
:1032500084E00E943604811107C0809192289091E9
:103260009328883E934050F080919128882309F458
:1032700069CE0E94920887E090E02BCE80918B2847
:1032800090918C2880932028909321281092A02838
:103290004FCE0E94CE090E94600D109220281092FD
:1032A000212810929B2888E090E013CE0E94600DA8
:1032B00084E00E943604811145CE8091922890913D
:1032C0009328883E934008F03DCE10922228109219
:1032D000232880918B2890918C288093202890938C
:1032E00021280E9492081092A0282CCEFB01DC011C
:1032F0004150504030F08D910590801919F4002014
:10330000B9F7881B990B08950E948B196894B11125
:103310000C941A1A08950E94FF1988F09F5798F08C
:10332000B92F9927B751B0F0E1F0660F771F881FCA
:10333000991F1AF0BA95C9F714C0B13091F00E94E4
:10334000191AB1E008950C94191A672F782F88275D
:10335000B85F39F0B93FCCF3869577956795B3950B
:10336000D9F73EF490958095709561957F4F8F4F7A
:103370009F4F0895E89409C097FB3EF4909580957F
:10338000709561957F4F8F4F9F4F9923A9F0F92F2B
:1033900096E9BB279395F695879577956795B795A9
:1033A000F111F8CFFAF4BB0F11F460FF1BC06F5F8F
:1033B0007F4F8F4F9F4F16C0882311F096E911C0A1
:1033C000772321F09EE8872F762F05C0662371F0C2
:1033D00096E8862F70E060E02AF09A95660F771FD6
:1033E000881FDAF7880F9695879597F9089557FD06
:1033F0009058440F551F59F05F3F71F04795880F63
:1034000097FB991F61F09F3F79F0879508951216F9
:1034100013061406551FF2CF4695F1DF08C01616A5
:1034200017061806991FF1CF869571056105089456
:103430000895E894BB2766277727CB0197F908956D
:103440000E94331A0C94F11A0E94E31A38F00E9479
:10345000EA1A20F0952311F00C94B11A0C94E01A9A
:1034600011240C941A1A0E94F71970F3959FC1F356
:10347000950F50E0551F629FF001729FBB27F00D22
:10348000B11D639FAA27F00DB11DAA1F649F662777
:10349000B00DA11D661F829F2227B00DA11D621FC6
:1034A000739FB00DA11D621F839FA00D611D221F80
:1034B000749F3327A00D611D231F849F600D211D64
:1034C000822F762F6A2F11249F5750409AF0F1F0E7
:1034D00088234AF0EE0FFF1FBB1F661F771F881F50
:1034E00091505040A9F79E3F510580F00C94B11ABD
:1034F0000C941A1A5F3FE4F3983ED4F386957795BF
:103500006795B795F795E7959F5FC1F7FE2B880FF5
:10351000911D9695879597F908950E94FF19E8F0F7
:103520009E37E8F09639B8F49E3848F4672F782F24
:103530008827985FF9CF8695779567959395953904
:10354000D0F3B62FB1706B0F711D811D20F48795DC
:103550007795679593950C94B71A0C94D21A0C949E
:103560001A1A97F99F6780E870E060E00895882351
:1035700071F4772321F09850872B762F07C06623AC
:1035800011F499270DC09051862B70E060E02AF06D
:103590009A95660F771F881FDAF7880F969587959B
:1035A00097F908959F3F31F0915020F487957795D2
:1035B0006795B795880F911D9695879597F908950A
:1035C0009FEF80EC089500240A941616170618063B
:1035D0000906089500240A94121613061406050617
:1035E0000895092E0394000C11F4882352F0BB0FA8
:1035F00040F4BF2B11F460FF04C06F5F7F4F8F4F0B
:103600009F4F0895991B79E004C0991F961708F001
:10361000961B881F7A95C9F78095089597FB072E0A
:1036200016F4009407D077FD09D00E94921B07FC86
:1036300005D03EF4909581959F4F089570956195C2
:103640007F4F0895A1E21A2EAA1BBB1BFD010DC0DE
:10365000AA1FBB1FEE1FFF1FA217B307E407F50742
:1036600020F0A21BB30BE40BF50B661F771F881F1E
:10367000991F1A9469F760957095809590959B01B4
:10368000AC01BD01CF010895052E97FB1EF40094F7
:103690000E945B1B57FD07D00E94221B07FC03D032
:1036A0004EF40C945B1B50954095309521953F4FFF
:1036B0004F4F5F4F089590958095709561957F4F1E
:1036C0008F4F9F4F0895EE0FFF1F0590F491E02D4F
:1036D0000994A29FB001B39FC001A39F700D811DEB
:1036E0001124911DB29F700D811D1124911D08950B
:1036F0000E94691BB7FF0895821B930B08950E94D7
:10370000691BA59F900DB49F900DA49F800D911DE6
:1037100011240895B7FF0C947F1B0E947F1B821B0E
:10372000930B0895AA1BBB1B51E107C0AA1FBB1F27
:10373000A617B70710F0A61BB70B881F991F5A953D
:10374000A9F780959095BC01CD010895F894FFCF1D
:103750000000000000000000000000000005010162
:103760000101010100000000000000000000000055
:10377000000000000000020300000102030405062F
:103780000700010203040500010203040506070007
:1037900001020304050607000102030001020304FD
:1037A0000506000003000000000000000000080003
:1037B0000000000000000000000063000040000066
:1037C00000000000000000000000000000000000F9
:1037D00000777C395E79713576061E753837545C12
:1037E000737B506D781C3E7E766E1B0000000108D6
:1037F000005F7C585E797135740416753837545CF7
:103800007367506D781C3E2A766E1B3F065B4F66D1
:103810006D7D077F6F777C395E797100000000371E
:1038200002370164018802950173018701CF01C449
:1038300001FB09B103AB01DB020000000000000046
:10384000000101010101010202020202020202035F
:10385000030303030303030404040405050505052A
:103860000505010204081020408001020408102010
:10387000010204081020408001020408102040804A
:103880000102040801020408102040000000001D8D
:10389000013201040A000000009D0D990D1C011C5D
:1038A00001580E6C0D5A0D452D302000626F6F745B
:1038B0000046315F37000D0A002053796E7461783D
:1038C000206572726F72206E6561723A22005B4EE3
:1038D0004557204C494E455D005B52455455524E6C
:1038E0005D00456C656B746F7220536F6C6465721C
:1038F000696E6773746174696F6E20465720312E4C
:10390000340020206F6E20486172647761726520F8
:103910003139303430392020202020202020202030
:103920002000427566666572206F766572666C6F00
:103930007700270027206E6F74207265636F676EB3
:10394000697A6564206173206B6579776F726400B2
:10395000537570706F7274656420636F6D6D616E06
:103960006473007365742F67657420736574706F7A
:10397000696E74205B7878785D202D3E20546869EC
:10398000732077696C6C20736574206F7220676593
:10399000742074686520736574706F696E74007349
:1039A00065742F6765742069726F6E747970652015
:1039B0005B7878785D202D3E2054686973207769A4
:1039C0006C6C20736574206F722067657420746856
:1039D000652069726F6E7479706500202020202048
:1039E000202020202020202020202020205752543A
:1039F000203D2057656C6C657220525420546970CC
:103A0000202820313256202F2054797065204B20F9
:103A100029202000202020202020202020202020BD
:103A2000202020202020484B4F203D2048414B4B58
:103A30004F20546970202820323456202F2054798A
:103A400070652043202920200020202020202020D5
:103A500020202020202020202020204A4243203DDA
:103A6000204A424320546970202820323456202FA7
:103A70002054797065204B20292020006765742030
:103A800074656D70657261747572652020202020E8
:103A90002020202D3E20546869732077696C6C20AB
:103AA0007265706F727420746865206375727265D8
:103AB0006E742074656D702E00676574206F6E6380
:103AC00068697074656D70202020202020202020DF
:103AD0002D3E20546869732077696C6C2072657084
:103AE0006F727420746865206F6E636869702074EB
:103AF000656D702E00676574206F6E6577697265FD
:103B000074656D702020202020202020202D3E2054
:103B1000546869732077696C6C207265706F727479
:103B200020746865206F6E65776972652074656DB5
:103B3000702E00636C656172206572726F72202056
:103B4000202020202020202020202D3E20496620DB
:103B5000616E206572726F722069732073686F776F
:103B60006E20746869732077696C6C20636C656182
:103B7000722069740068656C70202020202020204D
:103B80002020202020202020202020202D3E2054D6
:103B90006869732077696C6C2073686F772074682C
:103BA00069732068656C70002D2D2D2D2D2D2D2D08
:103BB0002D2D2D2D2D2D2D2D2D2D2D2D2D2D2D2D35
:103BC0002D2D2D2D2D2D2D2D2D2D2D2D2D2D2D2D25
:103BD0002D2D2D2D2D2D2D2D2D2D2D2D2D2D2D2D15
:103BE0002D2D2D2D2D2D2D2D2D2D2D00536574704A
:103BF0006F696E743A000A0D4F4B0A0D004B6579E0
:103C0000776F7264206E6F7420737570706F72744A
:103C10006564000A0D4552520A0D004E6F74207300
:103C20007570706F72746564004F6E4368697020C0
:103C300054656D706572617475723A00312D576903
:103C400072652054656D706572617475723A0045D5
:103C500072726F723A0049726F6E747970653A00D1
:103C600057656C6C65722052540048414B4B4B4F6A
:103C700020465838383031004A42432054323435D7
:103C80004100554E4B4E4F574E004F4B000D0A3ED4
:103C900000524F4D203D00435243206973206E6F08
:103CA000742076616C69642100202043686970206B
:103CB0003D2044533138533230002020436869702E
:103CC000203D20445331384232300020204368697F
:103CD00070203D20445331383232004465766963A8
:103CE00065206973206E6F742061204453313878E9
:103CF00032302066616D696C792064657669636530
:103D00002E0052656164204F6E657769726520539D
:103D1000656E736F72004F6E65576972652043520E
:103D200043204572726F72004E6F2053656E736F41
:103D30007220666F756E6400434F4E46003020431C
:103D400031003020433200302043330030204338EC
:013D50000072
:103D5100FF00000000000000000000000000000063
:103D61000000000000000000000000000000000052
:043D71003200090013
:00000001FF
