:100000000C947C000C94A4000C94A4000C94A40008
:100010000C94A4000C94A4000C94A4000C94A400D0
:100020000C94A4000C94A4000C94A4000C94A400C0
:100030000C94A4000C94A4000C94A4000C94A400B0
:100040000C94A4000C940C0C0C94E60B0C94A400DF
:100050000C94A4000C94A4000C94A4000C94A40090
:100060000C94A4000C94BE0B0C94A4000C94A4005B
:100070000C94A4000C94A4000C94A4000C94A40070
:100080000C94A4000C94A4000C94A4000C94A40060
:100090000C943A0C0C94A4000C94A4000C94A400AE
:1000A00057525400484B4F004A4243004F464600C7
:1000B0004F4E0069726F6E74797065006572726F71
:1000C0007200616D6269656E7474656D700074654F
:1000D0006D706572617475726500736574706F69B7
:1000E0006E7400636C6561720068656C70006765B2
:1000F000740073657400900C11241FBECFEFCDBF48
:10010000DFE3DEBF18E2A0E0B8E2E1E8F0E302C01E
:1001100005900D92A432B107D9F729E2A4E2B8E222
:1001200001C01D92A735B207E1F710E0CCE7D0E09F
:1001300004C02197FE010E94BE15CB37D107C9F735
:100140000E94E80C0C94ED150C94000000000000D7
:100150000000000083EF90E00197F1F70895E0912F
:1001600002067091030660910506509106064091C3
:10017000A0003091A10080E18093A00082E08093F4
:10018000A10084E48093020680910306806480933A
:10019000030688E1809305068EE18093060681E0E0
:1001A0008093080680910B0680FFFCCF8FB7F894F0
:1001B00090911006209111068FBFE0930206709374
:1001C000030660930506509306064093A000309303
:1001D000A10080912111A0912011322F292F281BDD
:1001E000310987FD3395B0E00E94C415DC01CB01D5
:1001F00080589F4FAF4FBF4F892F9A2FAB2FBB27F0
:100200000895CF93DF930E94AF00D82FC92F80911C
:100210005229909153298130910509F46DC00297BC
:1002200009F0E2C088E030E020E061E010920606CC
:100230006093080690910B0690FFFCCF5FB7F8948F
:1002400090911006409111065FBF542F492F240F43
:10025000351F815059F783E0369527958A95E1F748
:10026000ACECB0E10E94C4152FEF33E040E050E069
:100270000E949F15213D67E0360708F0B8C0B9011C
:100280006E507640623C714008F051C02E503640AE
:1002900041095109AAEAB0E00E94DA1522EC31E0E6
:1002A00040E050E00E949F1524533E4F4F4F5F4F58
:1002B0008D2F9C2F893E910510F489EE90E08039B6
:1002C00041E0940710F08FE891E08B529140821743
:1002D000930709F48FC0273E63E0360710F4281B0C
:1002E000390B2093502930935129809150299091B6
:1002F0005129DF91CF91089588E030E020E091E02E
:10030000909306069093080640910B0640FFFCCFA1
:100310006FB7F89450911006409111066FBF4527B2
:1003200054274527240F351F815051F794CFB90129
:10033000655773406E39724098F425573340410930
:100340005109AAEAB0E00E94DA1523EA32E040E05F
:1003500050E00E949F152E5D3E4F4F4F5F4FA8CF3C
:10036000B9016D5C7109683A724098F42D5C3109ED
:1003700041095109ADEBB0E00E94DA1528EA32E0FC
:1003800040E050E00E949F152C593F4F4F4F5F4F68
:100390008FCFB9016A5371096339710598F42A53F3
:1003A000310941095109A1E3B0E00E94DA1523E9BE
:1003B00030E040E050E00E949F152E5C3F4F4F4FD1
:1003C0005F4F76CF2A33310590F4A8E1B0E00E9468
:1003D000DA152AE330E040E050E00E949F15275EE6
:1003E0003F4F4F4F5F4F64CF27EE33E061CF27EE93
:1003F00033E077CF109250291092512976CFCF93C6
:10040000DF9390E0FC01EB59F34920812F3F71F01D
:10041000FC01E45CF349A08130E2A39FD0011124E8
:10042000BC5F6130710529F411962C93DF91CF9157
:1004300008958D5E9349EC01E881EF3F89F0CD018D
:100440004096E80FF92FF11D9FB7F89412962C9360
:1004500080816230710539F4886080839FBFE6CF68
:10046000F0E0E0E0F1CF877FF8CF893210F40C9410
:10047000FF01089590E0FC01E651F449E081EE238C
:1004800019F1E13021F000F1E630A8F008958D5E19
:100490009349FC012081233008F02F5F3091010A3D
:1004A00081E090E001C0880F2A95EAF780958323C8
:1004B0008093010A089580E1E89FF0011124E05A39
:1004C000F54F81818F7E81830895FF920F931F9353
:1004D000CF93DF93082F10E0F801EB59F349F08038
:1004E0009FEFF916A1F0EB01893210F40E943A0255
:1004F000F801E45CF349E08180E2E89FF001112417
:10050000FC5F80818F2159F0CD2B39F4F682DF9189
:10051000CF911F910F91FF900895F582F8CFD801E8
:10052000AD5EB3498C91309771F08F3F61F070965A
:10053000E80FF11D9FB7F8948081CD2B39F4877FA8
:1005400080839FBFE4CFF0E0E0E0F4CF8860F8CF95
:100550000F931F93CF93082F10E0F801EB59F34945
:10056000C081CF3FB9F0893210F40E943A02F801FD
:10057000E45CF349E08180E2E89FF0011124FC5F34
:100580008085C82381E090E009F480E0CF911F913D
:100590000F91089580E090E0F9CF893210F40C9427
:1005A00065020895CF93DF93C2E4D9E270E060E082
:1005B0008E810E94CD0270E060E08F810E94CD02AA
:1005C00061E070E08E810E94CD0261E070E08F8179
:1005D000DF91CF910C94CD020F931F93CF93DF93B4
:1005E000D82FC8E070E060E0809148290E94CD02D9
:1005F0000D2F0D2E000C110B61E070E0D0FD02C03C
:1006000070E060E0809149290E94CD021595079520
:10061000D02F61E070E0809148290E94CD02C15046
:1006200009F770E060E0809148290E94CD0261E006
:1006300070E0809149290E94CD0261E070E08091D4
:1006400048290E94CD0270E060E0809149290E9413
:1006500035020E94A60080914929D0E0C0E089328D
:1006600018F40E94A802EC01C1110CC061E070E016
:10067000809149290E94350270E060E0809149290B
:100680000E94CD020E94A60061E070E0809149299D
:100690000E9435020E94A600CE019927DF91CF91DA
:1006A0001F910F910895CF93DF93C2E4D9E261E0E7
:1006B00070E08E810E94CD0261E070E08F810E9427
:1006C000CD0270E060E08F810E94CD0270E060E0BA
:1006D0008E81DF91CF910C94CD02CF93DF93D82FF1
:1006E000E62F6F37D9F1603140F50E2E000CFF0B6D
:1006F000E751F349808190914529C0E09111C0E80C
:10070000C80F0E94530384E40E94EC020E94D202AC
:100710000E9453038D2F806C0E94EC028C2F0E944C
:10072000EC020E94D2020E945303809144290E944D
:10073000EC02DF91CF910C94D20280ED860F8A30CB
:1007400030F40E2E000CFF0BE754F349D3CFE052E8
:10075000EB3520F4F0E0E257F349CCCF80E0CBCF8B
:10076000CF92DF92EF92FF920F931F938FB7F8947F
:100770002091A1283091A2284091A3285091A4282B
:10078000E091AA0AF091AB0A9091A60A90FF08C0E6
:100790002F5F3F4F4F4F5F4FE091AA0AF091AB0A96
:1007A0008FBFA8EEB3E00E94DA158B019C01CF0148
:1007B00064E170E00E94551568017901C60ED71EEC
:1007C000E11CF11CC701B6011F910F91FF90EF9042
:1007D000DF90CF9008958F929F92AF92BF92CF9269
:1007E000DF92EF92FF924B015C010E94B0036B011C
:1007F0007C01A8EEB3E0A50194010E94DA15C60EB3
:10080000D71EE81EF91EC616D706E806F90618F424
:100810000E94B003F8CF0E94B0036C157D058E05D1
:100820009F05C8F3FF90EF90DF90CF90BF90AF90FF
:100830009F908F900895089508956115710539F47A
:10084000DC01ED91FC910280F381E02D09946115AA
:10085000B8E07B0710F06FEF77E06093380A709391
:10086000390A08951092380A1092390A0895AF9201
:10087000BF92CF92DF92EF92FF920F931F93CF938D
:10088000DF936C017B018B01040F151FEB015E01EF
:10089000AE18BF08C017D10759F06991D601ED9184
:1008A000FC910190F081E02DC6010995892B79F723
:1008B000C501DF91CF911F910F91FF90EF90DF90D5
:1008C000CF90BF90AF900895FC01508D418D252FA2
:1008D00030E0842F90E0821B930B541710F0CF96DA
:1008E000089501970895FC0196898789981761F00A
:1008F000A789AE0FBF2FB11D5D968C9197899F5F21
:100900009F73978B90E008958FEF9FEF0895FC0100
:1009100096898789981731F08789E80FF11D858DB1
:1009200090E008958FEF9FEF0895FC019689278945
:10093000892F90E0805C9F4F821B91098F739927CC
:10094000089585EA98E20E94950421E0892B09F434
:1009500020E0822F0895CF93DF93EC01E881F981A5
:100960000680F781E02D0995EC85FD8586818F73E2
:100970008683EC85FD8585818F7585838F898E8B38
:100980001D8ADF91CF910895AF92BF92CF92DF92EF
:10099000EF92FF920F931F93CF93DF93EC016A01C5
:1009A0007B01A22E8D89882339F0E881F9810688A0
:1009B000F789E02DCE0109950C8910E0BFB6F894B7
:1009C00060E078E689E899E0A70196010E947D152C
:1009D00069017A018FEFC81AD80AE80AF80AF69472
:1009E000E794D794C794EC85FD8586818D7F8683B7
:1009F000EC85FD85868186831D8AA09125110A2EAE
:100A0000000CBB0BA70196010E94E51520E034E025
:100A100040E050E00E949F15EC85FD85C20ED31E7C
:100A2000E41EF51EC086D186EC85FD85A782EC8587
:100A3000FD858681806C8683EC85FD858581806857
:100A400085839091E2058B89809589239801220FF7
:100A5000331F020F131FC00FD11F9889892B80935A
:100A6000E20562E070E08E850E94350261E070E090
:100A70008F850E94CD0261E070E08F850E94350273
:100A8000BFBEDF91CF911F910F91FF90EF90DF904C
:100A9000CF90BF90AF900895FC01613019F4648B42
:100AA00081E00895148A6623D9F380E00895DC017B
:100AB00054961C92549754968C9154978230A0F47B
:100AC000282F30E0F901EE0FFF1FE20FF31FEA0FAE
:100AD000FB1F9785961303C09685941749F08F5F87
:100AE00054968C935497E7CF54961C9280E00895C7
:100AF00081E00895CF93DF93FC01908D818DC485B3
:100B0000D585981306C08D818F7D8D83DF91CF9120
:100B10000895A18DAE0FBF2FB11DA35ABF4F2C91C9
:100B2000818D90E001968F739927818F80E48C836B
:100B3000A485B58512962C93908D818D9813E6CF60
:100B4000A485B58515968C9115978F7D15968C93F8
:100B5000838D8823D9F2848D80931301138ED6CF91
:100B6000DC011C96ED91FC910FB607FE03C02581B8
:100B700025FD04C0248125FD0C947A050895EF928B
:100B8000FF920F931F93CF93DF93EC0181E08D8B46
:100B9000988D898D98131CC0AC85BD8514968C9159
:100BA000149785FF15C012966C93AC85BD8580E4C3
:100BB00014968C93EC85FD8585818F7D858381E0FE
:100BC00090E0DF91CF911F910F91FF90EF900895EA
:100BD0008091110180FF08C0809113018C8F8A8D54
:100BE0008093130181E08B8FF62E088D10E00F5F4C
:100BF0001F4F0F731127E02E898D8E1104C0CE0177
:100C00000E94B005F9CFE88DEC0FFD2FF11DE35ADE
:100C1000FF4FF082088FEC85FD8585818062CECF05
:100C2000CF93DF93FC0125892223C9F0EC01809149
:100C3000110180FF08C080911301848F828D809301
:100C4000130181E0838FEC85FD85858185FD03C0DF
:100C5000848186FD04C0CE010E94B005F4CFDF91EF
:100C6000CF91089580E090E0892B29F00E94A104A3
:100C700081110E94000080E090E0892B49F080E023
:100C800090E0892B29F00E94000081110E94000051
:100C900080E090E0892B49F080E090E0892B29F0FA
:100CA0000E94000081110E94000080E090E0892BEA
:100CB00049F080E090E0892B29F00E94000081112A
:100CC0000C940000089581E00895CF93DF93809104
:100CD0003C28833008F479C110923C2880913A284E
:100CE00090913B28019680933A2890933B288091DD
:100CF0009F289091A028892B49F080919F2890915E
:100D0000A028019780939F289093A028809138284D
:100D100090913928893E23E0920708F44AC1109245
:100D200038281092392880919C2890919D2801960E
:100D300080939C2890939D288091502990915129CF
:100D40008093992890939A288091362890913728FB
:100D50008835924011F581E08093912840912028B8
:100D600050912128209150293091512980919B2820
:100D7000E0912228F0912328E930F10508F017C10D
:100D8000EC53F94F0C94BE15E006BD07CB07BD0729
:100D9000C407E006E00630073007809136289091BE
:100DA00037288935924010F00000D8CF809136283E
:100DB0009091372801968093362890933728CECF8C
:100DC000882309F44AC0C901B0E0A0E070E060E007
:100DD000481B590B6A0B7B0B4630510561057105A9
:100DE000E4F140912F2850913028841B950BA109E4
:100DF000B10983309105A105B10550F580912E28E8
:100E00008F5F80932E2880912E28873070F081E0AC
:100E10008093892810922E2881E090E080932228E8
:100E2000909323288AE080932D28293582E0380783
:100E300060F083E08093892881E090E0809322280D
:100E4000909323288AE080932D2810922C2818C094
:100E5000873F9F4FAF4FBF4F8CF210922E28D3CFBA
:100E6000293542E0340760F083E08093892881E0EF
:100E700090E080932228909323288AE080932D2865
:100E800020932F2830933028809134289091352852
:100E90008A30910508F493C01092342810923528B6
:100EA00084E00E94A802892B09F093C080919228C7
:100EB00090919328019649F08091922890919328DF
:100EC00001968093922890939328C0913328CC0F59
:100ED000CF70C093332886E00E94A802892B19F0B6
:100EE000C160C093332880918C2881112AC08091E1
:100EF0003328833031F5C0913128D091322885E0F4
:100F00000E94A802892B09F082C0CA30D105A8F03E
:100F10008091202890912128C233D10508F05EC02D
:100F20008D3B914008F066C0809120289091212847
:100F300005968093202890932128109231281092B2
:100F4000322880913128909132288F3F980729F0DC
:100F50000196809331289093322880912028909197
:100F60002128C29708F07DC082E390E0809320287A
:100F700090932128DF91CF91089580912D28882387
:100F800009F47ECF81507ACF80912D28882341F0BB
:100F9000815080932D28109222281092232855CF1B
:100FA00010922E281092222810922328F4CF0000AD
:100FB00067CF0196809338289093392865CF0196A2
:100FC00080933428909335286BCF8F5F80933C2893
:100FD00067CF109292281092932877CFCA3FD105FD
:100FE00060F4803C914030F4809120289091212839
:100FF00002969FCF82EC91E09CCF823C914008F01A
:101000009CCF8091202890912128019692CFCA30C0
:10101000D10508F492CF8091202890912128C233E5
:10102000D10540F4C89788F080912028909121281C
:1010300005977FCFCA3FD10558F4C59730F080910E
:10104000202890912128029774CF82E390E071CFFD
:10105000C39708F472CF809120289091212801979E
:1010600068CF8091202890912128833C914008F4FA
:1010700081CF82EC91E07ACF809136289091372809
:10108000892B29F01092362810923728F5CF10922C
:1010900091280895CF92DF92EF92FF9220912A2813
:1010A00030912B2880913A2890913B288217930702
:1010B00078F480913A2890913B280197821B930BFA
:1010C000C29758F40000FF90EF90DF90CF90089502
:1010D00080913A2890913B28F1CF80913A289091C5
:1010E0003B2880932A2890932B28F89481E08093C2
:1010F000292878941092380A1092390A6AE070E030
:1011000080E090E00E94EB030E94010120912028E2
:10111000309121288217930708F070C0A0912028F1
:10112000B0912128A81BB90BA330B1050CF051C018
:1011300080918D2890918E28A0918F28B091902831
:101140000596A11DB11D80938D2890938E28A093A4
:101150008F28B093902880918D2890918E28A0910F
:101160008F28B091902881309840A105B10564F096
:1011700080E098E0A0E0B0E080938D2890938E28E6
:10118000A0938F28B0939028C0908D28D0908E285F
:10119000E0908F28F0909028A4E6B0E0A701960197
:1011A0000E94DA1520E038E040E050E00E949F15F0
:1011B00020939B28B60121E0C21628E0D20610F049
:1011C00060E078E08EE499E20E941D0410922928E4
:1011D0007ACF20912028309121280E94D31526E033
:1011E00030E040E050E00E949F1520938D2830931E
:1011F0008E2840938F2850939028ADCF209120289F
:10120000309121282817390708F0BECF20912028D7
:1012100030912128821B930B0397DCF010928D28CC
:1012200010928E2810928F281092902880918D28ED
:1012300090918E28A0918F28B0919028B7FFA4CFCD
:1012400010928D2810928E2810928F28109290283C
:101250009BCFC0908D28D0908E28E0908F28F09062
:1012600090281C141D041E041F0404F787E0C816F0
:10127000D104E104F104B4F1C701B60129EF3FEF55
:101280004FEF5FEF0E949F15C20ED31EE41EF51EA6
:10129000C0928D28D0928E28E0928F28F0929028CC
:1012A000C701B60127E030E040E050E00E949F1502
:1012B00064307105810591050CF4B8CF1C141D0430
:1012C0001E041F040CF0B2CF21E0C21AD108E108BD
:1012D000F108C0928D28D0928E28E0928F28F0924B
:1012E0009028A4CF81E0C81AD108E108F108F1CF15
:1012F000F89481E08093292810928D2810928E28EE
:1013000010928F281092902810922928789408958E
:1013100080912228909123288230910559F08330C2
:10132000910521F0019711F080E0089580918928BE
:101330008058089580E40895809122289091232870
:101340008530910511F0079729F480918A289091B2
:101350008B28089580912028909121280895DC0100
:10136000ED91FC910488F589E02D23E030E00994AB
:101370008091380A9091390A08954F925F926F9246
:101380007F92AF92BF92CF92DF92EF92FF920F9334
:101390001F93CF93DF932B013C019F770E94891409
:1013A0008B01F12CE12C9AE0C92ED12CC091462959
:1013B000D0914729AA24A394B12C20E030E0A901C0
:1013C000C301B2010E94841487FD02C0B12CA12C7C
:1013D000CE018A199B09E816F906C4F4CE19DF0973
:1013E00021976FE70115110529F0C801B6010E9488
:1013F0006915682F8C2F0E946D03C801B6010E94E9
:1014000069158B018FEFE81AF80AD0CF20E030E0A1
:10141000A901C301B2010E94841487FF04C06DE2D8
:1014200080E00E946D0310924529DF91CF911F91BA
:101430000F91FF90EF90DF90CF90BF90AF907F9093
:101440006F905F904F9008950F931F93CF93DF930A
:101450008C01EB01809141289091422882179307DB
:10146000F9F0209341283093422880ED97E0F8016D
:101470008283938380E48093422980EC8093432984
:101480008FE880934429B90190E080E00E94BF1466
:1014900060933D2870933E2880933F289093402886
:1014A000F80182819381892BB1F4BE0190E080E044
:1014B0000E94BF1460933D2870933E2880933F287C
:1014C0009093402880E48093422980EC80934329C4
:1014D0008AE88093442960913D2870913E2880914C
:1014E0003F2890914028DF91CF911F910F910C944C
:1014F000BD09E0E0F6E082818F7C8283A0EAB0E063
:101500008C918F788C938281806182830895EF9291
:10151000FF920F931F93CF93DF937C0110E000E0C5
:10152000E70109900020E9F72197CE19DF098091A2
:101530004629909147290C171D0758F508171907D8
:10154000F4F064EF71E080E090E00E94EB03D0E003
:10155000C0E09E0180914629909147292196281745
:101560003907A4F4F801EC0FFD1FE81BF90BEE0D91
:10157000FF1D60818C2F81500E946D03EACFF7011F
:10158000E00FF11F6081802F0E946D030F5F1F4FDE
:10159000C7CF8091462990914729C817D90734F4BD
:1015A0006FE78C2F0E946D032196F3CFDF91CF91CF
:1015B0001F910F91FF90EF90089581E390E70C94B5
:1015C000870A0E94780960919C2870919D288AE47E
:1015D00099E20E94DD0A0C940101CF93DF93CDB70D
:1015E000DEB72597CDBFDEBF862F95E0E3E3FDE6AE
:1015F000DE01119601900D929A95E1F720E3260FF6
:101600006A3058F42C83CE0101960E94870A2596F1
:10161000CDBFDEBFDF91CF9108956AE00E944915EA
:1016200090E3980F9B8396EF899F200D1124EACFBA
:1016300088E39DE60C94870AFC0101900020E9F7FD
:101640003197AF01481B590BBC0185EA98E20C9415
:1016500037048F929F92AF92BF920F931F93CF93B5
:10166000DF93CDB7DEB7A197CDBFDEBF19A2423061
:1016700008F44AE08E010F5D1F4F842E912CB12C8F
:10168000A12CA50194010E947D15E62FB901CA0184
:10169000EA30DCF4E05DD801EE938D01232B242B9E
:1016A000252B79F790E080E0109719F0CD010E948A
:1016B0001C0BA196CDBFDEBFDF91CF911F910F9183
:1016C000BF90AF909F908F900895E95CE4CF0C9409
:1016D0001C0BCF93DF930E941C0BEC018DE39DE666
:1016E0000E941C0B8C0F9D1FDF91CF9108950F93CB
:1016F0001F93CF93DF93C82FD62F80E49DE60E94DF
:10170000670B0C2F10E0095B174DCD17A0F4F80103
:1017100061918F0185E59DE66A3021F06D3031F4ED
:1017200080E69DE60E94670BCF5FEFCF85EA98E2E7
:101730000E94BF05F9CF83E59DE6DF91CF911F9110
:101740000F910C94690B0C946814FF920F931F93E4
:10175000CF93DF93EC01F62E08811981C8010E9416
:101760006814F81621F06F2DC8010E947014CE0184
:10177000DF91CF911F910F91FF9008951F920F92CB
:101780000FB60F9211248F939F93AF93BF938091C5
:10179000A1289091A228A091A328B091A4280196F5
:1017A000A11DB11D8093A1289093A228A093A328E6
:1017B000B093A42881E08093A60ABF91AF919F9136
:1017C0008F910F900FBE0F901F9018951F920F9240
:1017D0000FB60F9211242F933F934F935F936F9304
:1017E0007F938F939F93AF93BF93EF93FF9385EA7C
:1017F00098E20E947A05FF91EF91BF91AF919F917E
:101800008F917F916F915F914F913F912F910F90A9
:101810000FBE0F901F9018951F920F920FB60F9248
:1018200011242F938F939F93EF93FF93E091B1280F
:10183000F091B228818181FD1BC090818091BB28ED
:101840008F5F8F732091BC28821741F0E091BB28F5
:10185000F0E0EB55F74D958F8093BB28FF91EF910A
:101860009F918F912F910F900FBE0F901F90189501
:101870008081F4CF1F920F920FB60F9211242F93F5
:101880003F934F935F936F937F938F939F93AF9308
:10189000BF93EF93FF938091252890912628A091E4
:1018A0002728B09128280196A11DB11D80932528D5
:1018B00090932628A0932728B093282881E080932E
:1018C000B60AE0914528F0914628309709F009952D
:1018D000809124288330A0F48F5F80932428FF9187
:1018E000EF91BF91AF919F918F917F916F915F9198
:1018F0004F913F912F910F900FBE0F901F90189511
:1019000010922428E0914328F0914428309739F32D
:1019100082819381009719F3019782839383DFCFAC
:10192000CF93DF93E5EAF8E21282138288EE93E028
:10193000A0E0B0E084839583A683B7838DEF9CE617
:101940008083918380E098E08487958781E0868713
:101950001786108A95E0918B94E0928B838B148A82
:10196000158A168A178A108E118E82E1828F138E45
:10197000148EC2E4D9E284E090E08C839D8383E0FE
:101980008E8382E08F8361E070E083E00E94FF013C
:1019900061E070E08F810E943502CAE4D9E285E2FD
:1019A0009DE6888399831A821B828BE19DE68C8356
:1019B0009D8387EE93E08E839F8382E090E088870B
:1019C00099870E94790A1B861C86DF91CF91089522
:1019D000CF93DF93CDB7DEB72C97CDBFDEBF88EDB9
:1019E00090E084BF909361008091020686608093AE
:1019F0000206809100068160809300060E94790AA9
:101A00001092E20582E08093E40581E08093030A6E
:101A10008EEF8093270A8093260A80E880932D0A10
:101A200080932B0A8093290A80932C0A80932A0A98
:101A30008093280A8BE08093000A87E08093E50575
:101A4000E0E8FAE037E02EEF90E885E03183248784
:101A5000958780837096E03C4AE0F407B9F71092CE
:101A6000A10A8FE19EE48093AC0A9093AD0A809125
:101A7000A50A81608093A50A1092A00A8091A00A0D
:101A800081608093A00A789482E090E00E94A30B8A
:101A9000082F10E0102F002783E090E00E94A30B96
:101AA000082B9801225331092139314010F002E30B
:101AB00010E0009320281093212870E060E08FE070
:101AC0000E94FF0161E070E08FE00E94650270E01B
:101AD00060E080E10E94FF0161E070E080E10E942F
:101AE000650270E060E081E10E94FF0161E070E06A
:101AF00081E10E94650270E060E082E10E94FF01E6
:101B000061E070E082E10E94650270E060E083E1E4
:101B10000E94FF0161E070E083E10E94650270E0D5
:101B200060E089E10E94FF0161E070E089E10E94CC
:101B3000650270E060E08AE10E94FF0161E070E010
:101B40008AE10E94650270E060E08BE10E94FF0183
:101B500061E070E08BE10E94650270E060E08CE182
:101B60000E94FF0161E070E08CE10E94650270E07C
:101B700060E08DE10E94FF0161E070E08DE10E9474
:101B8000650270E060E087E20E94FF0161E070E0C2
:101B900087E20E94650270E060E084E20E94FF013B
:101BA00061E070E084E20E94650270E060E085E23E
:101BB0000E94FF0161E070E085E20E94650270E032
:101BC00060E08FE10E94FF0161E070E08FE10E9420
:101BD000650270E060E080E20E94FF0161E070E079
:101BE00080E20E94650270E060E081E20E94FF01F5
:101BF00061E070E081E20E94650270E060E082E2F4
:101C00000E94FF0161E070E082E20E94650270E0E4
:101C100060E083E20E94FF0161E070E083E20E94E5
:101C2000650270E060E080E00E94FF0161E070E02A
:101C300080E00E94650270E060E081E00E94FF01A8
:101C400061E070E081E00E94650261E070E08EE09A
:101C50000E94FF0170E060E08EE00E94650261E09A
:101C600070E08EE10E94FF0170E060E08EE10E9472
:101C7000650270E060E088E10E94FF0170E060E0D2
:101C800088E10E94650270E060E086E10E94FF0149
:101C900070E060E086E10E94650270E060E087E14C
:101CA0000E94FF0170E060E087E10E94650270E041
:101CB00060E082E00E94FF0170E060E082E00E944C
:101CC000650270E060E083E00E94FF0170E060E088
:101CD00082E00E94650270E060E084E00E94FF0103
:101CE00061E070E084E00E94650270E060E085E001
:101CF0000E94FF0161E070E085E00E94650270E0F3
:101D000060E086E00E94FF0161E070E086E00E94F2
:101D1000650270E060E087E00E94FF0161E070E032
:101D200087E00E94650261E070E083E00E94FF01AD
:101D300061E070E082E00E94FF016FE780E00E94B6
:101D40006D036FE781E00E946D036FE782E00E9400
:101D50006D036FE783E00E946D0380E48093422966
:101D600080EC809343298AE88093442960E070EEF8
:101D70008AE096E40E94BD09A7E0EA2EF12CE982F0
:101D8000FA8263E0CE0101960E94A50B08E010E004
:101D900009831A836CEFCE0101960E94A50B82E0A5
:101DA00090E0809352299093532970E060E08EE197
:101DB0000E946502E982FA8263E0CE0101960E94E8
:101DC000A50B09831A836CEFCE0101960E94A50B27
:101DD000F8941092B10A87E893E18093BC0A90933B
:101DE000BD0A8091B50A81608093B50A1092B00A4D
:101DF0008091B00A81608093B00A85E696E0809376
:101E00004528909346288AE499E28093432890934A
:101E1000442891E0909341041092000A82E080935C
:101E2000E4051092030A1092010A8091090A8E7F3C
:101E30008093090A83E18093010A20E038E020932F
:101E4000360A3093370A1092380A1092390A909362
:101E5000000A789440E052EC61E070E085EA98E294
:101E60000E94AF0910928C280E943C081092380AF8
:101E70001092390A89E090E08093222890932328D9
:101E8000B7E82B2EB8E23B2E12E0412E512C612CEC
:101E9000712C80918828811113C089E69DE60E94EB
:101EA000690B89E89DE60E94690B83EF9FE60E941B
:101EB000690B8FE790E70E94670B81E08093882889
:101EC00085EA98E20E949504181619060CF042C0A3
:101ED00085EA98E20E947304182F8D3009F062C0E1
:101EE00080918728803408F066C0E82FF0E0E95B35
:101EF000F74D10838F5F809387281D3011F01A30C3
:101F0000F9F684E490E70E94670B80918728882384
:101F1000B9F21D821E821F821886E7E4F8E2F12CD6
:101F2000813408F44FC089EA9DE60E94690BE7E41A
:101F3000F8E211922E163F06E1F7E7E4F8E211927B
:101F40002E163F06E1F7109287288DE790E70E9452
:101F5000670BB6CFE0912228F0912328ED30F105F0
:101F600008F0C3C2EA54F04F0C94BE15A7125C13DC
:101F700067136A137D139413C513FE130B14C30F59
:101F800078128112961280ED97E020919F2830916F
:101F9000A028203D374009F4A2C280939F28909347
:101FA000A028F3CF8A3009F49BCF682F85EA98E206
:101FB0000E94BF0595CF60E4609387289ECFFA2CDE
:101FC0008A15E1F1DF01A754B8426D019191AA246D
:101FD000A394AF0C903221F09A3011F09D3079F734
:101FE0000F2D10E0A80162EF70E087E498E20E94F4
:101FF0005A14892B09F4D2C0A8016EEE70E087E470
:1020000098E20E945A14892B09F4CCC0A80169EE09
:1020100070E087E498E20E945A14892B09F4C6C044
:10202000A80163EE70E087E498E20E945A14892BBD
:1020300009F4C0C06F2D80E00E94770BF12CE12CD9
:1020400090918728A91608F01DC4F601E95BF74DA9
:1020500080818A3009F400C48D3009F4FDC30A2D53
:1020600010E0F801E95BF74D9A2C9F0127543842A4
:102070002B873C87819131E0390D3A87803229F0F6
:102080008A3019F08D3009F099C0C92CCA18D12CAA
:10209000095B174DA6016AED70E0C8010E945A1451
:1020A000892B09F48FC0A6016EEC70E0C8010E9474
:1020B0005A14892B09F489C0A60162EC70E0C801AA
:1020C0000E945A14892B09F483C0A6016CEB70E0BE
:1020D000C8010E945A14892B09F47DC0A60163EB44
:1020E00070E0C8010E945A1405E010E0892B31F01D
:1020F000692D8A2D0E94770B10E000E060918728FF
:102100004A85461708F072C0EB85FC85E95BF74D00
:1021100080818A3009F46AC08D3009F467C0F80103
:10212000EE0FFF1FE252F44980819181892B29F43F
:10213000842F0E94770B10E000E0F801EE0FFF1FE4
:10214000E252F44920813181C9010797029708F4CE
:102150007EC0DA84812C912C540180918728D81676
:1021600008F044C0ED2DF0E0E95BF74DE08180ED33
:102170008E0F8A3098F5AAE0B0E0A50194010E9484
:10218000DA15AE2FA053BB0B4D01BB0FAA08BB083D
:10219000860E971EA81EB91ED394DFCFF2E0EF2E55
:1021A000F12C4ECFEE24E394F12C4ACF74E0E72ECD
:1021B000F12C46CF63E0E62EF12C42CF9A849911A0
:1021C00054CF9ACF01E010E099CF02E010E096CF13
:1021D00003E010E093CF04E010E090CFEA3011F07C
:1021E000ED3001F58D829E82AF82B886B2E0EB16AB
:1021F000F10409F4E5C008F0A6C0EA94EF2809F05C
:102200009CCE0330110509F425C108F00AC1013044
:10221000110509F4F7C00230110509F412C187E471
:1022200090E7C9C0EF51E03608F4B6CF1D821E8298
:102230001F82188680E49DE60E94670B6D2D8A85BB
:102240000E94770B10E000E0F12CE12CA5CF40912B
:102250008728BA858B2F90E0FC01E95BF74D6F0171
:10226000ED83FE834F01582F6A85561B5B878417C9
:1022700008F05FC091919A3019F09D3009F057C075
:102280002730310509F4B2CF7B85A72EB12CA501EB
:1022900060EB70E0C6010E945A14892B49F481E07A
:1022A00090E0A0E0B0E08D839E83AF83B8879ECF9F
:1022B000A5016CEA70E0C6010E945A14892B29F42A
:1022C0004D825E826F82788691CFA50168EA70E0C8
:1022D000C6010E945A14892B99F3A50164EA70E0A3
:1022E000C6010E945A14892B59F3A50160EA70E0D7
:1022F000C6010E945A14892B19F389EB9DE60E94AE
:10230000670BD12C9B859D1549F0D4016D914D0132
:1023100085EA98E20E94BF05D394F4CF8BEB9DE64B
:102320000E94690B1D821E821F8218865FCF8F5FFD
:102330009ACF81E49DE60E94670B609187288A8589
:102340000E94770BFACD23E0E216F10409F4BBC03A
:1023500034E0E316F10409F0F0CD87ED9DE60E942C
:10236000690B83EF9FE60E94690B8AEE9DE60E944F
:10237000690B86E29EE60E94690B82E69EE60E9459
:10238000690B8BE99EE60E94690B80ED9EE60E9438
:10239000690B83E09FE60E94690B80E49FE60E9440
:1023A000690B8DE79FE60E94690B8FEB9FE60E9409
:1023B000690B82EF9FE60E94690BBFCD10E000E041
:1023C0000130110509F02BCF8D819E81AF81B88539
:1023D000009741E0A407B10508F0AFCD9C0122535E
:1023E00031092139314070F420912228309123287D
:1023F0002530310519F02730310571F480938A2892
:1024000090938B2886E390E70E94670B0E949C09BB
:10241000BC0190E080E03BC080932028909321286D
:10242000F1CF04301105D9F10530110509F0F7CECF
:1024300080E790E70E94670B0E948809682F70E090
:10244000E8CF8DE590E70E94670B60919928709125
:102450009A28DFCF85E590E70E94670B0E94AF00C6
:10246000815191406C01990FEE08FF084AE0C701C5
:10247000B601F7FE0DC06DE285EA98E20E94BF0545
:1024800066277727CB016C197D098E099F094AE0E1
:102490000E94290B80E490E70E94670B4ECD89E6ED
:1024A00090E70E94670B0E948809682F70E090E017
:1024B00080E04AE00E94290B80E490E70E94670BCD
:1024C000B7CF10E000E00430110509F0A8CE8091EC
:1024D0009E288F5F80939E288AE790E76CCF8AE0E2
:1024E00090E080932228909323280E943206D1CC3A
:1024F00080919F289091A028892B19F58BE090E07E
:10250000F0CF8AE499E20E94180B80ED97E02091C9
:102510009F283091A028203D374029F080939F28A4
:102520009093A028F4CF8CE090E0DBCF80919F289F
:102530009091A028892B29F4109222281092232808
:10254000D4CF84E00E94A802892BB1F3CECF1092A1
:102550009E28E0909C28F0909D28009122281091C0
:102560002328209120283091212840919B28609198
:10257000992870919A288AE499E20E94240A00918D
:1025800020281091212882E090E089839A83612F8E
:10259000CE0101960E94A50B83E090E089839A8387
:1025A000602FCE0101960E94A50B0E944A0840911F
:1025B00097285091982880919B289FE0949F9001A4
:1025C000959F300D1124820F932F911D8093972892
:1025D00090939828809197289091982824E0969538
:1025E00087952A95E1F780939728909398282091D2
:1025F00097283091982880919528909196282817AF
:10260000390761F1809194288F3F29F080919428B7
:102610008F5F8093942880919428883010F5809162
:102620009B288436F1F080919228909193288536EA
:10263000910538F08091922890919328803D9740A1
:1026400080F080919128882371F00E943C0885E0F9
:1026500090E0809322289093232805C0109294281C
:10266000DACF0E943C088091922890919328893873
:102670009341C8F010928D2810928E2810928F28C6
:102680001092902887E090E080932228909323284E
:1026900081E080938C28809120289091212880933C
:1026A0008A2890938B2880919728909198288093DE
:1026B00095289093962819CF0E94780960918928CF
:1026C0008AE499E20E94ED0A83E090E00ACF0E943A
:1026D00078090BCF80919C2890919D2880919E280D
:1026E000882329F010929E2884E090E0FACE84E0BE
:1026F0000E94A802892BB1F3F8CEE0909C28F090BC
:102700009D28009122281091232820912028309183
:10271000212840919B286091992870919A288AE4F9
:1027200099E20E94240AE1CE81E080938C28E09017
:102730009C28F0909D280091222810912328209118
:1027400020283091212840919B28609199287091F0
:102750009A288AE499E20E94240A80912028909184
:10276000212880938A2890938B288091202890910B
:1027700021288536910530F084E690E0809320286A
:102780009093212886E090E0ACCEE0909C28F090D9
:102790009D280091222810912328209120283091F3
:1027A000212840919B286091992870919A288AE469
:1027B00099E20E94240A0E944A0884E00E94A8022A
:1027C000892B39F48091922890919328883E9340E8
:1027D00050F080919128882309F487CE0E943C080C
:1027E00087E090E07ECE80918A2890918B2880931C
:1027F00020289093212810928C289ECE0E94780940
:102800000E94E10A109220281092212810929B2801
:1028100088E090E066CE0E94E10A84E00E94A8026F
:10282000892B09F062CE8091922890919328883E5E
:10283000934008F05ACE10922228109223288091BB
:102840008A2890918B2880932028909321280E9499
:102850003C0810928C2849CE22E0E216F10409F4DB
:10286000ADCD28F4EA94EF2809F4D9CC66CB53E037
:10287000E516F10409F425CE64E0E616F10409F446
:102880006CCD5BCB72E0E716F10409F497CD38F418
:1028900010E000E0EA94EF2809F4B3CC4ECBA3E0BB
:1028A000EA16F10409F4BBCCB4E0EB16F10409F428
:1028B00054CD43CBFB01DC014150504030F08D91B1
:1028C0000590801919F40020B9F7881B990B089519
:1028D00003D0808199270895FC01E050FC4E0895B3
:1028E000262FAF93BF93E0E0F0E1328131FDFDCFC1
:1028F000DC01A050BC4E2C932DE924BF23E02083A3
:102900000196BF91AF9108950E94FC1408F481E0F4
:1029100008950E9490146894B1110C944315089581
:102920000E94281588F09F5798F0B92F9927B75122
:10293000B0F0E1F0660F771F881F991F1AF0BA9563
:10294000C9F714C0B13091F00E944215B1E008956A
:102950000C944215672F782F8827B85F39F0B93F5C
:10296000CCF3869577956795B395D9F73EF4909516
:102970008095709561957F4F8F4F9F4F0895E89494
:1029800009C097FB3EF490958095709561957F4FB7
:102990008F4F9F4F9923A9F0F92F96E9BB27939565
:1029A000F695879577956795B795F111F8CFFAF475
:1029B000BB0F11F460FF1BC06F5F7F4F8F4F9F4FA6
:1029C00016C0882311F096E911C0772321F09EE804
:1029D000872F762F05C0662371F096E8862F70E06A
:1029E00060E02AF09A95660F771F881FDAF7880F44
:1029F0009695879597F90895990F0008550FAA0B9A
:102A0000E0E8FEEF16161706E807F907C0F0121601
:102A10001306E407F50798F0621B730B840B950B04
:102A200039F40A2661F0232B242B252B21F4089559
:102A30000A2609F4A140A6958FEF811D811D0895F6
:102A400057FD9058440F551F59F05F3F71F047955F
:102A5000880F97FB991F61F09F3F79F08795089544
:102A6000121613061406551FF2CF4695F1DF08C063
:102A7000161617061806991FF1CF86957105610580
:102A800008940895E894BB2766277727CB0197F928
:102A90000895991B79E004C0991F961708F0961BBA
:102AA000881F7A95C9F780950895AA1BBB1B51E131
:102AB00007C0AA1FBB1FA617B70710F0A61BB70BAE
:102AC000881F991F5A95A9F780959095BC01CD0153
:102AD000089597FB072E16F4009407D077FD09D0D0
:102AE0000E94551507FC05D03EF4909581959F4FA7
:102AF0000895709561957F4F0895A1E21A2EAA1B43
:102B0000BB1BFD010DC0AA1FBB1FEE1FFF1FA2179D
:102B1000B307E407F50720F0A21BB30BE40BF50B9A
:102B2000661F771F881F991F1A9469F76095709523
:102B3000809590959B01AC01BD01CF010895052EB4
:102B400097FB1EF400940E94B61557FD07D00E9413
:102B50007D1507FC03D04EF40C94B61550954095A6
:102B6000309521953F4F4F4F5F4F08959095809539
:102B7000709561957F4F8F4F9F4F0895EE0FFF1F08
:102B80000590F491E02D0994A29FB001B39FC0017C
:102B9000A39F700D811D1124911DB29F700D811D89
:102BA0001124911D08950E94C415B7FF0895821B3A
:102BB000930B08950E94C415A59F900DB49F900D8E
:102BC000A49F800D911D11240895B7FF0C94DA1570
:0E2BD0000E94DA15821B930B0895F894FFCF34
:102BDE0000000300000000000000080000000000DC
:102BEE0000000000000000000005010101010101CC
:102BFE0000000000000000000000000000000000C7
:102C0E000000020300000102030405060700010292
:102C1E000304050001020304050607000102030474
:102C2E000506070001020300010203040506000069
:102C3E000000000000000101010101010202020278
:102C4E000202020203030303030303030404040446
:102C5E000505050505050501020408102040800143
:102C6E000204081020010204081020408001020412
:102C7E0008102040800102040801020408102040C0
:102C8E000000000000000000000063000040000093
:102C9E000000000000000000000000000000000026
:102CAE0000777C395E79713576061E753837545C3F
:102CBE00737B506D781C3E7E766E1B000000010803
:102CCE00005F7C585E797135740416753837545C24
:102CDE007367506D781C3E2A766E1B3F065B4F66FF
:102CEE006D7D077F6F777C395E797100000000BFC4
:102CFE000537046404100695047304870457054CC5
:102D0E0005AF09C404AB046306000000001D0432C5
:102D1E0004B809000000001C04180B1B041B04243B
:102D2E000AED0ADD0A452D302000426F6F74000D4A
:102D3E000A002053796E746178206572726F72206A
:102D4E006E6561723A22005B4E4557204C494E45E6
:102D5E005D005B52455455524E5D00456C656B747B
:102D6E006F7220536F6C646572696E6773746174F1
:102D7E00696F6E20465720312E340020206F6E2052
:102D8E004861726477617265203139303430392090
:102D9E0020202020202020202020004275666665FD
:102DAE0072206F766572666C6F7700270027206E33
:102DBE006F74207265636F676E697A6564206173E4
:102DCE00206B6579776F726400537570706F7274D3
:102DDE00656420636F6D6D616E6473007365742F2F
:102DEE0067657420736574706F696E74205B787894
:102DFE00785D202D3E20546869732077696C6C20B5
:102E0E00736574206F722067657420746865207313
:102E1E006574706F696E74007365742F67657420C6
:102E2E0069726F6E74797065205B7878785D202D8D
:102E3E003E20546869732077696C6C20736574202A
:102E4E006F7220676574207468652069726F6E7486
:102E5E007970650020202020202020202020202096
:102E6E00202020202020575254203D2057656C6C86
:102E7E006572205254205469702028203132562019
:102E8E002F2054797065204B2029202000202020EF
:102E9E0020202020202020202020202020202048FC
:102EAE004B4F203D2048414B4B4F205469702028FA
:102EBE0020323456202F205479706520432029204B
:102ECE002000202020202020202020202020202014
:102EDE00202020204A4243203D204A42432054696C
:102EEE0070202820323456202F2054797065204BC4
:102EFE0020292020006765742074656D70657261ED
:102F0E007475726520202020202020202D3E205414
:102F1E006869732077696C6C207265706F727420AB
:102F2E007468652063757272656E742074656D7059
:102F3E002E0067657420616D6269656E7474656DCF
:102F4E007020202020202020202D3E2054686973E0
:102F5E002077696C6C207265706F7274207468656E
:102F6E0020616D6269656E742074656D702E0063EC
:102F7E006C656172206572726F7220202020202095
:102F8E002020202020202D3E20496620616E2065C5
:102F9E0072726F722069732073686F776E20746817
:102FAE0069732077696C6C20636C6561722069743B
:102FBE000068656C702020202020202020202020FA
:102FCE0020202020202020202D3E205468697320B0
:102FDE0077696C6C2073686F7720746869732068EA
:102FEE00656C70002D2D2D2D2D2D2D2D2D2D2D2D76
:102FFE002D2D2D2D2D2D2D2D2D2D2D2D2D2D2D2DF3
:10300E002D2D2D2D2D2D2D2D2D2D2D2D2D2D2D2DE2
:10301E002D2D2D2D2D2D2D2D2D2D2D2D2D2D2D2DD2
:10302E002D2D2D2D2D2D2D00536574706F696E7401
:10303E003A000A0D4F4B0A0D004E6F7420737570D7
:10304E00706F7274656400416D6269656E742054B0
:10305E00656D706572617475723A004572726F7249
:10306E003A0049726F6E747970653A004F4B000DDD
:03307E000A3E0007
:10308100FF00000000000000000000000000000040
:10309100000000000000000000000000000000002F
:0430A10032000900F0
:00000001FF
