:100000000C9492000C94BA000C94BA000C94BA00B0
:100010000C94BA000C94BA000C94BA000C94BA0078
:100020000C94BA000C94BA000C94BA000C94BA0068
:100030000C94BA000C94BA000C94BA000C94BA0058
:100040000C94BA000C945D0F0C94370F0C94BA000A
:100050000C94BA000C94BA000C94BA000C94BA0038
:100060000C94BA000C940F0F0C94BA000C94BA00C4
:100070000C94BA000C94BA000C94BA000C94BA0018
:100080000C94BA000C94BA000C94BA000C94BA0008
:100090000C948B0F0C94BA000C94BA000C94BA0018
:1000A000005EBCE2613FDD83C29C7E20A3FD1F4158
:1000B000009D23BE46DB65F88C11AF32CA57E97448
:1000C00057525400484B4F004A4243004F464600A7
:1000D0004F4E0069726F6E74797065006572726F51
:1000E00072006F6E657769726574656D70006F6E12
:1000F0006368697074656D700074656D70657261B8
:100100007475726500736574706F696E7400636CEA
:100110006561720068656C70006765740073657472
:100120000000E10F11241FBECFEFCDBFDFE3DEBF24
:1001300018E2A0E0B8E2EBE3FDE302C005900D9207
:10014000A432B107D9F729E2A4E2B8E201C01D92B6
:10015000A737B207E1F710E0C2E9D0E004C0219769
:10016000FE010E946C1BC139D107C9F70E945210D1
:100170000C949B1B0C940000E09102067091030606
:1001800060910506509106064091A0003091A100B3
:1001900080E18093A00082E08093A10084E48093BA
:1001A00002068091030680648093030688E18093B1
:1001B00005068EE18093060681E080930806809113
:1001C0000B0680FFFCCF8FB7F8949091100620911A
:1001D00011068FBFE0930206709303066093050635
:1001E000509306064093A0003093A1008091211106
:1001F000A0912011322F292F281B310987FD33951B
:10020000B0E00E94721BDC01CB0180589F4FAF4FC2
:10021000BF4F892F9A2FAB2FBB270895EBE4F9E24C
:10022000138615861486128611861086178216820A
:100230001582148213820895CF93DF9390E0FC011E
:10024000E45BF74820812F3F71F0FC01ED5DF7483A
:10025000A08130E2A39FD0011124BC5F6130710501
:1002600029F411962C93DF91CF9108958F589848D7
:10027000EC01E881EF3F89F0CD014096E80FF92FBE
:10028000F11D9FB7F89412962C938081623071050E
:1002900039F4886080839FBFE6CFF0E0E0E0F1CFE3
:1002A000877FF8CF893210F40C941C01089590E0F8
:1002B000FC01E85BF848E081EE2319F1E13021F020
:1002C00000F1E630A8F008958F589848FC0120818D
:1002D000233008F02F5F3091010A81E090E001C0E7
:1002E000880F2A95EAF7809583238093010A089561
:1002F00080E1E89FF0011124E05AF54F81818F7E63
:1003000081830895FF920F931F93CF93DF93082F5C
:1003100010E0F801E45BF748F0809FEFF916A1F0D8
:10032000EB01893210F40E945701F801ED5DF748A6
:10033000E08180E2E89FF0011124FC5F80818F2141
:1003400059F0CD2B39F4F682DF91CF911F910F91A7
:10035000FF900895F582F8CFD801AF58B8488C9136
:10036000309771F08F3F61F07096E80FF11D9FB7E5
:10037000F8948081CD2B39F4877F80839FBFE4CFB1
:10038000F0E0E0E0F4CF8860F8CF893210F40C940C
:1003900082010895CF93DF93C3E4D9E270E060E077
:1003A0008E810E94C50170E060E08F810E94C501CE
:1003B00061E070E08E810E94C50161E070E08F8194
:1003C000DF91CF910C94C501CF93DF93C3E4D9E2C1
:1003D00061E070E08E810E94C50161E070E08F8174
:1003E0000E94C50170E060E08F810E94C50170E04D
:1003F00060E08E81DF91CF910C94C5010F931F9324
:10040000CF93082F10E0F801E45BF748C081CF3F9D
:10041000B9F0893210F40E945701F801ED5DF748F8
:10042000E08180E2E89FF0011124FC5F8085C82311
:1004300081E090E009F480E0CF911F910F91089541
:1004400080E090E0F9CF00000000000000009C0177
:1004500027503109880F991F880F991F820F931F0A
:100460000197F1F708950F931F93CF93DF93D82F40
:10047000C8E070E060E0809149290E94C5010D2F1D
:100480000D2E000C110B61E070E0D0FD02C070E099
:1004900060E080914A290E94C50115950795D02FEB
:1004A00061E070E0809149290E94C501C15009F7BF
:1004B00070E060E0809149290E94C50161E070E030
:1004C00080914A290E94C50161E070E0809149292C
:1004D0000E94C50170E060E080914A290E945201AB
:1004E00082E390E00E94230280914A29D0E0C0E09C
:1004F000893218F40E94FE01EC01C1110CC061E0C8
:1005000070E080914A290E94520170E060E0809181
:100510004A290E94C50182E390E00E94230261E023
:1005200070E080914A290E94520182E390E00E948B
:100530002302CE019927DF91CF911F910F9108954A
:10054000CF93DF93D82FE62F6F37D9F1603140F585
:100550000E2E000CFF0BEB50F8488081909146293D
:10056000C0E09111C0E8C80F0E94E40184E40E9439
:1005700033020E94CA010E94E4018D2F806C0E9408
:1005800033028C2F0E9433020E94CA010E94E401B0
:10059000809145290E943302DF91CF910C94CA01CA
:1005A00080ED860F8A3030F40E2E000CFF0BEB53DB
:1005B000F848D3CFE052EB3520F4F0E0E656F848A7
:1005C000CCCF80E0CBCF0F931F93CF93C0914B291B
:1005D000E0914C29F0914D299C2F90958F0104506A
:1005E0001109389780FF18C0F894D8018C9189239D
:1005F0008C9380818C2B80838AE090E00E94230280
:10060000F8018081C82BC083789487E390E0CF9174
:100610001F910F910C942302F894D8018C91892397
:100620008C9380818C2B808381E490E00E94230254
:10063000F8018081C82BC083789485E090E0E7CFF3
:10064000FF920F931F93CF93DF93F82E062FC8E0EE
:10065000D0E011E081E09F2D912309F480E00E9419
:10066000E302110F2197B1F7011118C0F894E0913E
:100670004C29F0914D293897908180914B29809594
:1006800089238083E0914C29F0914D293497908102
:1006900080914B298095892380837894DF91CF9135
:1006A0001F910F91FF9008950F931F93CF93DF93A6
:1006B0008C0160E085E50E942003E801085F1F4F80
:1006C00060E089910E942003C017D107C9F7DF912C
:1006D000CF911F910F910895DF92EF92FF920F93A8
:1006E0001F93CF93DF93C0914B29E0904C29F0905A
:1006F0004D29F894870108501109F8018081DC2FF9
:10070000D0958D23808378948DE7D82EDA94DD20E0
:1007100099F182E090E00E942302F70180818C230E
:10072000A9F3F894349780818D238083F801808128
:100730008C2B8083789480EE91E00E942302F894C1
:10074000F80180818D23808386E490E00E9423025B
:10075000F7018081C82311E009F010E078948AE95C
:1007600091E00E942302812FDF91CF911F910F9181
:10077000FF90EF90DF90089510E0F5CFEF92FF9299
:100780000F931F93CF93DF93C0914B29E0904C2997
:10079000F0904D29F894870108501109F8018081E3
:1007A0008C2B808334968081DC2FD0958D238083A1
:1007B00083E090E00E942302F80180818D238083F2
:1007C0008AE090E00E942302F701D081789485E3CB
:1007D00090E00E942302CD2381E009F480E0DF91C4
:1007E000CF911F910F91FF90EF900895CF92DF92DC
:1007F000EF92FF920F931F938FB7F8942091A22846
:100800003091A3284091A4285091A528E091AA0AEC
:10081000F091AB0A9091A60A90FF08C02F5F3F4F5E
:100820004F4F5F4FE091AA0AF091AB0A8FBFA8EE3D
:10083000B3E00E94881B8B019C01CF0164E170E052
:100840000E94031B68017901C60ED71EE11CF11C32
:10085000C701B6011F910F91FF90EF90DF90CF90ED
:1008600008958F929F92AF92BF92CF92DF92EF92B4
:10087000FF924B015C010E94F6036B017C01A8EE24
:10088000B3E0A50194010E94881BC60ED71EE81E86
:10089000F91EC616D706E806F90618F40E94F603F4
:1008A000F8CF0E94F6036C157D058E059F05C8F3F1
:1008B000FF90EF90DF90CF90BF90AF909F908F9080
:1008C000089508956115710539F4DC01ED91FC91ED
:1008D0000280F381E02D09946115B8E07B0710F0E8
:1008E0006FEF77E06093380A7093390A0895109299
:1008F000380A1092390A0895AF92BF92CF92DF92D0
:10090000EF92FF920F931F93CF93DF936C017B01C4
:100910008B01040F151FEB015E01AE18BF08C01755
:10092000D10759F06991D601ED91FC910190F081C8
:10093000E02DC6010995892B79F7C501DF91CF918B
:100940001F910F91FF90EF90DF90CF90BF90AF90ED
:100950000895FC01508D418D252F30E0842F90E0CB
:10096000821B930B541710F0CF96089501970895AA
:10097000FC0196898789981761F0A789AE0FBF2F70
:10098000B11D5D968C9197899F5F9F73978B90E0C7
:1009900008958FEF9FEF0895FC0196898789981736
:1009A00031F08789E80FF11D858D90E008958FEF74
:1009B0009FEF0895FC0196892789892F90E0805C3C
:1009C0009F4F821B91098F739927089586EA98E2B9
:1009D0000E94DA0421E0892B09F420E0822F089597
:1009E000CF93DF93EC01E881F9810680F781E02D58
:1009F0000995EC85FD8586818F738683EC85FD8561
:100A000085818F7585838F898E8B1D8ADF91CF912C
:100A10000895AF92BF92CF92DF92EF92FF920F9321
:100A20001F93CF93DF93EC016A017B01A22E8D8986
:100A3000882339F0E881F9810688F789E02DCE0115
:100A400009950C8910E0BFB6F89460E078E689E873
:100A500099E0A70196010E942B1B69017A018FEF93
:100A6000C81AD80AE80AF80AF694E794D794C79403
:100A7000EC85FD8586818D7F8683EC85FD8586816D
:100A800086831D8AA09125110A2E000CBB0BA7019D
:100A900096010E94931B20E034E040E050E00E9469
:100AA0004D1BEC85FD85C20ED31EE41EF51EC086CF
:100AB000D186EC85FD85A782EC85FD858681806CDD
:100AC0008683EC85FD858581806885839091E2052C
:100AD0008B89809589239801220F331F020F131FE2
:100AE000C00FD11F9889892B8093E20562E070E0E6
:100AF0008E850E94520161E070E08F850E94C501E1
:100B000061E070E08F850E945201BFBEDF91CF91FE
:100B10001F910F91FF90EF90DF90CF90BF90AF901B
:100B20000895FC01613019F4648B81E00895148A02
:100B30006623D9F380E00895DC0154961C92549703
:100B400054968C9154978230A0F4282F30E0F9010C
:100B5000EE0FFF1FE20FF31FEA0FFB1F978596139F
:100B600003C09685941749F08F5F54968C935497E1
:100B7000E7CF54961C9280E0089581E00895CF93CA
:100B8000DF93FC01908D818DC485D585981306C0B7
:100B90008D818F7D8D83DF91CF910895A18DAE0FD3
:100BA000BF2FB11DA35ABF4F2C91818D90E00196AC
:100BB0008F739927818F80E48C83A485B5851296E5
:100BC0002C93908D818D9813E6CFA485B5851596CD
:100BD0008C9115978F7D15968C93838D8823D9F2F0
:100BE000848D80931301138ED6CFDC011C96ED917A
:100BF000FC910FB607FE03C0258125FD04C02481AA
:100C000025FD0C94BF050895EF92FF920F931F935B
:100C1000CF93DF93EC0181E08D8B988D898D9813B4
:100C20001CC0AC85BD8514968C91149785FF15C0AA
:100C300012966C93AC85BD8580E414968C93EC85FC
:100C4000FD8585818F7D858381E090E0DF91CF9167
:100C50001F910F91FF90EF9008958091110180FFF7
:100C600008C0809113018C8F8A8D8093130181E0DD
:100C70008B8FF62E088D10E00F5F1F4F0F7311271B
:100C8000E02E898D8E1104C0CE010E94F505F9CFAA
:100C9000E88DEC0FFD2FF11DE35AFF4FF082088F16
:100CA000EC85FD8585818062CECFCF93DF93FC01FB
:100CB00025892223C9F0EC018091110180FF08C031
:100CC00080911301848F828D8093130181E0838F43
:100CD000EC85FD85858185FD03C0848186FD04C08A
:100CE000CE010E94F505F4CFDF91CF91089580E009
:100CF00090E0892B29F00E94E60481110E940000F7
:100D000080E090E0892B49F080E090E0892B29F089
:100D10000E94000081110E94000080E090E0892B79
:100D200049F080E090E0892B29F00E9400008111B9
:100D30000E94000080E090E0892B49F080E090E084
:100D4000892B29F00E94000081110C940000089565
:100D500081E00895DC0180E0615090F09D9198273A
:100D6000E92FEF70F0E0E056FF4F2491E92FE29574
:100D7000EF70F0E0E055FF4FE491822F8E27ECCF2B
:100D800008958F929F92AF92BF92CF92DF92EF928F
:100D9000FF920F931F93CF93DF93CDB7DEB72C97BE
:100DA000CDBFDEBF80916729882309F48EC0809172
:100DB0007329882309F489C080916329909164295B
:100DC000A0916529B0916629805F984DAF4FBF4FC4
:100DD0002FB7F8944091A2285091A3286091A4289D
:100DE0007091A5282FBF84179507A607B70708F0AD
:100DF0006CC00E946C038AE699E20E94540360E092
:100E00008EEB0E9420038E010F5F1F4F4E018AE080
:100E1000880E911C580198E0C92ED12CF12CEE249B
:100E2000E3940E94BE038111FE28EE0CE1E0CE1A8D
:100E3000D108B9F7F801F1928F018E169F0659F784
:100E4000198568E0C5010E94AA06181789F080E09C
:100E50002C96CDBFDEBFDF91CF911F910F91FF90F8
:100E6000EF90DF90CF90BF90AF909F908F900895BC
:100E700069817A8180917229882309F468C083E0AE
:100E8000660F771F8A95E1F78885803141F42F81BD
:100E90008CE090E0821B9109607F680F791F072E1C
:100EA000000C880B990B0E94DA1920E030E040E832
:100EB0005DE30E94621A0E94A2196F5E7E4F6093EA
:100EC000682970936929109267298091632990910C
:100ED0006429A0916529B0916629805E914BAF4F3E
:100EE000BF4F2FB7F8944091A2285091A32860914A
:100EF000A4287091A5282FBF84179507A607B707C8
:100F000008F0A5CF0E940E012FB7F8948091A22877
:100F10009091A328A091A428B091A5282FBF8093D9
:100F2000632990936429A0936529B09366290E9450
:100F30006C038AE699E20E94540361E084E40E9413
:100F400020030E940E0181E08093672981CF8D816B
:100F5000807611F4687FA3CF803211F46C7F9FCF2D
:100F6000803409F09CCF6E7F9ACFCF93DF930E949D
:100F7000C10680917329D0916829C0916929811196
:100F800004C00E94BC00D82FC92F80916129909184
:100F900062298130910509F46DC0029709F0E2C021
:100FA00088E030E020E061E01092060660930806D9
:100FB00090910B0690FFFCCF5FB7F89490911006CC
:100FC000409111065FBF542F492F240F351F8150C8
:100FD00059F783E0369527958A95E1F7A8E8B3E1BC
:100FE0000E94721B2FEF33E040E050E00E944D1B47
:100FF000213D67E0360708F0B8C0B9016E50764071
:10100000623C714008F051C02E50364041095109F0
:10101000AAEAB0E00E94881B22EC31E040E050E0F8
:101020000E944D1B24533E4F4F4F5F4F8D2F9C2FDF
:10103000893E910510F489EE90E0803941E09407F3
:1010400010F08FE891E08B5291408217930709F4DA
:101050008FC0273E63E0360710F4281B390B20931E
:101060005F293093602980915F2990916029DF91F9
:10107000CF91089588E030E020E091E0909306065B
:101080009093080640910B0640FFFCCF6FB7F89491
:1010900050911006409111066FBF452754274527F0
:1010A000240F351F815051F794CFB9016557734014
:1010B0006E39724098F42557334041095109AAEA24
:1010C000B0E00E94881B23EA32E040E050E00E943A
:1010D0004D1B2E5D3E4F4F4F5F4FA8CFB9016D5C4A
:1010E0007109683A724098F42D5C3109410951093F
:1010F000ADEBB0E00E94881B28EA32E040E050E00F
:101100000E944D1B2C593F4F4F4F5F4F8FCFB9015E
:101110006A5371096339710598F42A5331094109F9
:101120005109A1E3B0E00E94881B23E930E040E0D0
:1011300050E00E944D1B2E5C3F4F4F4F5F4F76CFCC
:101140002A33310590F4A8E1B0E00E94881B2AE31D
:1011500030E040E050E00E944D1B275E3F4F4F4F74
:101160005F4F64CF27EE33E061CF27EE33E077CFD8
:1011700010925F291092602976CF80913628909145
:101180003728892B29F01092362810923728F5CF6E
:10119000109290280895CF92DF92EF92FF922091C3
:1011A0002A2830912B2880913A2890913B28821749
:1011B000930778F480913A2890913B280197821BFD
:1011C000930BC29758F40000FF90EF90DF90CF9000
:1011D000089580913A2890913B28F1CF80913A2848
:1011E00090913B2880932A2890932B28F89481E0B3
:1011F0008093292878941092380A1092390A6AE06C
:1012000070E080E090E00E9431040E94B5072091D8
:101210002028309121288217930708F070C0A091F0
:101220002028B0912128A81BB90BA330B1050CF0E0
:1012300051C080918C2890918D28A0918E28B091DA
:101240008F280596A11DB11D80938C2890938D2821
:10125000A0938E28B0938F2880918C2890918D2810
:10126000A0918E28B0918F2881309840A105B105BA
:1012700064F080E098E0A0E0B0E080938C28909348
:101280008D28A0938E28B0938F28C0908C28D09062
:101290008D28E0908E28F0908F28A4E6B0E0A7017A
:1012A00096010E94881B20E038E040E050E00E9458
:1012B0004D1B20939A28B60121E0C21628E0D206E1
:1012C00010F060E078E08DE599E20E9462041092EF
:1012D00029287ACF20912028309121280E94811B33
:1012E00026E030E040E050E00E944D1B20938C2827
:1012F00030938D2840938E2850938F28ADCF209126
:101300002028309121282817390708F0BECF2091D6
:10131000202830912128821B930B0397DCF0109238
:101320008C2810928D2810928E2810928F288091F0
:101330008C2890918D28A0918E28B0918F28B7FF8E
:10134000A4CF10928C2810928D2810928E28109283
:101350008F289BCFC0908C28D0908D28E0908E282D
:10136000F0908F281C141D041E041F0404F787E04E
:10137000C816D104E104F104B4F1C701B60129EFA4
:101380003FEF4FEF5FEF0E944D1BC20ED31EE41ED6
:10139000F51EC0928C28D0928D28E0928E28F09273
:1013A0008F28C701B60127E030E040E050E00E94FE
:1013B0004D1B64307105810591050CF4B8CF1C14E8
:1013C0001D041E041F040CF0B2CF21E0C21AD10884
:1013D000E108F108C0928C28D0928D28E0928E28E6
:1013E000F0928F28A4CF81E0C81AD108E108F10853
:1013F000F1CFF89481E08093292810928C281092E4
:101400008D2810928E2810928F2810922928789477
:10141000089580912228909123288530910511F01C
:10142000079729F480918A2890918B2808958091BC
:101430002028909121280895DC01ED91FC910488E9
:10144000F589E02D23E030E009948091380A9091ED
:10145000390A0895E0E0F6E082818F7C8283A0EA79
:10146000B0E08C918F788C93828180618283089523
:101470004F925F926F927F92AF92BF92CF92DF9224
:10148000EF92FF920F931F93CF93DF932B013C01B9
:101490009F770E94A2198B01F12CE12C9AE0C92EB2
:1014A000D12CC0914729D0914829AA24A394B12CCA
:1014B00020E030E0A901C301B2010E949D1987FD1F
:1014C00002C0B12CA12CCE018A199B09E816F9069D
:1014D000C4F4CE19DF0921976FE70115110529F032
:1014E000C801B6010E94171B682F8C2F0E94A00212
:1014F000C801B6010E94171B8B018FEFE81AF80A8A
:10150000D0CF20E030E0A901C301B2010E949D19B3
:1015100087FF04C06DE280E00E94A002109246297D
:10152000DF91CF911F910F91FF90EF90DF90CF90BF
:10153000BF90AF907F906F905F904F9008950F9302
:101540001F93CF93DF938C01EB0180914128909101
:10155000422882179307F9F02093412830934228BC
:1015600080ED97E0F8018283938380E480934329A0
:1015700080EC809344298FE880934529B90190E05D
:1015800080E00E94D81960933D2870933E28809394
:101590003F2890934028F80182819381892BB1F4F0
:1015A000BE0190E080E00E94D81960933D287093BE
:1015B0003E2880933F289093402880E480934329DD
:1015C00080EC809344298AE88093452960913D28E6
:1015D00070913E2880913F2890914028DF91CF91D3
:1015E0001F910F910C94380AEF92FF920F931F9363
:1015F000CF93DF937C0110E000E0E7010990002029
:10160000E9F72197CE19DF09809147299091482960
:101610000C171D0758F508171907F4F064EF71E06F
:1016200080E090E00E943104D0E0C0E09E01809113
:10163000472990914829219628173907A4F4F801E1
:10164000EC0FFD1FE81BF90BEE0DFF1D60818C2FC9
:1016500081500E94A002EACFF701E00FF11F6081E4
:10166000802F0E94A0020F5F1F4FC7CF8091472994
:1016700090914829C817D90734F46FE78C2F0E943E
:10168000A0022196F3CFDF91CF911F910F91FF9090
:10169000EF90089581ED9BE70C94F40A0E94F909FC
:1016A00060919B2870919C2889E599E20E944A0BE1
:1016B0000C94B507CF93DF93CDB7DEB72597CDBF99
:1016C000DEBF862F95E0E1E9F8E7DE011196019093
:1016D0000D929A95E1F720E3260F6A3058F42C8397
:1016E000CE0101960E94F40A2596CDBFDEBFDF91A0
:1016F000CF9108956AE00E94F71A90E3980F9B83B8
:1017000096EF899F200D1124EACF86E998E70C9483
:10171000F40A8BE998E70C94F40AFC01019000208C
:10172000E9F73197AF01481B590BBC0186EA98E2F3
:101730000C947C048F929F92AF92BF920F931F9351
:10174000CF93DF93CDB7DEB7A197CDBFDEBF19A290
:10175000423008F44AE08E010F5D1F4F842E912C19
:10176000B12CA12CA50194010E942B1BE62FB901DD
:10177000CA01EA30DCF4E05DD801EE938D01232B41
:10178000242B252B79F790E080E0109719F0CD01FC
:101790000E948D0BA196CDBFDEBFDF91CF911F912F
:1017A0000F91BF90AF909F908F900895E95CE4CF28
:1017B000CF92DF92EF92FF92CF93DF936C01990F5C
:1017C000EE08FF08F7FE19C06DE286EA98E20E9473
:1017D0000406EC0166277727CB016C197D098E0979
:1017E0009F094AE00E949A0B8C0F9D1FDF91CF91B9
:1017F000FF90EF90DF90CF9008954AE0C701B601C7
:10180000DF91CF91FF90EF90DF90CF900C949A0BE7
:10181000CF93DF930E948D0BEC0180EA98E70E9442
:101820008D0B8C0F9D1FDF91CF9108950C948D0B24
:101830000F931F93CF93DF93C82FD62F83EA98E798
:101840000E94160C0C2F10E0095B174DCD17A0F469
:10185000F80161918F0188EB98E76A3021F06D30D3
:1018600031F483EC98E70E94160CCF5FEFCF86EA45
:1018700098E20E940406F9CF86EB98E7DF91CF91BA
:101880001F910F910C94080CFF920F931F93CF930D
:10189000DF93EC01F62E08811981C8010E9481199D
:1018A000F81621F06F2DC8010E948919CE01DF9131
:1018B000CF911F910F91FF9008950F931F93CF9396
:1018C000DF9300D0CDB7DEB78C018130910511F0E8
:1018D000029719F5009361291093622961E070E085
:1018E0008EE10E94820187E090E089839A83602FD5
:1018F000CE0101960E94440C88E090E089839A838F
:10190000602F6095CE0101960E94440C0F900F90BD
:10191000DF91CF911F910F91089582E090E0809325
:1019200061299093622970E060E0DACF1F93CF9332
:10193000DF9300D0CDB7DEB787E090E00E94811939
:10194000182F88E090E00E9481198095811799F006
:1019500087E090E089839A8363E0CE0101960E943C
:10196000440C88E090E089839A836CEFCE01019665
:101970000E94440C13E0812F90E00F900F90DF91B4
:10198000CF911F91089520919F28211180C084300C
:10199000910509F445C098F48230910529F1039727
:1019A00099F18091202890912128C29708F065C074
:1019B00082E390E080932028909321280895863038
:1019C000910509F44AC0D8F1079759F7809120286A
:1019D000909121288D3B914008F04CC080912028A7
:1019E0009091212805960BC0809120289091212864
:1019F000C397B8F280912028909121280197809375
:101A0000202890932128CDCF8091202890912128C3
:101A1000C59790F080912028909121280297EFCFD0
:101A20008091202890912128C89730F0809120281B
:101A3000909121280597E3CF82E390E0E0CF809159
:101A4000202890912128823C914008F0AACF8091D3
:101A50002028909121280196D2CF80912028909122
:101A60002128803C914030F48091202890912128B9
:101A70000296C5CF82EC91E0C2CF80912028909150
:101A80002128833C914000F182EC91E093CF20919A
:101A90009E282130C9F482309105B9F08530910536
:101AA000F9F0019789F480919128909192288031E2
:101AB000974250F08BE090E0809322289093232867
:101AC00010929E2810929F2808950E94960C815093
:101AD000882351F0843008F083E090E00C945D0C92
:101AE0000E94960C8F5FF4CF81E0F7CFCF93DF9306
:101AF00080913C28833008F46BC110923C2880917F
:101B00003A2890913B28019680933A2890933B285D
:101B10008091A0289091A128892B49F08091A0283C
:101B20009091A12801978093A0289093A12880915B
:101B3000382890913928893E23E0920708F43CC167
:101B4000109238281092392880919B2890919C28D7
:101B5000019680939B2890939C2880915F29909177
:101B600060298093982890939928809136289091A5
:101B700037288835924011F581E080939028409174
:101B800020285091212820915F293091602980914F
:101B90009A28E0912228F0912328E930F10508F0F5
:101BA00009C1EB52F24F0C946C1BF10DC00ECE0E1E
:101BB000C00EC70EF10DF10D410E410E8091362879
:101BC000909137288935924010F00000D8CF80914D
:101BD000362890913728019680933628909337289D
:101BE000CECF882309F44AC0C901B0E0A0E070E07C
:101BF00060E0481B590B6A0B7B0B463051056105B1
:101C00007105E4F140912F2850913028841B950BE9
:101C1000A109B10983309105A105B10550F5809165
:101C20002E288F5F80932E2880912E28873070F089
:101C300081E08093892810922E2881E090E08093A3
:101C40002228909323288AE080932D28293582E04A
:101C5000380760F083E08093892881E090E08093EA
:101C60002228909323288AE080932D2810922C28F4
:101C700018C0873F9F4FAF4FBF4F8CF210922E2856
:101C8000D3CF293542E0340760F083E08093892880
:101C900081E090E080932228909323288AE080932B
:101CA0002D2820932F28309330288091342890912C
:101CB00035288A30910508F485C010923428109296
:101CC000352884E00E94FE01892B09F085C08091AF
:101CD000912890919228892B21F490E080E00E9435
:101CE000C30C8091912890919228019649F080919F
:101CF0009128909192280196809391289093922810
:101D0000C0913328CC0FCF70C093332886E00E9457
:101D1000FE01892B19F0C160C093332880913328CC
:101D20008330F9F4C0913128D091322885E00E94A7
:101D3000FE01892B09F060C0CA30D10570F084E043
:101D400090E0C233D10538F083E090E0CA3FD1057E
:101D500010F082E090E00E94C30C109231281092A3
:101D6000322880913128909132288F3F980729F0AE
:101D700001968093312890933228DF91CF91089576
:101D800080912D28882309F48CCF815088CF8091B1
:101D90002D28882341F0815080932D2810922228ED
:101DA0001092232863CF10922E281092222810928E
:101DB0002328F4CF000075CF0196809338289093A4
:101DC000392873CF0196809334289093352879CFA2
:101DD0008F5F80933C2875CF8091912890919228B5
:101DE000893C910520F081E090E00E94C30C1092A4
:101DF00091281092922884CFCA30D10508F4ADCF33
:101E000087E090E0C233D10508F4A5CF86E090E0EA
:101E1000CA3FD10508F49FCF85E090E09CCF1F9288
:101E20000F920FB60F9211248F939F93AF93BF938E
:101E30008091A2289091A328A091A428B091A528D0
:101E40000196A11DB11D8093A2289093A328A09371
:101E5000A428B093A52881E08093A60ABF91AF91F2
:101E60009F918F910F900FBE0F901F9018951F920A
:101E70000F920FB60F9211242F933F934F935F93BE
:101E80006F937F938F939F93AF93BF93EF93FF9342
:101E900086EA98E20E94BF05FF91EF91BF91AF9152
:101EA0009F918F917F916F915F914F913F912F9172
:101EB0000F900FBE0F901F9018951F920F920FB6A4
:101EC0000F9211242F938F939F93EF93FF93E091A1
:101ED000B228F091B328818181FD1BC0908180914F
:101EE000BC288F5F8F732091BD28821741F0E0914D
:101EF000BC28F0E0EA55F74D958F8093BC28FF9100
:101F0000EF919F918F912F910F900FBE0F901F9087
:101F100018958081F4CF1F920F920FB60F92112463
:101F20002F933F934F935F936F937F938F939F93E1
:101F3000AF93BF93EF93FF9380912528909126282C
:101F4000A0912728B09128280196A11DB11D80934A
:101F5000252890932628A0932728B093282881E04D
:101F60008093B60AE0914528F0914628309709F011
:101F70000995809124288330A0F48F5F80932428D2
:101F8000FF91EF91BF91AF919F918F917F916F9151
:101F90005F914F913F912F910F900FBE0F901F9027
:101FA000189510922428E0914328F0914428309706
:101FB00039F382819381009719F301978283938388
:101FC000DFCF1F93CF93DF93E6EAF8E2128213820A
:101FD00088EE93E0A0E0B0E084839583A683B78386
:101FE00089E098E78083918380E098E084879587F3
:101FF00081E086871786108A95E0918B94E0928B1A
:10200000838B148A158A168A178A108E118E82E1A4
:10201000828F138E148EC3E4D9E284E090E08C8327
:102020009D8383E08E8312E01F8361E070E00E9455
:102030001C0161E070E08F810E94520170E060E05D
:102040008FE00E941C01EBE4F9E2108388E494E045
:10205000818392830E940E01C9E5D9E283E898E763
:10206000888399831A821B8289E798E78C839D83F2
:1020700087EE93E08E839F8382E090E08887998744
:102080001A861B861C861D861E868FEF9FEF8F8704
:10209000988B1A8E0E942A0A1C8E1D8EDF91CF917A
:1020A0001F910895CF93DF93CDB7DEB76897CDBF6B
:1020B000DEBF88ED90E084BF9093610080910206BE
:1020C00086608093020680910006816080930006FE
:1020D0000E942A0A1092E20582E08093E40581E0E2
:1020E0008093030A8EEF8093270A8093260A80E864
:1020F00080932D0A80932B0A8093290A80932C0ABF
:1021000080932A0A8093280A8BE08093000A87E054
:102110008093E505E0E8FAE037E02EEF90E885E00F
:1021200031832487958780837096E03C4AE0F407EA
:10213000B9F71092A10A8FE19EE48093AC0A9093C4
:10214000AD0A8091A50A81608093A50A1092A00A29
:102150008091A00A81608093A00A789482E090E048
:102160000E948119082F10E0102F002783E090E0D3
:102170000E948119082B98012253310921393140DD
:1021800010F002E310E0009320281093212870E063
:1021900060E08FE00E941C0161E070E08FE00E942F
:1021A000820170E060E080E10E941C0161E070E06B
:1021B00080E10E94820170E060E081E10E941C01E8
:1021C00061E070E081E10E94820170E060E082E104
:1021D0000E941C0161E070E082E10E94820170E0D7
:1021E00060E083E10E941C0161E070E083E10E94F5
:1021F000820170E060E089E10E941C0161E070E012
:1022000089E10E94820170E060E08AE10E941C0185
:1022100061E070E08AE10E94820170E060E08BE1A1
:102220000E941C0161E070E08BE10E94820170E07D
:1022300060E08CE10E941C0161E070E08CE10E9492
:10224000820170E060E08DE10E941C0161E070E0BD
:102250008DE10E94820170E060E087E20E941C0133
:1022600061E070E087E20E94820170E060E084E259
:102270000E941C0161E070E084E20E94820170E033
:1022800060E085E20E941C0161E070E085E20E944E
:10229000820170E060E08FE10E941C0161E070E06B
:1022A0008FE10E94820170E060E080E20E941C01E8
:1022B00061E070E080E20E94820170E060E081E213
:1022C0000E941C0161E070E081E20E94820170E0E6
:1022D00060E082E20E941C0161E070E082E20E9404
:1022E000820170E060E083E20E941C0161E070E026
:1022F00083E20E94820170E060E080E00E941C01A5
:1023000061E070E080E00E94820170E060E081E0C6
:102310000E941C0161E070E081E00E94820161E0A6
:1023200070E08EE00E941C0170E060E08EE00E9490
:10233000820161E070E08EE10E941C0170E060E0CB
:102340008EE10E94820170E060E088E10E941C0141
:1023500070E060E088E10E94820170E060E086E168
:102360000E941C0170E060E086E10E94820170E042
:1023700060E087E10E941C0170E060E087E10E945C
:10238000820170E060E082E00E941C0170E060E089
:1023900082E00E94820170E060E083E00E941C0104
:1023A00070E060E082E00E94820170E060E084E022
:1023B0000E941C0161E070E084E00E94820170E0F4
:1023C00060E085E00E941C0161E070E085E00E9411
:1023D000820170E060E086E00E941C0161E070E034
:1023E00086E00E94820170E060E087E00E941C01AC
:1023F00061E070E087E00E94820161E070E083E0CC
:102400000E941C0161E070E082E00E941C016FE705
:1024100080E00E94A0026FE781E00E94A0026FE7C7
:1024200082E00E94A0026FE783E00E94A00280E4A5
:102430008093432980EC809344298AE8809345293E
:1024400060E070EE8AE096E40E94380A0E94960CE2
:102450000E945D0CF8941092B10A87E893E1809392
:10246000BC0A9093BD0A8091B50A81608093B50A39
:102470001092B00A8091B00A81608093B00A86E71A
:102480009DE0809345289093462889E599E28093C2
:1024900043289093442891E0909341041092000ABD
:1024A00082E08093E4051092030A1092010A809161
:1024B000090A8E7F8093090A83E18093010A20E054
:1024C00038E02093360A3093370A1092380A109277
:1024D000390A9093000A789440E052EC61E070E091
:1024E00086EA98E20E941C0A10929F280E94BD086A
:1024F0001092380A1092390A89E090E080932228DD
:102500009093232825E0222E312C34E0432E512CA9
:1025100080918828811113C08CEC98E70E94080CE8
:102520008CEE98E70E94080C83E99BE70E94080C58
:1025300089E79CE70E94160C81E08093882890E44C
:10254000692E86EA98E20E94DA0418161906F4F554
:1025500086EA98E20E94B804182F8D3009F063C013
:1025600080918728803408F067C0E82FF0E0E95BAD
:10257000F74D10838F5F809387281D3011F01A303C
:1025800001F784EE9BE70E94160C80918728882330
:10259000C1F21D821E821F821886E7E4F8E2F12C48
:1025A000813408F44FC08CE099E70E94080CE7E4FE
:1025B000F8E2119267E878E26E177F07D1F7109280
:1025C000872810E000E0F12CE12C5CC10E94C106DC
:1025D000E0912228F0912328E031F10508F0C4C4ED
:1025E000EC50FD4E0C946C1BEE17A118AC18AF18F4
:1025F000C418DB180C194519521917167E178F17B6
:10260000A4170413C717D01780ED97E02091A028D6
:102610003091A128203D374009F4A9C48093A02817
:102620009093A128F3CF8A3009F49ACF682F86EAD5
:1026300098E20E94040694CF609287289ECFFA2CDD
:102640008A15E1F19F012754384269019191AA242A
:10265000A394AF0C903221F09A3011F09D3079F7AD
:102660000F2D10E0A8016DE171E087E498E20E946F
:102670007319892B09F4DBC0A80169E171E087E4D3
:1026800098E20E947319892B09F4D5C0A80164E16E
:1026900071E087E498E20E947319892B09F4CFC096
:1026A000A8016EE071E087E498E20E947319892B1B
:1026B00009F4C9C06F2D80E00E94180CF12CE12CA8
:1026C00090918728A91608F09BC1F601E95BF74DA8
:1026D00080818A3009F494C18D3009F491C10A2DAA
:1026E00010E0F801E95BF74D9A2CAF0147545842CE
:1026F0004F8B588F819151E0590D5E8B803229F0BC
:102700008A3019F08D3009F0A2C0C92CCA18D12C1A
:10271000095B174DA60165E071E0C8010E947319BD
:10272000892B09F498C0A60169EF70E0C8010E94E6
:102730007319892B09F492C0A6016EEE70E0C801EE
:102740000E947319892B09F48CC0A60162EE70E017
:10275000C8010E947319892B09F486C0A6016CED8B
:1027600070E0C8010E947319892B09F480C0A6018A
:1027700063ED70E0C8010E94731906E010E0892B38
:1027800031F0692D8A2D0E94180C10E000E0609154
:1027900087287E89761708F075C0EF89F88DE95B88
:1027A000F74D80818A3009F46DC08D3009F46AC01C
:1027B000F801EE0FFF1FE65CF84880819181892BBC
:1027C00029F4872F0E94180C10E000E0F801EE0FAA
:1027D000FF1FE65CF84820813181C9010797029705
:1027E00008F48DC07E88812C912C5401809187281B
:1027F000781608F008C1E72DF0E0E95BF74DE081BD
:1028000080ED8E0F8A30B0F5AAE0B0E0A50194010A
:102810000E94881B4E2F4053550B4A01550FAA08A2
:10282000BB08860E971EA81EB91E7394DFCF82E0E8
:10283000E82EF12C45CFEE24E394F12C41CF14E0A7
:10284000E12EF12C3DCFB3E0EB2EF12C39CF9E8859
:1028500099114BCF9ACF01E010E099CF02E010E040
:1028600096CF03E010E093CF04E010E090CF05E0B6
:1028700010E08DCFEA3011F0ED3061F58D829E824F
:10288000AF82B886E982FA820B831C83798689E05D
:10289000FE013196DE011D9601900D928A95E1F7B9
:1028A000F2E0EF16F10409F4EFC008F0AEC0EA94CC
:1028B000EF2809F442C1E7E4F8E2119287E898E2D0
:1028C0008E179F07D1F71092872887E79CE70E9411
:1028D000160C37CEEF51E03608F4A7CF1D821E82CA
:1028E0001F82188683EA98E70E94160C672D8E894E
:1028F0000E94180C10E000E0F12CE12C96CF4091E2
:1029000087285E89852F90E0BC01695B774D6B015C
:102910006D837E834B01FB01782E7E89771A8417A5
:1029200008F060C091919A3019F09D3009F058C0BC
:102930002730310509F4A6CFA72CB12CA50160EDF5
:1029400070E0C6010E947319892B29F481E090E0A0
:102950008D839E8397CFA5016CEC70E0C6010E9429
:102960007319892B19F482E090E0F2CFA50168EC8D
:1029700070E0C6010E947319892B19F483E090E07E
:10298000E7CFA50164EC70E0C6010E947319892BA2
:1029900019F44D825E8276CFA50160EC70E0C6012D
:1029A0000E947319892B19F42D823E826BCF8CE122
:1029B00099E70E94160CD12CD71449F0F4016191CB
:1029C0004F0186EA98E20E940406D394F5CF8EE187
:1029D00099E70E94080C1D821E821F82188652CF22
:1029E0008F5F9ACF1D821E821F82188684EA98E725
:1029F0000E94160C609187288E890E94180CE1CDE8
:102A000010E000E03FCF712C3DCF43E0E416F1042D
:102A100009F401C154E0E516F10409F04CCF8AE352
:102A200099E70E94080C83E99BE70E94080C8DE45B
:102A300099E70E94080C89E899E70E94080C85EC48
:102A400099E70E94080C8EEF99E70E94080C83E337
:102A50009AE70E94080C86E69AE70E94080C83EA2F
:102A60009AE70E94080C8FED9AE70E94080C8DE10E
:102A70009BE70E94080C8FE59BE70E94080C82E907
:102A80009BE70E94080C17CF0130110531F006308A
:102A9000110599F185E09CE7F4CF89899A89AB8982
:102AA000BC89009761E0A607B10508F004CF9C013E
:102AB000225331092139314070F42091222830917C
:102AC00023282530310519F02730310589F480930A
:102AD0008A2890938B2886ED9BE70E94160C0E9413
:102AE000090ABC0190E080E04AE00E949A0B16C0FF
:102AF0008093202890932128EECF89899A89843069
:102B0000910541F08530910561F0039769F482E009
:102B100090E002C081E090E00E945D0C80EE9BE7B7
:102B200009C083E090E0F8CF87EE9BE70E94080C95
:102B30008DEF9BE70E94160CBECE0330110561F1AC
:102B400080F40130110539F20230110509F0A2CFED
:102B50008DE29CE70E94160C60919828709199284C
:102B6000C1CF0530110561F110F10630110509F0F2
:102B700091CF80E49CE70E94160C0E94960C823054
:102B8000910509F442C083309105D1F1019709F014
:102B90003FC084E59CE736C083E19CE70E94160CA9
:102BA0000E94BC00815191400E94D80BB7CF86E2B1
:102BB0009CE70E94160C8091682990916929F2CFB8
:102BC00089E39CE70E94160C80912228909123288B
:102BD00060E48230910549F08330910519F060E09E
:102BE000019719F460918928605870E090E080E0C6
:102BF0004AE00E949A0B80EE9BE70E94160CB9CF28
:102C00008AE49CE70E94160C89CF82E69CE7FACF03
:102C10008CE69CE7F7CF0530110509F03BCF80919A
:102C20009D288F5F80939D2884E79CE72ACF89E5C4
:102C300099E20E94890B80917329811114C0BB24F1
:102C4000B39456E5E52E59E2F52E8091582981116D
:102C500004C00E946C0381118FC0109256291092FB
:102C600058291092572980917329882309F4D5C0D7
:102C70008CEE9CE70E94080C0E946C038AE699E2A5
:102C80000E94540361E084E40E9420030E940E012C
:102C900068EE73E080E090E00E9431040E946C03D3
:102CA0008AE699E20E94540360E08EEB0E942003C2
:102CB0008E010F5F1F4F7E012AE0E20EF11C902E65
:102CC000812E48E0C42ED12CB12CAA24A3940E94BA
:102CD000BE038111BA28AA0C31E0C31AD108B9F792
:102CE000F801B1928F01EE16FF0659F7198568E0D9
:102CF000892D982D0E94AA06181721F080E09DE7E3
:102D00000E94080C69817A8180917229882309F4D4
:102D1000E0C033E0660F771F3A95E1F78885803190
:102D200041F42F818CE090E0821B9109607F680F55
:102D3000791F072E000C880B990B0E94DA1920E0EE
:102D400030E040E85DE30E94621A0E94A2196F5EC3
:102D50007E4F609368297093692980ED97E02091F8
:102D6000A0283091A128203D374009F4C0C08093AD
:102D7000A0289093A128F3CF60E080EF0E94200369
:102D800001E0C12CA12C11E00E94BE03D82E0E94AC
:102D9000BE0391E0D91246C0813009F062C01134FF
:102DA00008F45BCFA0925629A11002C0B092582916
:102DB00080914E29882309F450CFEEE4F9E20AE627
:102DC00019E2D80181918D93EE16FF06D9F78BE7B2
:102DD0009CE70E94160C60E286EA98E20E940406D4
:102DE000F80161918F0170E090E080E040E10E9485
:102DF0009A0BF9E202371F0771F767E08AE699E25A
:102E00000E94AA0690917129891709F440C081E8AF
:102E10009CE70E94080C1092732982E19DE70E94B2
:102E2000080C9BCFEC2DF0E0D81211C080915629F0
:102E30001817A8F4DF01A55BB64D13968C9180237B
:102E400081F4D12C193010F410935729A12EE55B91
:102E5000F64D8381902F9095892383830BC0811336
:102E6000F0CFEC2DF0E0E55BF64D8381802B838382
:102E7000DD24D3948D2D0E94E3021F5F000F11F417
:102E8000C39401E0E7E0EC1508F07ECF88CF80EA3C
:102E900098E70E948D0B80916A298232A1F08832D6
:102EA00059F0803199F483E99CE70E94080CB092B4
:102EB0007229B0927329C9CE84EA9CE70E94080C5B
:102EC00010927229F6CF85EB9CE7F8CF85EC9CE752
:102ED000A0CF8D81807611F4687F2BCF803211F4E2
:102EE0006C7F27CF803409F024CF6E7F22CF8AE019
:102EF00090E0809322289093232836C08091A028C8
:102F00009091A128892B19F48BE090E0F2CF84E016
:102F10000E94FE01892B41F58DE090E0EACF89E522
:102F200099E20E94850B80ED97E02091A0283091D6
:102F3000A128203D374029F08093A0289093A12814
:102F4000F4CF8CE090E0D5CF8091A0289091A1287B
:102F5000892B29F4109222281092232805C084E09E
:102F60000E94FE01892BB1F30E947706D1CA8EE040
:102F700090E0809322289093232882E29DE70E948C
:102F8000F40A81E080939F2880939E28EDCF809162
:102F9000A0289091A128892B39F78FE090E0A9CF44
:102FA00070E060E08DE599E20E9462040E94960C58
:102FB0008230910551F08330910551F0019759F419
:102FC00087E29DE70E94F40ACFCF8CE29DE7FACF1B
:102FD00081E39DE7F7CF86E39DE7F4CF10929D282C
:102FE000E0909B28F0909C280091222810912328A3
:102FF000209120283091212840919A28609198288A
:103000007091992889E599E20E949F0A00912028F1
:103010001091212882E090E089839A83612FCE016C
:1030200001960E94440C83E090E089839A83602F8C
:10303000CE0101960E94440C0E94CB084091962834
:103040005091972880919A289FE0949F9001959F96
:10305000300D1124820F932F911D80939628909309
:103060009728809196289091972824E096958795A7
:103070002A95E1F780939628909397282091962897
:103080003091972880919428909195282817390796
:1030900051F1809193288F3F29F0809193288F5F81
:1030A0008093932880919328883000F580919A2806
:1030B0008436E1F08091912890919228853691058F
:1030C00038F08091912890919228803D974070F03F
:1030D00080919028882361F00E94BD0820922228C8
:1030E0003092232805C010929328DCCF0E94BD089F
:1030F000809191289091922889389341C8F010923C
:103100008C2810928D2810928E2810928F2887E09C
:1031100090E0809322289093232881E080939F2839
:10312000809120289091212880938A2890938B2841
:103130008091962890919728809394289093952831
:1031400013CF0E94F9096091892889E599E20E94CC
:103150005A0B83E090E0CDCE0E94F90905CF809113
:103160009B2890919C2880919D28882339F010926B
:103170009D284092222850922328F6CE84E00E9477
:10318000FE01892BA1F3F0CEE0909B28F0909C28C3
:103190000091222810912328209120283091212865
:1031A00040919A28609198287091992889E599E230
:1031B0000E949F0AD9CE81E080939F28E0909B28AF
:1031C000F0909C28009122281091232820912028FB
:1031D0003091212840919A286091982870919928DF
:1031E00089E599E20E949F0A8091202890912128E8
:1031F00080938A2890938B28809120289091212871
:103200008536910530F084E690E0809320289093F5
:10321000212886E090E06DCEE0909B28F0909C28DD
:1032200000912228109123282091202830912128D4
:1032300040919A28609198287091992889E599E29F
:103240000E949F0A0E94CB0884E00E94FE01892B05
:1032500039F48091912890919228883E934050F0C3
:1032600080919028882309F47FCE0E94BD0887E0D2
:1032700090E03FCE80918A2890918B2880932028DF
:103280009093212810929F2865CE0E94F9090E94F0
:103290004E0B109220281092212810929A2888E034
:1032A00090E027CE0E944E0B84E00E94FE01892B05
:1032B00009F05ACE8091912890919228883E9340AF
:1032C00008F052CE109222281092232880918A284A
:1032D00090918B2880932028909321280E94BD08EC
:1032E00010929F2841CEFB01DC014150504030F04C
:1032F0008D910590801919F40020B9F7881B990B5E
:10330000089503D0808199270895FC01E050FC4E78
:103310000895262FAF93BF93E0E0F0E1328131FDB5
:10332000FDCFDC01A050BC4E2C932DE924BF23E03F
:1033300020830196BF91AF9108950E94151A08F459
:1033400081E008950E94A9196894B1110C945C1A47
:1033500008950E94411A88F09F5798F0B92F992735
:10336000B751B0F0E1F0660F771F881F991F1AF070
:10337000BA95C9F714C0B13091F00E945B1AB1E060
:1033800008950C945B1A672F782F8827B85F39F05F
:10339000B93FCCF3869577956795B395D9F73EF409
:1033A00090958095709561957F4F8F4F9F4F0895B1
:1033B000E89409C097FB3EF49095809570956195CF
:1033C0007F4F8F4F9F4F9923A9F0F92F96E9BB2785
:1033D0009395F695879577956795B795F111F8CF01
:1033E000FAF4BB0F11F460FF1BC06F5F7F4F8F4F6C
:1033F0009F4F16C0882311F096E911C0772321F062
:103400009EE8872F762F05C0662371F096E8862FF9
:1034100070E060E02AF09A95660F771F881FDAF750
:10342000880F9695879597F90895990F0008550F7D
:10343000AA0BE0E8FEEF16161706E807F907C0F03A
:1034400012161306E407F50798F0621B730B840B42
:10345000950B39F40A2661F0232B242B252B21F41C
:1034600008950A2609F4A140A6958FEF811D811DBC
:10347000089557FD9058440F551F59F05F3F71F064
:103480004795880F97FB991F61F09F3F79F08795CB
:103490000895121613061406551FF2CF4695F1DF54
:1034A00008C0161617061806991FF1CF86957105E4
:1034B000610508940895E894BB2766277727CB0118
:1034C00097F908950E94751A0C94E61A0E94D81A6A
:1034D00038F00E94DF1A20F0952311F00C94CF1AD7
:1034E0000C94D51A11240C945C1A0E94391A70F3AA
:1034F000959FC1F3950F50E0551F629FF001729F99
:10350000BB27F00DB11D639FAA27F00DB11DAA1FA7
:10351000649F6627B00DA11D661F829F2227B00DF4
:10352000A11D621F739FB00DA11D621F839FA00D7F
:10353000611D221F749F3327A00D611D231F849FCF
:10354000600D211D822F762F6A2F11249F57504026
:103550009AF0F1F088234AF0EE0FFF1FBB1F661FA1
:10356000771F881F91505040A9F79E3F510580F06A
:103570000C94CF1A0C945C1A5F3FE4F3983ED4F39A
:10358000869577956795B795F795E7959F5FC1F70E
:10359000FE2B880F911D9695879597F9089597F9B9
:1035A0009F6780E870E060E008959FEF80EC0895E9
:1035B00000240A9416161706180609060895002412
:1035C0000A9412161306140605060895092E03948C
:1035D000000C11F4882352F0BB0F40F4BF2B11F400
:1035E00060FF04C06F5F7F4F8F4F9F4F0895991BFF
:1035F00079E004C0991F961708F0961B881F7A95EA
:10360000C9F780950895AA1BBB1B51E107C0AA1FEB
:10361000BB1FA617B70710F0A61BB70B881F991F73
:103620005A95A9F780959095BC01CD01089597FB17
:10363000072E16F4009407D077FD09D00E94031BD3
:1036400007FC05D03EF4909581959F4F08957095A5
:1036500061957F4F0895A1E21A2EAA1BBB1BFD01A5
:103660000DC0AA1FBB1FEE1FFF1FA217B307E40761
:10367000F50720F0A21BB30BE40BF50B661F771FB9
:10368000881F991F1A9469F7609570958095909599
:103690009B01AC01BD01CF010895052E97FB1EF4DF
:1036A00000940E94641B57FD07D00E942B1B07FC4F
:1036B00003D04EF40C94641B5095409530952195A1
:1036C0003F4F4F4F5F4F089590958095709561954E
:1036D0007F4F8F4F9F4F0895EE0FFF1F0590F4917E
:1036E000E02D0994A29FB001B39FC001A39F700D6C
:1036F000811D1124911DB29F700D811D1124911DFA
:1037000008950E94721BB7FF0895821B930B0895C2
:103710000E94721BA59F900DB49F900DA49F800DD9
:10372000911D11240895B7FF0C94881B0E94881BDB
:0A373000821B930B0895F894FFCF5D
:10373A000000030000000000000000000800000074
:10374A000000000000000000000000050101010166
:10375A00010100000000000000000000000000005D
:10376A00000000000203000001020304050607002E
:10377A000102030405000102030405060700010211
:10378A0003040506070001020300010203040506FB
:10379A00000000000000000000006300004000007C
:1037AA00000000000000000000000000000000000F
:1037BA0000777C395E79713576061E753837545C28
:1037CA00737B506D781C3E7E766E1B0000000108EC
:1037DA00005F7C585E797135740416753837545C0D
:1037EA007367506D781C3E2A766E1B3F065B4F66E8
:1037FA006D7D077F6F777C395E7971000000000468
:10380A00067C04A9045506DA04B804CC049C059184
:10381A00051C0A0905F004A80600000000000000C3
:10382A000001010101010102020202020202020375
:10383A000303030303030304040404050505050540
:10384A000505010204081020408001020408102026
:10385A000102040810204080010204081020408060
:10386A00010204080102040810204000000000625E
:10387A00047704250A00000000890B850B610461A6
:10388A00049F0A5A0B4A0B452D302000626F6F7451
:10389A000046315F34000D0A002053796E74617856
:1038AA00206572726F72206E6561723A22005B4EF9
:1038BA004557204C494E455D005B52455455524E82
:1038CA005D00456C656B746F7220536F6C64657232
:1038DA00696E6773746174696F6E20465720312E62
:1038EA00340020206F6E204861726477617265200F
:1038FA003139303430392020202020202020202047
:10390A002000427566666572206F766572666C6F16
:10391A007700270027206E6F74207265636F676EC9
:10392A00697A6564206173206B6579776F726400C8
:10393A00537570706F7274656420636F6D6D616E1C
:10394A006473007365742F67657420736574706F90
:10395A00696E74205B7878785D202D3E2054686902
:10396A00732077696C6C20736574206F72206765A9
:10397A00742074686520736574706F696E7400735F
:10398A0065742F6765742069726F6E74797065202B
:10399A005B7878785D202D3E2054686973207769BA
:1039AA006C6C20736574206F72206765742074686C
:1039BA00652069726F6E747970650020202020205E
:1039CA002020202020202020202020202057525450
:1039DA00203D2057656C6C657220525420546970E2
:1039EA00202820313256202F2054797065204B2010
:1039FA0029202000202020202020202020202020D4
:103A0A00202020202020484B4F203D2048414B4B6E
:103A1A004F20546970202820323456202F205479A0
:103A2A0070652043202920200020202020202020EB
:103A3A0020202020202020202020204A4243203DF0
:103A4A00204A424320546970202820323456202FBD
:103A5A002054797065204B20292020006765742046
:103A6A0074656D70657261747572652020202020FE
:103A7A002020202D3E20546869732077696C6C20C1
:103A8A007265706F727420746865206375727265EE
:103A9A006E742074656D702E00676574206F6E6396
:103AAA0068697074656D70202020202020202020F5
:103ABA002D3E20546869732077696C6C207265709A
:103ACA006F727420746865206F6E63686970207401
:103ADA00656D702E00676574206F6E657769726513
:103AEA0074656D702020202020202020202D3E206B
:103AFA00546869732077696C6C207265706F727490
:103B0A0020746865206F6E65776972652074656DCB
:103B1A00702E00636C656172206572726F7220206C
:103B2A00202020202020202020202D3E20496620F1
:103B3A00616E206572726F722069732073686F7785
:103B4A006E20746869732077696C6C20636C656198
:103B5A00722069740068656C702020202020202063
:103B6A002020202020202020202020202D3E2054EC
:103B7A006869732077696C6C2073686F7720746842
:103B8A0069732068656C70002D2D2D2D2D2D2D2D1E
:103B9A002D2D2D2D2D2D2D2D2D2D2D2D2D2D2D2D4B
:103BAA002D2D2D2D2D2D2D2D2D2D2D2D2D2D2D2D3B
:103BBA002D2D2D2D2D2D2D2D2D2D2D2D2D2D2D2D2B
:103BCA002D2D2D2D2D2D2D2D2D2D2D005365747060
:103BDA006F696E743A000A0D4F4B0A0D004B6579F6
:103BEA00776F7264206E6F7420737570706F727461
:103BFA006564000A0D4552520A0D004E6F74207317
:103C0A007570706F72746564004F6E4368697020D6
:103C1A0054656D706572617475723A00312D576919
:103C2A0072652054656D706572617475723A0045EB
:103C3A0072726F723A0049726F6E747970653A00E7
:103C4A0057656C6C65722052540048414B4B4B4F80
:103C5A0020465838383031004A42432054323435ED
:103C6A004100554E4B4E4F574E004F4B000D0A3EEA
:103C7A0000524F4D203D00435243206973206E6F1E
:103C8A00742076616C696421002020436869702081
:103C9A003D20445331385332300020204368697044
:103CAA00203D204453313842323000202043686995
:103CBA0070203D20445331383232004465766963BE
:103CCA0065206973206E6F742061204453313878FF
:103CDA0032302066616D696C792064657669636546
:103CEA002E0052656164204F6E65776972652053B4
:103CFA00656E736F72004F6E655769726520435225
:103D0A0043204572726F72004E6F2053656E736F57
:103D1A007220666F756E6400434F4E460030204332
:103D2A003100302043320030204333003020433802
:013D3A000088
:103D3B00FF00000000000000000000000000000079
:103D4B000000000000000000000000000000000068
:043D5B003200090029
:00000001FF
